{
  "_format": "hh-sol-artifact-1",
  "contractName": "LanguageDAOFactory",
  "sourceName": "contracts/LanguageDAOFactory.sol",
  "abi": [
    {
      "inputs": [],
      "stateMutability": "nonpayable",
      "type": "constructor"
    },
    {
      "inputs": [
        {
          "internalType": "address",
          "name": "",
          "type": "address"
        }
      ],
      "name": "allDataDaos",
      "outputs": [
        {
          "internalType": "address",
          "name": "dataDaoOwner",
          "type": "address"
        },
        {
          "internalType": "string",
          "name": "dataDaoName",
          "type": "string"
        },
        {
          "internalType": "string",
          "name": "dataDaoDescription",
          "type": "string"
        },
        {
          "internalType": "address",
          "name": "dataDaoAddress",
          "type": "address"
        },
        {
          "internalType": "address",
          "name": "dataDAOTokenAddress",
          "type": "address"
        },
        {
          "internalType": "uint256",
          "name": "totalSupplly",
          "type": "uint256"
        },
        {
          "internalType": "uint256",
          "name": "tokenPrice",
          "type": "uint256"
        }
      ],
      "stateMutability": "view",
      "type": "function"
    },
    {
      "inputs": [
        {
          "internalType": "uint256",
          "name": "",
          "type": "uint256"
        }
      ],
      "name": "allDataDaosAddress",
      "outputs": [
        {
          "internalType": "address",
          "name": "",
          "type": "address"
        }
      ],
      "stateMutability": "view",
      "type": "function"
    },
    {
      "inputs": [
        {
          "internalType": "address",
          "name": "_dataDAOAddress",
          "type": "address"
        },
        {
          "internalType": "string",
          "name": "_name",
          "type": "string"
        },
        {
          "internalType": "string",
          "name": "_description",
          "type": "string"
        },
        {
          "internalType": "contract IERC20",
          "name": "_token",
          "type": "address"
        },
        {
          "internalType": "uint256",
          "name": "_tokenPrice",
          "type": "uint256"
        },
        {
          "internalType": "uint256",
          "name": "_totalSupply",
          "type": "uint256"
        }
      ],
      "name": "createDataDao",
      "outputs": [],
      "stateMutability": "nonpayable",
      "type": "function"
    },
    {
      "inputs": [],
      "name": "dataDaoFactoryOwner",
      "outputs": [
        {
          "internalType": "address",
          "name": "",
          "type": "address"
        }
      ],
      "stateMutability": "view",
      "type": "function"
    },
    {
      "inputs": [],
      "name": "getAllDataDaos",
      "outputs": [
        {
          "components": [
            {
              "internalType": "address",
              "name": "dataDaoOwner",
              "type": "address"
            },
            {
              "internalType": "string",
              "name": "dataDaoName",
              "type": "string"
            },
            {
              "internalType": "string",
              "name": "dataDaoDescription",
              "type": "string"
            },
            {
              "internalType": "address",
              "name": "dataDaoAddress",
              "type": "address"
            },
            {
              "internalType": "address",
              "name": "dataDAOTokenAddress",
              "type": "address"
            },
            {
              "internalType": "uint256",
              "name": "totalSupplly",
              "type": "uint256"
            },
            {
              "internalType": "uint256",
              "name": "tokenPrice",
              "type": "uint256"
            }
          ],
          "internalType": "struct LanguageDAOFactory.dataDaoFactoryStruct[]",
          "name": "",
          "type": "tuple[]"
        }
      ],
      "stateMutability": "view",
      "type": "function"
    },
    {
      "inputs": [
        {
          "internalType": "uint256",
          "name": "id",
          "type": "uint256"
        }
      ],
      "name": "getDataDaoInstance",
      "outputs": [
        {
          "components": [
            {
              "internalType": "address",
              "name": "dataDaoOwner",
              "type": "address"
            },
            {
              "internalType": "string",
              "name": "dataDaoName",
              "type": "string"
            },
            {
              "internalType": "string",
              "name": "dataDaoDescription",
              "type": "string"
            },
            {
              "internalType": "address",
              "name": "dataDaoAddress",
              "type": "address"
            },
            {
              "internalType": "address",
              "name": "dataDAOTokenAddress",
              "type": "address"
            },
            {
              "internalType": "uint256",
              "name": "totalSupplly",
              "type": "uint256"
            },
            {
              "internalType": "uint256",
              "name": "tokenPrice",
              "type": "uint256"
            }
          ],
          "internalType": "struct LanguageDAOFactory.dataDaoFactoryStruct",
          "name": "",
          "type": "tuple"
        }
      ],
      "stateMutability": "view",
      "type": "function"
    },
    {
      "inputs": [
        {
          "internalType": "address",
          "name": "_userAddress",
          "type": "address"
        }
      ],
      "name": "getUserDataDaos",
      "outputs": [
        {
          "components": [
            {
              "internalType": "address",
              "name": "dataDaoOwner",
              "type": "address"
            },
            {
              "internalType": "string",
              "name": "dataDaoName",
              "type": "string"
            },
            {
              "internalType": "string",
              "name": "dataDaoDescription",
              "type": "string"
            },
            {
              "internalType": "address",
              "name": "dataDaoAddress",
              "type": "address"
            },
            {
              "internalType": "address",
              "name": "dataDAOTokenAddress",
              "type": "address"
            },
            {
              "internalType": "uint256",
              "name": "totalSupplly",
              "type": "uint256"
            },
            {
              "internalType": "uint256",
              "name": "tokenPrice",
              "type": "uint256"
            }
          ],
          "internalType": "struct LanguageDAOFactory.dataDaoFactoryStruct[]",
          "name": "",
          "type": "tuple[]"
        }
      ],
      "stateMutability": "view",
      "type": "function"
    },
    {
      "inputs": [],
      "name": "numOfDataDao",
      "outputs": [
        {
          "internalType": "uint256",
          "name": "",
          "type": "uint256"
        }
      ],
      "stateMutability": "view",
      "type": "function"
    },
    {
      "inputs": [
        {
          "internalType": "uint256",
          "name": "",
          "type": "uint256"
        }
      ],
      "name": "searchByDaoId",
      "outputs": [
        {
          "internalType": "address",
          "name": "",
          "type": "address"
        }
      ],
      "stateMutability": "view",
      "type": "function"
    },
    {
      "inputs": [
        {
          "internalType": "address",
          "name": "",
          "type": "address"
        },
        {
          "internalType": "uint256",
          "name": "",
          "type": "uint256"
        }
      ],
      "name": "userDataDAO",
      "outputs": [
        {
          "internalType": "address",
          "name": "",
          "type": "address"
        }
      ],
      "stateMutability": "view",
      "type": "function"
    }
  ],
  "bytecode": "0x60a060405234801561001057600080fd5b503373ffffffffffffffffffffffffffffffffffffffff1660808173ffffffffffffffffffffffffffffffffffffffff1681525050608051611e3761006060003960006102410152611e376000f3fe608060405234801561001057600080fd5b506004361061009e5760003560e01c8063b5e2239d11610066578063b5e2239d14610181578063d3ec9d991461019f578063dab138ab146101bd578063ef2dfb46146101f3578063f5e6469a146102235761009e565b806319c5c6b5146100a357806323ebbf15146100c157806339e0de61146100f1578063890ed5ab14610121578063b512c6f314610151575b600080fd5b6100ab61023f565b6040516100b8919061132f565b60405180910390f35b6100db60048036038101906100d69190611394565b610263565b6040516100e8919061132f565b60405180910390f35b61010b60048036038101906101069190611394565b610296565b6040516101189190611512565b60405180910390f35b61013b60048036038101906101369190611560565b61055c565b60405161014891906116f2565b60405180910390f35b61016b60048036038101906101669190611714565b61097f565b604051610178919061132f565b60405180910390f35b6101896109cd565b6040516101969190611763565b60405180910390f35b6101a76109d3565b6040516101b491906116f2565b60405180910390f35b6101d760048036038101906101d29190611560565b610d3d565b6040516101ea97969594939291906117c8565b60405180910390f35b61020d60048036038101906102089190611394565b610eef565b60405161021a919061132f565b60405180910390f35b61023d600480360381019061023891906119b8565b610f2e565b005b7f000000000000000000000000000000000000000000000000000000000000000081565b60036020528060005260406000206000915054906101000a900473ffffffffffffffffffffffffffffffffffffffff1681565b61029e61126f565b600260006003600085815260200190815260200160002060009054906101000a900473ffffffffffffffffffffffffffffffffffffffff1673ffffffffffffffffffffffffffffffffffffffff1673ffffffffffffffffffffffffffffffffffffffff1681526020019081526020016000206040518060e00160405290816000820160009054906101000a900473ffffffffffffffffffffffffffffffffffffffff1673ffffffffffffffffffffffffffffffffffffffff1673ffffffffffffffffffffffffffffffffffffffff16815260200160018201805461038190611aac565b80601f01602080910402602001604051908101604052809291908181526020018280546103ad90611aac565b80156103fa5780601f106103cf576101008083540402835291602001916103fa565b820191906000526020600020905b8154815290600101906020018083116103dd57829003601f168201915b5050505050815260200160028201805461041390611aac565b80601f016020809104026020016040519081016040528092919081815260200182805461043f90611aac565b801561048c5780601f106104615761010080835404028352916020019161048c565b820191906000526020600020905b81548152906001019060200180831161046f57829003601f168201915b505050505081526020016003820160009054906101000a900473ffffffffffffffffffffffffffffffffffffffff1673ffffffffffffffffffffffffffffffffffffffff1673ffffffffffffffffffffffffffffffffffffffff1681526020016004820160009054906101000a900473ffffffffffffffffffffffffffffffffffffffff1673ffffffffffffffffffffffffffffffffffffffff1673ffffffffffffffffffffffffffffffffffffffff168152602001600582015481526020016006820154815250509050919050565b60606000600460008473ffffffffffffffffffffffffffffffffffffffff1673ffffffffffffffffffffffffffffffffffffffff1681526020019081526020016000208054905067ffffffffffffffff8111156105bc576105bb61184f565b5b6040519080825280602002602001820160405280156105f557816020015b6105e261126f565b8152602001906001900390816105da5790505b50905060005b600460008573ffffffffffffffffffffffffffffffffffffffff1673ffffffffffffffffffffffffffffffffffffffff168152602001908152602001600020805490508110156109755760026000600460008773ffffffffffffffffffffffffffffffffffffffff1673ffffffffffffffffffffffffffffffffffffffff168152602001908152602001600020838154811061069a57610699611add565b5b9060005260206000200160009054906101000a900473ffffffffffffffffffffffffffffffffffffffff1673ffffffffffffffffffffffffffffffffffffffff1673ffffffffffffffffffffffffffffffffffffffff1681526020019081526020016000206040518060e00160405290816000820160009054906101000a900473ffffffffffffffffffffffffffffffffffffffff1673ffffffffffffffffffffffffffffffffffffffff1673ffffffffffffffffffffffffffffffffffffffff16815260200160018201805461077090611aac565b80601f016020809104026020016040519081016040528092919081815260200182805461079c90611aac565b80156107e95780601f106107be576101008083540402835291602001916107e9565b820191906000526020600020905b8154815290600101906020018083116107cc57829003601f168201915b5050505050815260200160028201805461080290611aac565b80601f016020809104026020016040519081016040528092919081815260200182805461082e90611aac565b801561087b5780601f106108505761010080835404028352916020019161087b565b820191906000526020600020905b81548152906001019060200180831161085e57829003601f168201915b505050505081526020016003820160009054906101000a900473ffffffffffffffffffffffffffffffffffffffff1673ffffffffffffffffffffffffffffffffffffffff1673ffffffffffffffffffffffffffffffffffffffff1681526020016004820160009054906101000a900473ffffffffffffffffffffffffffffffffffffffff1673ffffffffffffffffffffffffffffffffffffffff1673ffffffffffffffffffffffffffffffffffffffff1681526020016005820154815260200160068201548152505082828151811061095757610956611add565b5b6020026020010181905250808061096d90611b3b565b9150506105fb565b5080915050919050565b6004602052816000526040600020818154811061099b57600080fd5b906000526020600020016000915091509054906101000a900473ffffffffffffffffffffffffffffffffffffffff1681565b60005481565b6060600060018054905067ffffffffffffffff8111156109f6576109f561184f565b5b604051908082528060200260200182016040528015610a2f57816020015b610a1c61126f565b815260200190600190039081610a145790505b50905060005b600180549050811015610d35576002600060018381548110610a5a57610a59611add565b5b9060005260206000200160009054906101000a900473ffffffffffffffffffffffffffffffffffffffff1673ffffffffffffffffffffffffffffffffffffffff1673ffffffffffffffffffffffffffffffffffffffff1681526020019081526020016000206040518060e00160405290816000820160009054906101000a900473ffffffffffffffffffffffffffffffffffffffff1673ffffffffffffffffffffffffffffffffffffffff1673ffffffffffffffffffffffffffffffffffffffff168152602001600182018054610b3090611aac565b80601f0160208091040260200160405190810160405280929190818152602001828054610b5c90611aac565b8015610ba95780601f10610b7e57610100808354040283529160200191610ba9565b820191906000526020600020905b815481529060010190602001808311610b8c57829003601f168201915b50505050508152602001600282018054610bc290611aac565b80601f0160208091040260200160405190810160405280929190818152602001828054610bee90611aac565b8015610c3b5780601f10610c1057610100808354040283529160200191610c3b565b820191906000526020600020905b815481529060010190602001808311610c1e57829003601f168201915b505050505081526020016003820160009054906101000a900473ffffffffffffffffffffffffffffffffffffffff1673ffffffffffffffffffffffffffffffffffffffff1673ffffffffffffffffffffffffffffffffffffffff1681526020016004820160009054906101000a900473ffffffffffffffffffffffffffffffffffffffff1673ffffffffffffffffffffffffffffffffffffffff1673ffffffffffffffffffffffffffffffffffffffff16815260200160058201548152602001600682015481525050828281518110610d1757610d16611add565b5b60200260200101819052508080610d2d90611b3b565b915050610a35565b508091505090565b60026020528060005260406000206000915090508060000160009054906101000a900473ffffffffffffffffffffffffffffffffffffffff1690806001018054610d8690611aac565b80601f0160208091040260200160405190810160405280929190818152602001828054610db290611aac565b8015610dff5780601f10610dd457610100808354040283529160200191610dff565b820191906000526020600020905b815481529060010190602001808311610de257829003601f168201915b505050505090806002018054610e1490611aac565b80601f0160208091040260200160405190810160405280929190818152602001828054610e4090611aac565b8015610e8d5780601f10610e6257610100808354040283529160200191610e8d565b820191906000526020600020905b815481529060010190602001808311610e7057829003601f168201915b5050505050908060030160009054906101000a900473ffffffffffffffffffffffffffffffffffffffff16908060040160009054906101000a900473ffffffffffffffffffffffffffffffffffffffff16908060050154908060060154905087565b60018181548110610eff57600080fd5b906000526020600020016000915054906101000a900473ffffffffffffffffffffffffffffffffffffffff1681565b600460003373ffffffffffffffffffffffffffffffffffffffff1673ffffffffffffffffffffffffffffffffffffffff168152602001908152602001600020869080600181540180825580915050600190039060005260206000200160009091909190916101000a81548173ffffffffffffffffffffffffffffffffffffffff021916908373ffffffffffffffffffffffffffffffffffffffff1602179055506001869080600181540180825580915050600190039060005260206000200160009091909190916101000a81548173ffffffffffffffffffffffffffffffffffffffff021916908373ffffffffffffffffffffffffffffffffffffffff1602179055506040518060e001604052803373ffffffffffffffffffffffffffffffffffffffff1681526020018681526020018581526020018773ffffffffffffffffffffffffffffffffffffffff1681526020018473ffffffffffffffffffffffffffffffffffffffff16815260200183815260200182815250600260008873ffffffffffffffffffffffffffffffffffffffff1673ffffffffffffffffffffffffffffffffffffffff16815260200190815260200160002060008201518160000160006101000a81548173ffffffffffffffffffffffffffffffffffffffff021916908373ffffffffffffffffffffffffffffffffffffffff16021790555060208201518160010190816111419190611d2f565b5060408201518160020190816111579190611d2f565b5060608201518160030160006101000a81548173ffffffffffffffffffffffffffffffffffffffff021916908373ffffffffffffffffffffffffffffffffffffffff16021790555060808201518160040160006101000a81548173ffffffffffffffffffffffffffffffffffffffff021916908373ffffffffffffffffffffffffffffffffffffffff16021790555060a0820151816005015560c0820151816006015590505085600360008054815260200190815260200160002060006101000a81548173ffffffffffffffffffffffffffffffffffffffff021916908373ffffffffffffffffffffffffffffffffffffffff16021790555060008081548092919061126290611b3b565b9190505550505050505050565b6040518060e00160405280600073ffffffffffffffffffffffffffffffffffffffff1681526020016060815260200160608152602001600073ffffffffffffffffffffffffffffffffffffffff168152602001600073ffffffffffffffffffffffffffffffffffffffff16815260200160008152602001600081525090565b600073ffffffffffffffffffffffffffffffffffffffff82169050919050565b6000611319826112ee565b9050919050565b6113298161130e565b82525050565b60006020820190506113446000830184611320565b92915050565b6000604051905090565b600080fd5b600080fd5b6000819050919050565b6113718161135e565b811461137c57600080fd5b50565b60008135905061138e81611368565b92915050565b6000602082840312156113aa576113a9611354565b5b60006113b88482850161137f565b91505092915050565b6113ca8161130e565b82525050565b600081519050919050565b600082825260208201905092915050565b60005b8381101561140a5780820151818401526020810190506113ef565b60008484015250505050565b6000601f19601f8301169050919050565b6000611432826113d0565b61143c81856113db565b935061144c8185602086016113ec565b61145581611416565b840191505092915050565b6114698161135e565b82525050565b600060e08301600083015161148760008601826113c1565b506020830151848203602086015261149f8282611427565b915050604083015184820360408601526114b98282611427565b91505060608301516114ce60608601826113c1565b5060808301516114e160808601826113c1565b5060a08301516114f460a0860182611460565b5060c083015161150760c0860182611460565b508091505092915050565b6000602082019050818103600083015261152c818461146f565b905092915050565b61153d8161130e565b811461154857600080fd5b50565b60008135905061155a81611534565b92915050565b60006020828403121561157657611575611354565b5b60006115848482850161154b565b91505092915050565b600081519050919050565b600082825260208201905092915050565b6000819050602082019050919050565b600060e0830160008301516115d160008601826113c1565b50602083015184820360208601526115e98282611427565b915050604083015184820360408601526116038282611427565b915050606083015161161860608601826113c1565b50608083015161162b60808601826113c1565b5060a083015161163e60a0860182611460565b5060c083015161165160c0860182611460565b508091505092915050565b600061166883836115b9565b905092915050565b6000602082019050919050565b60006116888261158d565b6116928185611598565b9350836020820285016116a4856115a9565b8060005b858110156116e057848403895281516116c1858261165c565b94506116cc83611670565b925060208a019950506001810190506116a8565b50829750879550505050505092915050565b6000602082019050818103600083015261170c818461167d565b905092915050565b6000806040838503121561172b5761172a611354565b5b60006117398582860161154b565b925050602061174a8582860161137f565b9150509250929050565b61175d8161135e565b82525050565b60006020820190506117786000830184611754565b92915050565b600082825260208201905092915050565b600061179a826113d0565b6117a4818561177e565b93506117b48185602086016113ec565b6117bd81611416565b840191505092915050565b600060e0820190506117dd600083018a611320565b81810360208301526117ef818961178f565b90508181036040830152611803818861178f565b90506118126060830187611320565b61181f6080830186611320565b61182c60a0830185611754565b61183960c0830184611754565b98975050505050505050565b600080fd5b600080fd5b7f4e487b7100000000000000000000000000000000000000000000000000000000600052604160045260246000fd5b61188782611416565b810181811067ffffffffffffffff821117156118a6576118a561184f565b5b80604052505050565b60006118b961134a565b90506118c5828261187e565b919050565b600067ffffffffffffffff8211156118e5576118e461184f565b5b6118ee82611416565b9050602081019050919050565b82818337600083830152505050565b600061191d611918846118ca565b6118af565b9050828152602081018484840111156119395761193861184a565b5b6119448482856118fb565b509392505050565b600082601f83011261196157611960611845565b5b813561197184826020860161190a565b91505092915050565b60006119858261130e565b9050919050565b6119958161197a565b81146119a057600080fd5b50565b6000813590506119b28161198c565b92915050565b60008060008060008060c087890312156119d5576119d4611354565b5b60006119e389828a0161154b565b965050602087013567ffffffffffffffff811115611a0457611a03611359565b5b611a1089828a0161194c565b955050604087013567ffffffffffffffff811115611a3157611a30611359565b5b611a3d89828a0161194c565b9450506060611a4e89828a016119a3565b9350506080611a5f89828a0161137f565b92505060a0611a7089828a0161137f565b9150509295509295509295565b7f4e487b7100000000000000000000000000000000000000000000000000000000600052602260045260246000fd5b60006002820490506001821680611ac457607f821691505b602082108103611ad757611ad6611a7d565b5b50919050565b7f4e487b7100000000000000000000000000000000000000000000000000000000600052603260045260246000fd5b7f4e487b7100000000000000000000000000000000000000000000000000000000600052601160045260246000fd5b6000611b468261135e565b91507fffffffffffffffffffffffffffffffffffffffffffffffffffffffffffffffff8203611b7857611b77611b0c565b5b600182019050919050565b60008190508160005260206000209050919050565b60006020601f8301049050919050565b600082821b905092915050565b600060088302611be57fffffffffffffffffffffffffffffffffffffffffffffffffffffffffffffffff82611ba8565b611bef8683611ba8565b95508019841693508086168417925050509392505050565b6000819050919050565b6000611c2c611c27611c228461135e565b611c07565b61135e565b9050919050565b6000819050919050565b611c4683611c11565b611c5a611c5282611c33565b848454611bb5565b825550505050565b600090565b611c6f611c62565b611c7a818484611c3d565b505050565b5b81811015611c9e57611c93600082611c67565b600181019050611c80565b5050565b601f821115611ce357611cb481611b83565b611cbd84611b98565b81016020851015611ccc578190505b611ce0611cd885611b98565b830182611c7f565b50505b505050565b600082821c905092915050565b6000611d0660001984600802611ce8565b1980831691505092915050565b6000611d1f8383611cf5565b9150826002028217905092915050565b611d38826113d0565b67ffffffffffffffff811115611d5157611d5061184f565b5b611d5b8254611aac565b611d66828285611ca2565b600060209050601f831160018114611d995760008415611d87578287015190505b611d918582611d13565b865550611df9565b601f198416611da786611b83565b60005b82811015611dcf57848901518255600182019150602085019450602081019050611daa565b86831015611dec5784890151611de8601f891682611cf5565b8355505b6001600288020188555050505b50505050505056fea2646970667358221220487b0a199bb9dcd2cb770b1914f27ba2158596d1c588884f1112615e849d286b64736f6c63430008130033",
  "linkReferences": {},
  "deployedLinkReferences": {}
}