{
  "_format": "hh-sol-artifact-1",
  "contractName": "Timelock",
  "sourceName": "contracts/timelock.sol",
  "abi": [
    {
      "inputs": [
        {
          "internalType": "uint256",
          "name": "delay_",
          "type": "uint256"
        }
      ],
      "stateMutability": "nonpayable",
      "type": "constructor"
    },
    {
      "anonymous": false,
      "inputs": [
        {
          "indexed": true,
          "internalType": "bytes32",
          "name": "txHash",
          "type": "bytes32"
        },
        {
          "indexed": true,
          "internalType": "address",
          "name": "target",
          "type": "address"
        },
        {
          "indexed": false,
          "internalType": "uint256",
          "name": "value",
          "type": "uint256"
        },
        {
          "indexed": false,
          "internalType": "string",
          "name": "signature",
          "type": "string"
        },
        {
          "indexed": false,
          "internalType": "bytes",
          "name": "data",
          "type": "bytes"
        },
        {
          "indexed": false,
          "internalType": "uint256",
          "name": "eta",
          "type": "uint256"
        }
      ],
      "name": "CancelTransaction",
      "type": "event"
    },
    {
      "anonymous": false,
      "inputs": [
        {
          "indexed": true,
          "internalType": "bytes32",
          "name": "txHash",
          "type": "bytes32"
        },
        {
          "indexed": true,
          "internalType": "address",
          "name": "target",
          "type": "address"
        },
        {
          "indexed": false,
          "internalType": "uint256",
          "name": "value",
          "type": "uint256"
        },
        {
          "indexed": false,
          "internalType": "string",
          "name": "signature",
          "type": "string"
        },
        {
          "indexed": false,
          "internalType": "bytes",
          "name": "data",
          "type": "bytes"
        },
        {
          "indexed": false,
          "internalType": "uint256",
          "name": "eta",
          "type": "uint256"
        }
      ],
      "name": "ExecuteTransaction",
      "type": "event"
    },
    {
      "anonymous": false,
      "inputs": [
        {
          "indexed": true,
          "internalType": "address",
          "name": "newAdmin",
          "type": "address"
        }
      ],
      "name": "NewAdmin",
      "type": "event"
    },
    {
      "anonymous": false,
      "inputs": [
        {
          "indexed": true,
          "internalType": "uint256",
          "name": "newDelay",
          "type": "uint256"
        }
      ],
      "name": "NewDelay",
      "type": "event"
    },
    {
      "anonymous": false,
      "inputs": [
        {
          "indexed": true,
          "internalType": "address",
          "name": "newPendingAdmin",
          "type": "address"
        }
      ],
      "name": "NewPendingAdmin",
      "type": "event"
    },
    {
      "anonymous": false,
      "inputs": [
        {
          "indexed": true,
          "internalType": "bytes32",
          "name": "txHash",
          "type": "bytes32"
        },
        {
          "indexed": true,
          "internalType": "address",
          "name": "target",
          "type": "address"
        },
        {
          "indexed": false,
          "internalType": "uint256",
          "name": "value",
          "type": "uint256"
        },
        {
          "indexed": false,
          "internalType": "string",
          "name": "signature",
          "type": "string"
        },
        {
          "indexed": false,
          "internalType": "bytes",
          "name": "data",
          "type": "bytes"
        },
        {
          "indexed": false,
          "internalType": "uint256",
          "name": "eta",
          "type": "uint256"
        }
      ],
      "name": "QueueTransaction",
      "type": "event"
    },
    {
      "stateMutability": "payable",
      "type": "fallback"
    },
    {
      "inputs": [],
      "name": "GRACE_PERIOD",
      "outputs": [
        {
          "internalType": "uint256",
          "name": "",
          "type": "uint256"
        }
      ],
      "stateMutability": "view",
      "type": "function"
    },
    {
      "inputs": [],
      "name": "MAXIMUM_DELAY",
      "outputs": [
        {
          "internalType": "uint256",
          "name": "",
          "type": "uint256"
        }
      ],
      "stateMutability": "view",
      "type": "function"
    },
    {
      "inputs": [],
      "name": "MINIMUM_DELAY",
      "outputs": [
        {
          "internalType": "uint256",
          "name": "",
          "type": "uint256"
        }
      ],
      "stateMutability": "view",
      "type": "function"
    },
    {
      "inputs": [
        {
          "internalType": "address",
          "name": "_address",
          "type": "address"
        }
      ],
      "name": "SetTempSender",
      "outputs": [],
      "stateMutability": "nonpayable",
      "type": "function"
    },
    {
      "inputs": [],
      "name": "acceptAdmin",
      "outputs": [],
      "stateMutability": "nonpayable",
      "type": "function"
    },
    {
      "inputs": [],
      "name": "admin",
      "outputs": [
        {
          "internalType": "address",
          "name": "",
          "type": "address"
        }
      ],
      "stateMutability": "view",
      "type": "function"
    },
    {
      "inputs": [
        {
          "internalType": "address",
          "name": "target",
          "type": "address"
        },
        {
          "internalType": "uint256",
          "name": "value",
          "type": "uint256"
        },
        {
          "internalType": "string",
          "name": "signature",
          "type": "string"
        },
        {
          "internalType": "bytes",
          "name": "data",
          "type": "bytes"
        },
        {
          "internalType": "uint256",
          "name": "eta",
          "type": "uint256"
        }
      ],
      "name": "cancelTransaction",
      "outputs": [],
      "stateMutability": "nonpayable",
      "type": "function"
    },
    {
      "inputs": [],
      "name": "delay",
      "outputs": [
        {
          "internalType": "uint256",
          "name": "",
          "type": "uint256"
        }
      ],
      "stateMutability": "view",
      "type": "function"
    },
    {
      "inputs": [
        {
          "internalType": "address",
          "name": "target",
          "type": "address"
        },
        {
          "internalType": "uint256",
          "name": "value",
          "type": "uint256"
        },
        {
          "internalType": "string",
          "name": "signature",
          "type": "string"
        },
        {
          "internalType": "bytes",
          "name": "data",
          "type": "bytes"
        },
        {
          "internalType": "uint256",
          "name": "eta",
          "type": "uint256"
        }
      ],
      "name": "executeTransaction",
      "outputs": [
        {
          "internalType": "bytes",
          "name": "",
          "type": "bytes"
        }
      ],
      "stateMutability": "payable",
      "type": "function"
    },
    {
      "inputs": [],
      "name": "getBlockTimestamp",
      "outputs": [
        {
          "internalType": "uint256",
          "name": "",
          "type": "uint256"
        }
      ],
      "stateMutability": "view",
      "type": "function"
    },
    {
      "inputs": [],
      "name": "langDAOAddress",
      "outputs": [
        {
          "internalType": "address",
          "name": "",
          "type": "address"
        }
      ],
      "stateMutability": "view",
      "type": "function"
    },
    {
      "inputs": [],
      "name": "pendingAdmin",
      "outputs": [
        {
          "internalType": "address",
          "name": "",
          "type": "address"
        }
      ],
      "stateMutability": "view",
      "type": "function"
    },
    {
      "inputs": [
        {
          "internalType": "address",
          "name": "target",
          "type": "address"
        },
        {
          "internalType": "uint256",
          "name": "value",
          "type": "uint256"
        },
        {
          "internalType": "string",
          "name": "signature",
          "type": "string"
        },
        {
          "internalType": "bytes",
          "name": "data",
          "type": "bytes"
        },
        {
          "internalType": "uint256",
          "name": "eta",
          "type": "uint256"
        }
      ],
      "name": "queueTransaction",
      "outputs": [
        {
          "internalType": "bytes32",
          "name": "",
          "type": "bytes32"
        }
      ],
      "stateMutability": "nonpayable",
      "type": "function"
    },
    {
      "inputs": [
        {
          "internalType": "bytes32",
          "name": "",
          "type": "bytes32"
        }
      ],
      "name": "queuedTransactions",
      "outputs": [
        {
          "internalType": "bool",
          "name": "",
          "type": "bool"
        }
      ],
      "stateMutability": "view",
      "type": "function"
    },
    {
      "inputs": [],
      "name": "samhitaAddress",
      "outputs": [
        {
          "internalType": "address",
          "name": "",
          "type": "address"
        }
      ],
      "stateMutability": "view",
      "type": "function"
    },
    {
      "inputs": [
        {
          "internalType": "uint256",
          "name": "delay_",
          "type": "uint256"
        }
      ],
      "name": "setDelay",
      "outputs": [],
      "stateMutability": "nonpayable",
      "type": "function"
    },
    {
      "inputs": [
        {
          "internalType": "address",
          "name": "_address",
          "type": "address"
        }
      ],
      "name": "setLanguageDAOAddress",
      "outputs": [],
      "stateMutability": "nonpayable",
      "type": "function"
    },
    {
      "inputs": [
        {
          "internalType": "address",
          "name": "pendingAdmin_",
          "type": "address"
        }
      ],
      "name": "setPendingAdmin",
      "outputs": [],
      "stateMutability": "nonpayable",
      "type": "function"
    },
    {
      "inputs": [
        {
          "internalType": "address",
          "name": "_address",
          "type": "address"
        }
      ],
      "name": "setSamhitaAddress",
      "outputs": [],
      "stateMutability": "nonpayable",
      "type": "function"
    },
    {
      "inputs": [],
      "name": "temp_sender",
      "outputs": [
        {
          "internalType": "address",
          "name": "",
          "type": "address"
        }
      ],
      "stateMutability": "view",
      "type": "function"
    },
    {
      "stateMutability": "payable",
      "type": "receive"
    }
  ],
  "bytecode": "0x60806040523480156200001157600080fd5b506040516200298738038062002987833981810160405281019062000037919062000155565b6102588110156200007f576040517f08c379a000000000000000000000000000000000000000000000000000000000815260040162000076906200020e565b60405180910390fd5b610384811115620000c7576040517f08c379a0000000000000000000000000000000000000000000000000000000008152600401620000be90620002a6565b60405180910390fd5b336000806101000a81548173ffffffffffffffffffffffffffffffffffffffff021916908373ffffffffffffffffffffffffffffffffffffffff1602179055508060028190555050620002c8565b600080fd5b6000819050919050565b6200012f816200011a565b81146200013b57600080fd5b50565b6000815190506200014f8162000124565b92915050565b6000602082840312156200016e576200016d62000115565b5b60006200017e848285016200013e565b91505092915050565b600082825260208201905092915050565b7f2044656c6179206d75737420657863656564206d696e696d756d2064656c617960008201527f2e00000000000000000000000000000000000000000000000000000000000000602082015250565b6000620001f660218362000187565b9150620002038262000198565b604082019050919050565b600060208201905081810360008301526200022981620001e7565b9050919050565b7f2044656c6179206d757374206e6f7420657863656564206d6178696d756d206460008201527f656c61792e000000000000000000000000000000000000000000000000000000602082015250565b60006200028e60258362000187565b91506200029b8262000230565b604082019050919050565b60006020820190508181036000830152620002c1816200027f565b9050919050565b6126af80620002d86000396000f3fe6080604052600436106101235760003560e01c8063796b89b9116100a0578063e177246e11610064578063e177246e146103ac578063e3de0264146103d5578063f2b06537146103fe578063f2e477ad1461043b578063f851a440146104665761012a565b8063796b89b9146102d75780637d645fab14610302578063abc203bd1461032d578063b1b43ae514610356578063c1a287e2146103815761012a565b80634dd18bf5116100e75780634dd18bf51461020657806350f38bbf1461022f578063591fcdfe1461025a5780636a42b8f8146102835780636ae0c710146102ae5761012a565b80630825f38f1461012c5780630e18b6811461015c578063262fa95e14610173578063267822471461019e5780633a66f901146101c95761012a565b3661012a57005b005b61014660048036038101906101419190611bf3565b610491565b6040516101539190611d25565b60405180910390f35b34801561016857600080fd5b50610171610a3e565b005b34801561017f57600080fd5b50610188610bf9565b6040516101959190611d56565b60405180910390f35b3480156101aa57600080fd5b506101b3610c1f565b6040516101c09190611d56565b60405180910390f35b3480156101d557600080fd5b506101f060048036038101906101eb9190611bf3565b610c45565b6040516101fd9190611d8a565b60405180910390f35b34801561021257600080fd5b5061022d60048036038101906102289190611da5565b610ea5565b005b34801561023b57600080fd5b50610244610fbc565b6040516102519190611d56565b60405180910390f35b34801561026657600080fd5b50610281600480360381019061027c9190611bf3565b610fe2565b005b34801561028f57600080fd5b506102986111dc565b6040516102a59190611de1565b60405180910390f35b3480156102ba57600080fd5b506102d560048036038101906102d09190611da5565b6111e2565b005b3480156102e357600080fd5b506102ec611364565b6040516102f99190611de1565b60405180910390f35b34801561030e57600080fd5b5061031761136c565b6040516103249190611de1565b60405180910390f35b34801561033957600080fd5b50610354600480360381019061034f9190611da5565b611372565b005b34801561036257600080fd5b5061036b6114f4565b6040516103789190611de1565b60405180910390f35b34801561038d57600080fd5b506103966114fa565b6040516103a39190611de1565b60405180910390f35b3480156103b857600080fd5b506103d360048036038101906103ce9190611dfc565b611500565b005b3480156103e157600080fd5b506103fc60048036038101906103f79190611da5565b611631565b005b34801561040a57600080fd5b5061042560048036038101906104209190611e55565b6117b3565b6040516104329190611e9d565b60405180910390f35b34801561044757600080fd5b506104506117d3565b60405161045d9190611d56565b60405180910390f35b34801561047257600080fd5b5061047b6117f9565b6040516104889190611d56565b60405180910390f35b60606104d16040518060400160405280600c81526020017f696e6e2074696d656c6f636b000000000000000000000000000000000000000081525061181d565b60008054906101000a900473ffffffffffffffffffffffffffffffffffffffff1673ffffffffffffffffffffffffffffffffffffffff163373ffffffffffffffffffffffffffffffffffffffff1614806105785750600460009054906101000a900473ffffffffffffffffffffffffffffffffffffffff1673ffffffffffffffffffffffffffffffffffffffff163373ffffffffffffffffffffffffffffffffffffffff16145b806105d05750600560009054906101000a900473ffffffffffffffffffffffffffffffffffffffff1673ffffffffffffffffffffffffffffffffffffffff163373ffffffffffffffffffffffffffffffffffffffff16145b61060f576040517f08c379a000000000000000000000000000000000000000000000000000000000815260040161060690611f15565b60405180910390fd5b6000868686868660405160200161062a959493929190611f79565b6040516020818303038152906040528051906020012090506106806040518060400160405280600281526020017f543100000000000000000000000000000000000000000000000000000000000081525061181d565b6006600082815260200190815260200160002060009054906101000a900460ff166106e0576040517f08c379a00000000000000000000000000000000000000000000000000000000081526004016106d790612026565b60405180910390fd5b61071e6040518060400160405280600281526020017f543200000000000000000000000000000000000000000000000000000000000081525061181d565b82610727611364565b1015610768576040517f08c379a000000000000000000000000000000000000000000000000000000000815260040161075f906120b8565b60405180910390fd5b6107a66040518060400160405280600281526020017f543300000000000000000000000000000000000000000000000000000000000081525061181d565b6107bb61012c846118b690919063ffffffff16565b6107c3611364565b1115610804576040517f08c379a00000000000000000000000000000000000000000000000000000000081526004016107fb90612124565b60405180910390fd5b6108426040518060400160405280600281526020017f543400000000000000000000000000000000000000000000000000000000000081525061181d565b60006006600083815260200190815260200160002060006101000a81548160ff02191690831515021790555060606108ae6040518060400160405280600b81526020017f696e2074696d656c6f636b00000000000000000000000000000000000000000081525061181d565b60008651036108bf578490506108eb565b8580519060200120856040516020016108d99291906121cd565b60405160208183030381529060405290505b6000808973ffffffffffffffffffffffffffffffffffffffff16898460405161091491906121f5565b60006040518083038185875af1925050503d8060008114610951576040519150601f19603f3d011682016040523d82523d6000602084013e610956565b606091505b50915091506109996040518060400160405280601281526020017f617420656e64206f662074696d656c6f636b000000000000000000000000000081525061181d565b816109d9576040517f08c379a00000000000000000000000000000000000000000000000000000000081526004016109d090612258565b60405180910390fd5b8973ffffffffffffffffffffffffffffffffffffffff16847fa560e3198060a2f10670c1ec5b403077ea6ae93ca8de1c32b451dc1a943cd6e78b8b8b8b604051610a269493929190612278565b60405180910390a38094505050505095945050505050565b600160009054906101000a900473ffffffffffffffffffffffffffffffffffffffff1673ffffffffffffffffffffffffffffffffffffffff16600360009054906101000a900473ffffffffffffffffffffffffffffffffffffffff1673ffffffffffffffffffffffffffffffffffffffff1614610af0576040517f08c379a0000000000000000000000000000000000000000000000000000000008152600401610ae79061233d565b60405180910390fd5b600360009054906101000a900473ffffffffffffffffffffffffffffffffffffffff166000806101000a81548173ffffffffffffffffffffffffffffffffffffffff021916908373ffffffffffffffffffffffffffffffffffffffff1602179055506000600160006101000a81548173ffffffffffffffffffffffffffffffffffffffff021916908373ffffffffffffffffffffffffffffffffffffffff16021790555060008054906101000a900473ffffffffffffffffffffffffffffffffffffffff1673ffffffffffffffffffffffffffffffffffffffff167f71614071b88dee5e0b2ae578a9dd7b2ebbe9ae832ba419dc0242cd065a290b6c60405160405180910390a2565b600560009054906101000a900473ffffffffffffffffffffffffffffffffffffffff1681565b600160009054906101000a900473ffffffffffffffffffffffffffffffffffffffff1681565b60008060009054906101000a900473ffffffffffffffffffffffffffffffffffffffff1673ffffffffffffffffffffffffffffffffffffffff163373ffffffffffffffffffffffffffffffffffffffff161480610cef5750600460009054906101000a900473ffffffffffffffffffffffffffffffffffffffff1673ffffffffffffffffffffffffffffffffffffffff163373ffffffffffffffffffffffffffffffffffffffff16145b80610d475750600560009054906101000a900473ffffffffffffffffffffffffffffffffffffffff1673ffffffffffffffffffffffffffffffffffffffff163373ffffffffffffffffffffffffffffffffffffffff16145b610d86576040517f08c379a0000000000000000000000000000000000000000000000000000000008152600401610d7d90611f15565b60405180910390fd5b610da2600254610d94611364565b6118b690919063ffffffff16565b821015610de4576040517f08c379a0000000000000000000000000000000000000000000000000000000008152600401610ddb906123cf565b60405180910390fd5b60008686868686604051602001610dff959493929190611f79565b60405160208183030381529060405280519060200120905060016006600083815260200190815260200160002060006101000a81548160ff0219169083151502179055508673ffffffffffffffffffffffffffffffffffffffff16817f76e2796dc3a81d57b0e8504b647febcbeeb5f4af818e164f11eef8131a6a763f88888888604051610e909493929190612278565b60405180910390a38091505095945050505050565b3073ffffffffffffffffffffffffffffffffffffffff163373ffffffffffffffffffffffffffffffffffffffff1614610f13576040517f08c379a0000000000000000000000000000000000000000000000000000000008152600401610f0a9061243b565b60405180910390fd5b80600160006101000a81548173ffffffffffffffffffffffffffffffffffffffff021916908373ffffffffffffffffffffffffffffffffffffffff160217905550600160009054906101000a900473ffffffffffffffffffffffffffffffffffffffff1673ffffffffffffffffffffffffffffffffffffffff167f69d78e38a01985fbb1462961809b4b2d65531bc93b2b94037f3334b82ca4a75660405160405180910390a250565b600460009054906101000a900473ffffffffffffffffffffffffffffffffffffffff1681565b60008054906101000a900473ffffffffffffffffffffffffffffffffffffffff1673ffffffffffffffffffffffffffffffffffffffff163373ffffffffffffffffffffffffffffffffffffffff1614806110895750600460009054906101000a900473ffffffffffffffffffffffffffffffffffffffff1673ffffffffffffffffffffffffffffffffffffffff163373ffffffffffffffffffffffffffffffffffffffff16145b806110e15750600560009054906101000a900473ffffffffffffffffffffffffffffffffffffffff1673ffffffffffffffffffffffffffffffffffffffff163373ffffffffffffffffffffffffffffffffffffffff16145b611120576040517f08c379a000000000000000000000000000000000000000000000000000000000815260040161111790611f15565b60405180910390fd5b6000858585858560405160200161113b959493929190611f79565b60405160208183030381529060405280519060200120905060006006600083815260200190815260200160002060006101000a81548160ff0219169083151502179055508573ffffffffffffffffffffffffffffffffffffffff16817f2fffc091a501fd91bfbff27141450d3acb40fb8e6d8382b243ec7a812a3aaf87878787876040516111cc9493929190612278565b60405180910390a3505050505050565b60025481565b60008054906101000a900473ffffffffffffffffffffffffffffffffffffffff1673ffffffffffffffffffffffffffffffffffffffff163373ffffffffffffffffffffffffffffffffffffffff161461123a57600080fd5b60008054906101000a900473ffffffffffffffffffffffffffffffffffffffff1673ffffffffffffffffffffffffffffffffffffffff163373ffffffffffffffffffffffffffffffffffffffff1614806112e15750600560009054906101000a900473ffffffffffffffffffffffffffffffffffffffff1673ffffffffffffffffffffffffffffffffffffffff163373ffffffffffffffffffffffffffffffffffffffff16145b611320576040517f08c379a000000000000000000000000000000000000000000000000000000000815260040161131790611f15565b60405180910390fd5b80600460006101000a81548173ffffffffffffffffffffffffffffffffffffffff021916908373ffffffffffffffffffffffffffffffffffffffff16021790555050565b600042905090565b61038481565b60008054906101000a900473ffffffffffffffffffffffffffffffffffffffff1673ffffffffffffffffffffffffffffffffffffffff163373ffffffffffffffffffffffffffffffffffffffff1614806114195750600460009054906101000a900473ffffffffffffffffffffffffffffffffffffffff1673ffffffffffffffffffffffffffffffffffffffff163373ffffffffffffffffffffffffffffffffffffffff16145b806114715750600560009054906101000a900473ffffffffffffffffffffffffffffffffffffffff1673ffffffffffffffffffffffffffffffffffffffff163373ffffffffffffffffffffffffffffffffffffffff16145b6114b0576040517f08c379a00000000000000000000000000000000000000000000000000000000081526004016114a790611f15565b60405180910390fd5b80600360006101000a81548173ffffffffffffffffffffffffffffffffffffffff021916908373ffffffffffffffffffffffffffffffffffffffff16021790555050565b61025881565b61012c81565b3073ffffffffffffffffffffffffffffffffffffffff163373ffffffffffffffffffffffffffffffffffffffff161461156e576040517f08c379a00000000000000000000000000000000000000000000000000000000081526004016115659061243b565b60405180910390fd5b6102588110156115b3576040517f08c379a00000000000000000000000000000000000000000000000000000000081526004016115aa906124a7565b60405180910390fd5b6103848111156115f8576040517f08c379a00000000000000000000000000000000000000000000000000000000081526004016115ef90612539565b60405180910390fd5b806002819055506002547f948b1f6a42ee138b7e34058ba85a37f716d55ff25ff05a763f15bed6a04c8d2c60405160405180910390a250565b60008054906101000a900473ffffffffffffffffffffffffffffffffffffffff1673ffffffffffffffffffffffffffffffffffffffff163373ffffffffffffffffffffffffffffffffffffffff161461168957600080fd5b60008054906101000a900473ffffffffffffffffffffffffffffffffffffffff1673ffffffffffffffffffffffffffffffffffffffff163373ffffffffffffffffffffffffffffffffffffffff1614806117305750600460009054906101000a900473ffffffffffffffffffffffffffffffffffffffff1673ffffffffffffffffffffffffffffffffffffffff163373ffffffffffffffffffffffffffffffffffffffff16145b61176f576040517f08c379a000000000000000000000000000000000000000000000000000000000815260040161176690611f15565b60405180910390fd5b80600460006101000a81548173ffffffffffffffffffffffffffffffffffffffff021916908373ffffffffffffffffffffffffffffffffffffffff16021790555050565b60066020528060005260406000206000915054906101000a900460ff1681565b600360009054906101000a900473ffffffffffffffffffffffffffffffffffffffff1681565b60008054906101000a900473ffffffffffffffffffffffffffffffffffffffff1681565b6118b3816040516024016118319190612559565b6040516020818303038152906040527f41304fac000000000000000000000000000000000000000000000000000000007bffffffffffffffffffffffffffffffffffffffffffffffffffffffff19166020820180517bffffffffffffffffffffffffffffffffffffffffffffffffffffffff8381831617835250505050611914565b50565b60008082846118c591906125aa565b90508381101561190a576040517f08c379a00000000000000000000000000000000000000000000000000000000081526004016119019061262a565b60405180910390fd5b8091505092915050565b61192b8161192361192e61194f565b63ffffffff16565b50565b60006a636f6e736f6c652e6c6f679050600080835160208501845afa505050565b61195a819050919050565b61196261264a565b565b6000604051905090565b600080fd5b600080fd5b600073ffffffffffffffffffffffffffffffffffffffff82169050919050565b60006119a382611978565b9050919050565b6119b381611998565b81146119be57600080fd5b50565b6000813590506119d0816119aa565b92915050565b6000819050919050565b6119e9816119d6565b81146119f457600080fd5b50565b600081359050611a06816119e0565b92915050565b600080fd5b600080fd5b6000601f19601f8301169050919050565b7f4e487b7100000000000000000000000000000000000000000000000000000000600052604160045260246000fd5b611a5f82611a16565b810181811067ffffffffffffffff82111715611a7e57611a7d611a27565b5b80604052505050565b6000611a91611964565b9050611a9d8282611a56565b919050565b600067ffffffffffffffff821115611abd57611abc611a27565b5b611ac682611a16565b9050602081019050919050565b82818337600083830152505050565b6000611af5611af084611aa2565b611a87565b905082815260208101848484011115611b1157611b10611a11565b5b611b1c848285611ad3565b509392505050565b600082601f830112611b3957611b38611a0c565b5b8135611b49848260208601611ae2565b91505092915050565b600067ffffffffffffffff821115611b6d57611b6c611a27565b5b611b7682611a16565b9050602081019050919050565b6000611b96611b9184611b52565b611a87565b905082815260208101848484011115611bb257611bb1611a11565b5b611bbd848285611ad3565b509392505050565b600082601f830112611bda57611bd9611a0c565b5b8135611bea848260208601611b83565b91505092915050565b600080600080600060a08688031215611c0f57611c0e61196e565b5b6000611c1d888289016119c1565b9550506020611c2e888289016119f7565b945050604086013567ffffffffffffffff811115611c4f57611c4e611973565b5b611c5b88828901611b24565b935050606086013567ffffffffffffffff811115611c7c57611c7b611973565b5b611c8888828901611bc5565b9250506080611c99888289016119f7565b9150509295509295909350565b600081519050919050565b600082825260208201905092915050565b60005b83811015611ce0578082015181840152602081019050611cc5565b60008484015250505050565b6000611cf782611ca6565b611d018185611cb1565b9350611d11818560208601611cc2565b611d1a81611a16565b840191505092915050565b60006020820190508181036000830152611d3f8184611cec565b905092915050565b611d5081611998565b82525050565b6000602082019050611d6b6000830184611d47565b92915050565b6000819050919050565b611d8481611d71565b82525050565b6000602082019050611d9f6000830184611d7b565b92915050565b600060208284031215611dbb57611dba61196e565b5b6000611dc9848285016119c1565b91505092915050565b611ddb816119d6565b82525050565b6000602082019050611df66000830184611dd2565b92915050565b600060208284031215611e1257611e1161196e565b5b6000611e20848285016119f7565b91505092915050565b611e3281611d71565b8114611e3d57600080fd5b50565b600081359050611e4f81611e29565b92915050565b600060208284031215611e6b57611e6a61196e565b5b6000611e7984828501611e40565b91505092915050565b60008115159050919050565b611e9781611e82565b82525050565b6000602082019050611eb26000830184611e8e565b92915050565b600082825260208201905092915050565b7f43616c6c206d75737420636f6d652066726f6d2061646d696e2e000000000000600082015250565b6000611eff601a83611eb8565b9150611f0a82611ec9565b602082019050919050565b60006020820190508181036000830152611f2e81611ef2565b9050919050565b600081519050919050565b6000611f4b82611f35565b611f558185611eb8565b9350611f65818560208601611cc2565b611f6e81611a16565b840191505092915050565b600060a082019050611f8e6000830188611d47565b611f9b6020830187611dd2565b8181036040830152611fad8186611f40565b90508181036060830152611fc18185611cec565b9050611fd06080830184611dd2565b9695505050505050565b7f5472616e73616374696f6e206861736e2774206265656e207175657565642e00600082015250565b6000612010601f83611eb8565b915061201b82611fda565b602082019050919050565b6000602082019050818103600083015261203f81612003565b9050919050565b7f5472616e73616374696f6e206861736e2774207375727061737365642074696d60008201527f656c6f636b2e0000000000000000000000000000000000000000000000000000602082015250565b60006120a2602683611eb8565b91506120ad82612046565b604082019050919050565b600060208201905081810360008301526120d181612095565b9050919050565b7f5472616e73616374696f6e206973207374616c652e0000000000000000000000600082015250565b600061210e601583611eb8565b9150612119826120d8565b602082019050919050565b6000602082019050818103600083015261213d81612101565b9050919050565b60007fffffffff0000000000000000000000000000000000000000000000000000000082169050919050565b6000819050919050565b61218b61218682612144565b612170565b82525050565b600081905092915050565b60006121a782611ca6565b6121b18185612191565b93506121c1818560208601611cc2565b80840191505092915050565b60006121d9828561217a565b6004820191506121e9828461219c565b91508190509392505050565b6000612201828461219c565b915081905092915050565b7f7472616e73616374696f6e20657865637574696f6e2072657665727465642e00600082015250565b6000612242601f83611eb8565b915061224d8261220c565b602082019050919050565b6000602082019050818103600083015261227181612235565b9050919050565b600060808201905061228d6000830187611dd2565b818103602083015261229f8186611f40565b905081810360408301526122b38185611cec565b90506122c26060830184611dd2565b95945050505050565b7f43616c6c206d75737420636f6d652066726f6d2070656e64696e6741646d696e60008201527f2e00000000000000000000000000000000000000000000000000000000000000602082015250565b6000612327602183611eb8565b9150612332826122cb565b604082019050919050565b600060208201905081810360008301526123568161231a565b9050919050565b7f457374696d6174656420657865637574696f6e20626c6f636b206d757374207360008201527f6174697366792064656c61792e00000000000000000000000000000000000000602082015250565b60006123b9602d83611eb8565b91506123c48261235d565b604082019050919050565b600060208201905081810360008301526123e8816123ac565b9050919050565b7f43616c6c206d75737420636f6d652066726f6d2054696d656c6f636b2e000000600082015250565b6000612425601d83611eb8565b9150612430826123ef565b602082019050919050565b6000602082019050818103600083015261245481612418565b9050919050565b7f44656c6179206d75737420657863656564206d696e696d756d2064656c61792e600082015250565b6000612491602083611eb8565b915061249c8261245b565b602082019050919050565b600060208201905081810360008301526124c081612484565b9050919050565b7f44656c6179206d757374206e6f7420657863656564206d6178696d756d20646560008201527f6c61792e00000000000000000000000000000000000000000000000000000000602082015250565b6000612523602483611eb8565b915061252e826124c7565b604082019050919050565b6000602082019050818103600083015261255281612516565b9050919050565b600060208201905081810360008301526125738184611f40565b905092915050565b7f4e487b7100000000000000000000000000000000000000000000000000000000600052601160045260246000fd5b60006125b5826119d6565b91506125c0836119d6565b92508282019050808211156125d8576125d761257b565b5b92915050565b7f6164646974696f6e206f766572666c6f77000000000000000000000000000000600082015250565b6000612614601183611eb8565b915061261f826125de565b602082019050919050565b6000602082019050818103600083015261264381612607565b9050919050565b7f4e487b7100000000000000000000000000000000000000000000000000000000600052605160045260246000fdfea26469706673582212207ce65606664dd10537e3ed816d4c4c8731b373c0f86807231aed9f4e670ffd2064736f6c63430008130033",
  "linkReferences": {},
  "deployedLinkReferences": {}
}