{
  "_format": "hh-sol-artifact-1",
  "contractName": "LanguageDAO",
  "sourceName": "contracts/LanguageDAO.sol",
  "abi": [
    {
      "inputs": [
        {
          "internalType": "address",
          "name": "timelock_",
          "type": "address"
        },
        {
          "internalType": "address",
          "name": "token_",
          "type": "address"
        },
        {
          "internalType": "address",
          "name": "template_",
          "type": "address"
        },
        {
          "internalType": "string",
          "name": "_nftUri",
          "type": "string"
        }
      ],
      "stateMutability": "nonpayable",
      "type": "constructor"
    },
    {
      "anonymous": false,
      "inputs": [
        {
          "indexed": false,
          "internalType": "uint256",
          "name": "id",
          "type": "uint256"
        }
      ],
      "name": "ProposalCanceled",
      "type": "event"
    },
    {
      "anonymous": false,
      "inputs": [
        {
          "indexed": false,
          "internalType": "uint256",
          "name": "id",
          "type": "uint256"
        },
        {
          "indexed": false,
          "internalType": "address",
          "name": "proposer",
          "type": "address"
        },
        {
          "indexed": false,
          "internalType": "address[]",
          "name": "targets",
          "type": "address[]"
        },
        {
          "indexed": false,
          "internalType": "uint256[]",
          "name": "values",
          "type": "uint256[]"
        },
        {
          "indexed": false,
          "internalType": "string[]",
          "name": "signatures",
          "type": "string[]"
        },
        {
          "indexed": false,
          "internalType": "bytes[]",
          "name": "calldatas",
          "type": "bytes[]"
        },
        {
          "indexed": false,
          "internalType": "uint256",
          "name": "startBlock",
          "type": "uint256"
        },
        {
          "indexed": false,
          "internalType": "uint256",
          "name": "endBlock",
          "type": "uint256"
        }
      ],
      "name": "ProposalCreated",
      "type": "event"
    },
    {
      "anonymous": false,
      "inputs": [
        {
          "indexed": false,
          "internalType": "uint256",
          "name": "id",
          "type": "uint256"
        }
      ],
      "name": "ProposalExecuted",
      "type": "event"
    },
    {
      "anonymous": false,
      "inputs": [
        {
          "indexed": false,
          "internalType": "uint256",
          "name": "id",
          "type": "uint256"
        },
        {
          "indexed": false,
          "internalType": "uint256",
          "name": "eta",
          "type": "uint256"
        }
      ],
      "name": "ProposalQueued",
      "type": "event"
    },
    {
      "anonymous": false,
      "inputs": [
        {
          "indexed": false,
          "internalType": "address",
          "name": "voter",
          "type": "address"
        },
        {
          "indexed": false,
          "internalType": "uint256",
          "name": "proposalId",
          "type": "uint256"
        },
        {
          "indexed": false,
          "internalType": "bool",
          "name": "support",
          "type": "bool"
        },
        {
          "indexed": false,
          "internalType": "uint256",
          "name": "votes",
          "type": "uint256"
        }
      ],
      "name": "VoteCast",
      "type": "event"
    },
    {
      "inputs": [],
      "name": "__abdicate",
      "outputs": [],
      "stateMutability": "nonpayable",
      "type": "function"
    },
    {
      "inputs": [],
      "name": "__acceptAdmin",
      "outputs": [],
      "stateMutability": "nonpayable",
      "type": "function"
    },
    {
      "inputs": [
        {
          "internalType": "uint96",
          "name": "_tokens",
          "type": "uint96"
        }
      ],
      "name": "addMember",
      "outputs": [],
      "stateMutability": "payable",
      "type": "function"
    },
    {
      "inputs": [
        {
          "internalType": "uint256",
          "name": "proposalId",
          "type": "uint256"
        }
      ],
      "name": "cancel",
      "outputs": [],
      "stateMutability": "nonpayable",
      "type": "function"
    },
    {
      "inputs": [
        {
          "internalType": "uint256",
          "name": "proposalId",
          "type": "uint256"
        },
        {
          "internalType": "bool",
          "name": "support",
          "type": "bool"
        }
      ],
      "name": "castVote",
      "outputs": [],
      "stateMutability": "nonpayable",
      "type": "function"
    },
    {
      "inputs": [
        {
          "internalType": "string",
          "name": "_nftUri",
          "type": "string"
        }
      ],
      "name": "claimMemberNft",
      "outputs": [],
      "stateMutability": "nonpayable",
      "type": "function"
    },
    {
      "inputs": [
        {
          "internalType": "uint256",
          "name": "proposalId",
          "type": "uint256"
        }
      ],
      "name": "execute",
      "outputs": [],
      "stateMutability": "payable",
      "type": "function"
    },
    {
      "inputs": [
        {
          "internalType": "uint256",
          "name": "proposalId",
          "type": "uint256"
        }
      ],
      "name": "getTemplateId",
      "outputs": [
        {
          "internalType": "uint256",
          "name": "",
          "type": "uint256"
        }
      ],
      "stateMutability": "view",
      "type": "function"
    },
    {
      "inputs": [],
      "name": "guardian",
      "outputs": [
        {
          "internalType": "address",
          "name": "",
          "type": "address"
        }
      ],
      "stateMutability": "view",
      "type": "function"
    },
    {
      "inputs": [
        {
          "internalType": "address",
          "name": "",
          "type": "address"
        }
      ],
      "name": "isMemberAdded",
      "outputs": [
        {
          "internalType": "bool",
          "name": "",
          "type": "bool"
        }
      ],
      "stateMutability": "view",
      "type": "function"
    },
    {
      "inputs": [],
      "name": "langtoken",
      "outputs": [
        {
          "internalType": "contract ILanguageToken",
          "name": "",
          "type": "address"
        }
      ],
      "stateMutability": "view",
      "type": "function"
    },
    {
      "inputs": [
        {
          "internalType": "address",
          "name": "",
          "type": "address"
        }
      ],
      "name": "latestProposalIds",
      "outputs": [
        {
          "internalType": "uint256",
          "name": "",
          "type": "uint256"
        }
      ],
      "stateMutability": "view",
      "type": "function"
    },
    {
      "inputs": [
        {
          "internalType": "address",
          "name": "",
          "type": "address"
        }
      ],
      "name": "memberProposals",
      "outputs": [
        {
          "internalType": "uint256",
          "name": "",
          "type": "uint256"
        }
      ],
      "stateMutability": "view",
      "type": "function"
    },
    {
      "inputs": [
        {
          "internalType": "address",
          "name": "",
          "type": "address"
        }
      ],
      "name": "memberVotes",
      "outputs": [
        {
          "internalType": "uint256",
          "name": "",
          "type": "uint256"
        }
      ],
      "stateMutability": "view",
      "type": "function"
    },
    {
      "inputs": [
        {
          "internalType": "address",
          "name": "",
          "type": "address"
        }
      ],
      "name": "memberWithdrawAmount",
      "outputs": [
        {
          "internalType": "uint256",
          "name": "",
          "type": "uint256"
        }
      ],
      "stateMutability": "view",
      "type": "function"
    },
    {
      "inputs": [],
      "name": "name",
      "outputs": [
        {
          "internalType": "string",
          "name": "",
          "type": "string"
        }
      ],
      "stateMutability": "view",
      "type": "function"
    },
    {
      "inputs": [],
      "name": "proposalCount",
      "outputs": [
        {
          "internalType": "uint256",
          "name": "",
          "type": "uint256"
        }
      ],
      "stateMutability": "view",
      "type": "function"
    },
    {
      "inputs": [],
      "name": "proposalMaxOperations",
      "outputs": [
        {
          "internalType": "uint256",
          "name": "",
          "type": "uint256"
        }
      ],
      "stateMutability": "pure",
      "type": "function"
    },
    {
      "inputs": [
        {
          "internalType": "uint256",
          "name": "",
          "type": "uint256"
        },
        {
          "internalType": "address",
          "name": "",
          "type": "address"
        }
      ],
      "name": "proposalReceipts",
      "outputs": [
        {
          "internalType": "bool",
          "name": "hasVoted",
          "type": "bool"
        },
        {
          "internalType": "bool",
          "name": "support",
          "type": "bool"
        },
        {
          "internalType": "uint96",
          "name": "votes",
          "type": "uint96"
        }
      ],
      "stateMutability": "view",
      "type": "function"
    },
    {
      "inputs": [],
      "name": "proposalStake",
      "outputs": [
        {
          "internalType": "uint256",
          "name": "",
          "type": "uint256"
        }
      ],
      "stateMutability": "view",
      "type": "function"
    },
    {
      "inputs": [],
      "name": "proposalThreshold",
      "outputs": [
        {
          "internalType": "uint256",
          "name": "",
          "type": "uint256"
        }
      ],
      "stateMutability": "pure",
      "type": "function"
    },
    {
      "inputs": [
        {
          "internalType": "uint256",
          "name": "",
          "type": "uint256"
        }
      ],
      "name": "proposalToTemplateId",
      "outputs": [
        {
          "internalType": "uint256",
          "name": "",
          "type": "uint256"
        }
      ],
      "stateMutability": "view",
      "type": "function"
    },
    {
      "inputs": [
        {
          "internalType": "uint256",
          "name": "",
          "type": "uint256"
        }
      ],
      "name": "proposals",
      "outputs": [
        {
          "internalType": "uint256",
          "name": "id",
          "type": "uint256"
        },
        {
          "internalType": "address",
          "name": "creator",
          "type": "address"
        },
        {
          "internalType": "uint256",
          "name": "eta",
          "type": "uint256"
        },
        {
          "internalType": "uint256",
          "name": "startBlock",
          "type": "uint256"
        },
        {
          "internalType": "uint256",
          "name": "endBlock",
          "type": "uint256"
        },
        {
          "internalType": "bool",
          "name": "cancel",
          "type": "bool"
        },
        {
          "internalType": "bool",
          "name": "executed",
          "type": "bool"
        }
      ],
      "stateMutability": "view",
      "type": "function"
    },
    {
      "inputs": [
        {
          "internalType": "uint256",
          "name": "",
          "type": "uint256"
        }
      ],
      "name": "proposalsBasicData",
      "outputs": [
        {
          "internalType": "uint256",
          "name": "id",
          "type": "uint256"
        },
        {
          "internalType": "address",
          "name": "creator",
          "type": "address"
        },
        {
          "internalType": "string",
          "name": "title",
          "type": "string"
        },
        {
          "internalType": "string",
          "name": "description",
          "type": "string"
        },
        {
          "internalType": "string",
          "name": "proposalFile",
          "type": "string"
        },
        {
          "internalType": "uint256",
          "name": "templateId",
          "type": "uint256"
        },
        {
          "internalType": "uint256",
          "name": "forVotes",
          "type": "uint256"
        },
        {
          "internalType": "uint256",
          "name": "againstVotes",
          "type": "uint256"
        }
      ],
      "stateMutability": "view",
      "type": "function"
    },
    {
      "inputs": [
        {
          "internalType": "address[]",
          "name": "targets",
          "type": "address[]"
        },
        {
          "internalType": "uint256[]",
          "name": "values",
          "type": "uint256[]"
        },
        {
          "internalType": "string[]",
          "name": "signatures",
          "type": "string[]"
        },
        {
          "internalType": "bytes[]",
          "name": "calldatas",
          "type": "bytes[]"
        },
        {
          "internalType": "string",
          "name": "title",
          "type": "string"
        },
        {
          "internalType": "string",
          "name": "description",
          "type": "string"
        },
        {
          "internalType": "string",
          "name": "proposalFile",
          "type": "string"
        },
        {
          "internalType": "uint256",
          "name": "_templateId",
          "type": "uint256"
        }
      ],
      "name": "propose",
      "outputs": [
        {
          "internalType": "uint256",
          "name": "",
          "type": "uint256"
        }
      ],
      "stateMutability": "payable",
      "type": "function"
    },
    {
      "inputs": [
        {
          "internalType": "uint256",
          "name": "proposalId",
          "type": "uint256"
        },
        {
          "internalType": "uint256",
          "name": "templateId",
          "type": "uint256"
        }
      ],
      "name": "queue",
      "outputs": [],
      "stateMutability": "nonpayable",
      "type": "function"
    },
    {
      "inputs": [],
      "name": "quorumVotes",
      "outputs": [
        {
          "internalType": "uint256",
          "name": "",
          "type": "uint256"
        }
      ],
      "stateMutability": "pure",
      "type": "function"
    },
    {
      "inputs": [
        {
          "internalType": "address",
          "name": "",
          "type": "address"
        }
      ],
      "name": "receivedMemberNFT",
      "outputs": [
        {
          "internalType": "bool",
          "name": "",
          "type": "bool"
        }
      ],
      "stateMutability": "view",
      "type": "function"
    },
    {
      "inputs": [],
      "name": "royaltyFee",
      "outputs": [
        {
          "internalType": "uint96",
          "name": "",
          "type": "uint96"
        }
      ],
      "stateMutability": "view",
      "type": "function"
    },
    {
      "inputs": [
        {
          "internalType": "uint96",
          "name": "_price",
          "type": "uint96"
        }
      ],
      "name": "setRoyalty",
      "outputs": [],
      "stateMutability": "nonpayable",
      "type": "function"
    },
    {
      "inputs": [
        {
          "internalType": "uint256",
          "name": "proposalId",
          "type": "uint256"
        }
      ],
      "name": "state",
      "outputs": [
        {
          "internalType": "enum LanguageDAO.ProposalState",
          "name": "",
          "type": "uint8"
        }
      ],
      "stateMutability": "view",
      "type": "function"
    },
    {
      "inputs": [],
      "name": "templateNFT",
      "outputs": [
        {
          "internalType": "contract ITemplateNFT",
          "name": "",
          "type": "address"
        }
      ],
      "stateMutability": "view",
      "type": "function"
    },
    {
      "inputs": [],
      "name": "timelock",
      "outputs": [
        {
          "internalType": "contract ITimelock",
          "name": "",
          "type": "address"
        }
      ],
      "stateMutability": "view",
      "type": "function"
    },
    {
      "inputs": [],
      "name": "votingDelay",
      "outputs": [
        {
          "internalType": "uint256",
          "name": "",
          "type": "uint256"
        }
      ],
      "stateMutability": "pure",
      "type": "function"
    },
    {
      "inputs": [],
      "name": "votingPeriod",
      "outputs": [
        {
          "internalType": "uint256",
          "name": "",
          "type": "uint256"
        }
      ],
      "stateMutability": "pure",
      "type": "function"
    }
  ],
  "bytecode": "0x6080604052678ac7230489e80000601060006101000a8154816bffffffffffffffffffffffff02191690836bffffffffffffffffffffffff160217905550674563918244f400006011553480156200005657600080fd5b5060405162005ff138038062005ff183398181016040528101906200007c919062000414565b836000806101000a81548173ffffffffffffffffffffffffffffffffffffffff021916908373ffffffffffffffffffffffffffffffffffffffff16021790555082600160006101000a81548173ffffffffffffffffffffffffffffffffffffffff021916908373ffffffffffffffffffffffffffffffffffffffff16021790555081600260006101000a81548173ffffffffffffffffffffffffffffffffffffffff021916908373ffffffffffffffffffffffffffffffffffffffff16021790555033600460006101000a81548173ffffffffffffffffffffffffffffffffffffffff021916908373ffffffffffffffffffffffffffffffffffffffff160217905550600260009054906101000a900473ffffffffffffffffffffffffffffffffffffffff1673ffffffffffffffffffffffffffffffffffffffff16638c85826633836040518363ffffffff1660e01b8152600401620001de92919062000513565b600060405180830381600087803b158015620001f957600080fd5b505af11580156200020e573d6000803e3d6000fd5b505050505050505062000547565b6000604051905090565b600080fd5b600080fd5b600073ffffffffffffffffffffffffffffffffffffffff82169050919050565b60006200025d8262000230565b9050919050565b6200026f8162000250565b81146200027b57600080fd5b50565b6000815190506200028f8162000264565b92915050565b600080fd5b600080fd5b6000601f19601f8301169050919050565b7f4e487b7100000000000000000000000000000000000000000000000000000000600052604160045260246000fd5b620002ea826200029f565b810181811067ffffffffffffffff821117156200030c576200030b620002b0565b5b80604052505050565b6000620003216200021c565b90506200032f8282620002df565b919050565b600067ffffffffffffffff821115620003525762000351620002b0565b5b6200035d826200029f565b9050602081019050919050565b60005b838110156200038a5780820151818401526020810190506200036d565b60008484015250505050565b6000620003ad620003a78462000334565b62000315565b905082815260208101848484011115620003cc57620003cb6200029a565b5b620003d98482856200036a565b509392505050565b600082601f830112620003f957620003f862000295565b5b81516200040b84826020860162000396565b91505092915050565b6000806000806080858703121562000431576200043062000226565b5b600062000441878288016200027e565b945050602062000454878288016200027e565b935050604062000467878288016200027e565b925050606085015167ffffffffffffffff8111156200048b576200048a6200022b565b5b6200049987828801620003e1565b91505092959194509250565b620004b08162000250565b82525050565b600081519050919050565b600082825260208201905092915050565b6000620004df82620004b6565b620004eb8185620004c1565b9350620004fd8185602086016200036a565b62000508816200029f565b840191505092915050565b60006040820190506200052a6000830185620004a5565b81810360208301526200053e8184620004d2565b90509392505050565b615a9a80620005576000396000f3fe6080604052600436106102045760003560e01c80636617674311610118578063c377a0c5116100a0578063da35c6641161006f578063da35c66414610793578063de0b27e5146107be578063f4c847f9146107fb578063f646a92c14610826578063fe0d94c11461086a57610204565b8063c377a0c5146106e6578063c3c79d8514610723578063cac926691461073f578063d33219b41461076857610204565b806388fde90a116100e757806388fde90a1461061e578063ab0dce3214610649578063b58131b014610679578063b8997a97146106a4578063b9a61961146106cf57610204565b806366176743146105725780636ef6c66d146105b1578063760fbc13146105dc5780637bdbe4d0146105f357610204565b8063374a42311161019b5780633e4f49e61161016a5780633e4f49e61461047b57806340e58ee5146104b8578063452a9320146104e15780634a7fdf2d1461050c5780634a9f914e1461053557610204565b8063374a4231146103ad578063382fcf1c146103ea578063392317cd146104135780633932abb11461045057610204565b806315373e3d116101d757806315373e3d146102df57806317977c611461030857806319fc88d11461034557806324bc1a641461038257610204565b8063013cf08b1461020957806302a251a31461024c57806306fdde031461027757806308006a15146102a2575b600080fd5b34801561021557600080fd5b50610230600480360381019061022b919061346a565b610886565b6040516102439796959493929190613502565b60405180910390f35b34801561025857600080fd5b50610261610902565b60405161026e9190613571565b60405180910390f35b34801561028357600080fd5b5061028c61090b565b604051610299919061361c565b60405180910390f35b3480156102ae57600080fd5b506102c960048036038101906102c4919061366a565b610944565b6040516102d69190613571565b60405180910390f35b3480156102eb57600080fd5b50610306600480360381019061030191906136c3565b61095c565b005b34801561031457600080fd5b5061032f600480360381019061032a919061366a565b61096b565b60405161033c9190613571565b60405180910390f35b34801561035157600080fd5b5061036c6004803603810190610367919061346a565b610983565b6040516103799190613571565b60405180910390f35b34801561038e57600080fd5b5061039761099b565b6040516103a49190613571565b60405180910390f35b3480156103b957600080fd5b506103d460048036038101906103cf919061346a565b6109a4565b6040516103e19190613571565b60405180910390f35b3480156103f657600080fd5b50610411600480360381019061040c9190613703565b6109c1565b005b34801561041f57600080fd5b5061043a6004803603810190610435919061366a565b610f37565b6040516104479190613571565b60405180910390f35b34801561045c57600080fd5b50610465610f4f565b6040516104729190613571565b60405180910390f35b34801561048757600080fd5b506104a2600480360381019061049d919061346a565b610f58565b6040516104af91906137ba565b60405180910390f35b3480156104c457600080fd5b506104df60048036038101906104da919061346a565b611161565b005b3480156104ed57600080fd5b506104f6611513565b60405161050391906137d5565b60405180910390f35b34801561051857600080fd5b50610533600480360381019061052e9190613925565b611539565b005b34801561054157600080fd5b5061055c6004803603810190610557919061366a565b611712565b6040516105699190613571565b60405180910390f35b34801561057e57600080fd5b506105996004803603810190610594919061396e565b61172a565b6040516105a8939291906139d5565b60405180910390f35b3480156105bd57600080fd5b506105c6611793565b6040516105d39190613571565b60405180910390f35b3480156105e857600080fd5b506105f1611799565b005b3480156105ff57600080fd5b5061060861186d565b6040516106159190613571565b60405180910390f35b34801561062a57600080fd5b50610633611876565b6040516106409190613a6b565b60405180910390f35b610663600480360381019061065e9190613e74565b61189c565b6040516106709190613571565b60405180910390f35b34801561068557600080fd5b5061068e612061565b60405161069b9190613571565b60405180910390f35b3480156106b057600080fd5b506106b961206a565b6040516106c69190613fee565b60405180910390f35b3480156106db57600080fd5b506106e4612088565b005b3480156106f257600080fd5b5061070d6004803603810190610708919061366a565b61219a565b60405161071a9190614009565b60405180910390f35b61073d60048036038101906107389190614050565b6121ba565b005b34801561074b57600080fd5b5061076660048036038101906107619190614050565b612542565b005b34801561077457600080fd5b5061077d612576565b60405161078a919061409e565b60405180910390f35b34801561079f57600080fd5b506107a861259a565b6040516107b59190613571565b60405180910390f35b3480156107ca57600080fd5b506107e560048036038101906107e0919061366a565b6125a0565b6040516107f29190614009565b60405180910390f35b34801561080757600080fd5b506108106125c0565b60405161081d91906140da565b60405180910390f35b34801561083257600080fd5b5061084d6004803603810190610848919061346a565b6125e6565b6040516108619897969594939291906140f5565b60405180910390f35b610884600480360381019061087f919061346a565b6127e6565b005b60066020528060005260406000206000915090508060000154908060010160009054906101000a900473ffffffffffffffffffffffffffffffffffffffff16908060020154908060030154908060040154908060090160009054906101000a900460ff16908060090160019054906101000a900460ff16905087565b60006028905090565b6040518060400160405280600781526020017f6c616e6744414f0000000000000000000000000000000000000000000000000081525081565b600c6020528060005260406000206000915090505481565b610967338383612a57565b5050565b60086020528060005260406000206000915090505481565b600d6020528060005260406000206000915090505481565b60006028905090565b6000600d6000838152602001908152602001600020549050919050565b600460078111156109d5576109d4613743565b5b6109de83610f58565b60078111156109f0576109ef613743565b5b14610a30576040517f08c379a0000000000000000000000000000000000000000000000000000000008152600401610a27906141fa565b60405180910390fd5b601154600960006006600086815260200190815260200160002060010160009054906101000a900473ffffffffffffffffffffffffffffffffffffffff1673ffffffffffffffffffffffffffffffffffffffff1673ffffffffffffffffffffffffffffffffffffffff1681526020019081526020016000206000828254610ab79190614249565b9250508190555060006006600084815260200190815260200160002090506000610b6f4260008054906101000a900473ffffffffffffffffffffffffffffffffffffffff1673ffffffffffffffffffffffffffffffffffffffff16636a42b8f86040518163ffffffff1660e01b8152600401602060405180830381865afa158015610b46573d6000803e3d6000fd5b505050506040513d601f19601f82011682018060405250810190610b6a9190614292565b612dd3565b905060005b8260050180549050811015610d5357610d40836005018281548110610b9c57610b9b6142bf565b5b9060005260206000200160009054906101000a900473ffffffffffffffffffffffffffffffffffffffff16846006018381548110610bdd57610bdc6142bf565b5b9060005260206000200154856007018481548110610bfe57610bfd6142bf565b5b906000526020600020018054610c139061431d565b80601f0160208091040260200160405190810160405280929190818152602001828054610c3f9061431d565b8015610c8c5780601f10610c6157610100808354040283529160200191610c8c565b820191906000526020600020905b815481529060010190602001808311610c6f57829003601f168201915b5050505050866008018581548110610ca757610ca66142bf565b5b906000526020600020018054610cbc9061431d565b80601f0160208091040260200160405190810160405280929190818152602001828054610ce89061431d565b8015610d355780601f10610d0a57610100808354040283529160200191610d35565b820191906000526020600020905b815481529060010190602001808311610d1857829003601f168201915b505050505086612e31565b8080610d4b9061434e565b915050610b74565b50808260020181905550600060076000868152602001908152602001600020600501541115610ef857610d9b6007600086815260200190815260200160002060050154613070565b6000600260009054906101000a900473ffffffffffffffffffffffffffffffffffffffff1673ffffffffffffffffffffffffffffffffffffffff1663cebf64f5856040518263ffffffff1660e01b8152600401610df89190613571565b602060405180830381865afa158015610e15573d6000803e3d6000fd5b505050506040513d601f19601f82011682018060405250810190610e3991906143ab565b9050600160009054906101000a900473ffffffffffffffffffffffffffffffffffffffff1673ffffffffffffffffffffffffffffffffffffffff1663a9059cbb82601060009054906101000a90046bffffffffffffffffffffffff166040518363ffffffff1660e01b8152600401610eb2929190614409565b6020604051808303816000875af1158015610ed1573d6000803e3d6000fd5b505050506040513d601f19601f82011682018060405250810190610ef59190614447565b50505b7f9a2e42fd6722813d69113e7d0079d3d940171428df7373df9c7f7617cfda28928482604051610f29929190614474565b60405180910390a150505050565b60096020528060005260406000206000915090505481565b60006001905090565b60008160035410158015610f6c5750600082115b610fab576040517f08c379a0000000000000000000000000000000000000000000000000000000008152600401610fa2906144e9565b60405180910390fd5b60006006600084815260200190815260200160002090508060090160009054906101000a900460ff1615610fe357600291505061115c565b80600301544311610ff857600091505061115c565b8060040154431161100d57600191505061115c565b60076000848152602001908152602001600020600701546007600085815260200190815260200160002060060154111580611064575061104b61099b565b6007600085815260200190815260200160002060060154105b1561107357600391505061115c565b600081600201540361108957600491505061115c565b8060090160019054906101000a900460ff16156110aa57600791505061115c565b611146816002015460008054906101000a900473ffffffffffffffffffffffffffffffffffffffff1673ffffffffffffffffffffffffffffffffffffffff1663c1a287e26040518163ffffffff1660e01b8152600401602060405180830381865afa15801561111d573d6000803e3d6000fd5b505050506040513d601f19601f820116820180604052508101906111419190614292565b612dd3565b421061115657600691505061115c565b60059150505b919050565b60078081111561117457611173613743565b5b61117d82610f58565b600781111561118f5761118e613743565b5b036111cf576040517f08c379a00000000000000000000000000000000000000000000000000000000081526004016111c690614555565b60405180910390fd5b6000600660008381526020019081526020016000209050600460009054906101000a900473ffffffffffffffffffffffffffffffffffffffff1673ffffffffffffffffffffffffffffffffffffffff163373ffffffffffffffffffffffffffffffffffffffff1614806113215750611245612061565b600160009054906101000a900473ffffffffffffffffffffffffffffffffffffffff1673ffffffffffffffffffffffffffffffffffffffff1663782d6fe18360010160009054906101000a900473ffffffffffffffffffffffffffffffffffffffff166112b3436001613109565b6040518363ffffffff1660e01b81526004016112d0929190614575565b602060405180830381865afa1580156112ed573d6000803e3d6000fd5b505050506040513d601f19601f8201168201806040525081019061131191906145b3565b6bffffffffffffffffffffffff16105b611360576040517f08c379a00000000000000000000000000000000000000000000000000000000081526004016113579061462c565b60405180910390fd5b60018160090160006101000a81548160ff02191690831515021790555060005b81600501805490508110156114d75760008054906101000a900473ffffffffffffffffffffffffffffffffffffffff1673ffffffffffffffffffffffffffffffffffffffff1663591fcdfe8360050183815481106113e1576113e06142bf565b5b9060005260206000200160009054906101000a900473ffffffffffffffffffffffffffffffffffffffff16846006018481548110611422576114216142bf565b5b9060005260206000200154856007018581548110611443576114426142bf565b5b90600052602060002001866008018681548110611463576114626142bf565b5b9060005260206000200187600201546040518663ffffffff1660e01b815260040161149295949392919061478f565b600060405180830381600087803b1580156114ac57600080fd5b505af11580156114c0573d6000803e3d6000fd5b5050505080806114cf9061434e565b915050611380565b507f789cf55be980739dad1d0699b93b58e806b51c9d96619bfa8fe0a28abaa7b30c826040516115079190613571565b60405180910390a15050565b600460009054906101000a900473ffffffffffffffffffffffffffffffffffffffff1681565b60001515600a60003373ffffffffffffffffffffffffffffffffffffffff1673ffffffffffffffffffffffffffffffffffffffff16815260200190815260200160002060009054906101000a900460ff1615150361170f576002600c60003373ffffffffffffffffffffffffffffffffffffffff1673ffffffffffffffffffffffffffffffffffffffff168152602001908152602001600020541015801561162157506005600b60003373ffffffffffffffffffffffffffffffffffffffff1673ffffffffffffffffffffffffffffffffffffffff1681526020019081526020016000205410155b1561170e57600260009054906101000a900473ffffffffffffffffffffffffffffffffffffffff1673ffffffffffffffffffffffffffffffffffffffff1663858f1e9233836040518363ffffffff1660e01b81526004016116839291906147f0565b600060405180830381600087803b15801561169d57600080fd5b505af11580156116b1573d6000803e3d6000fd5b505050506001600a60003373ffffffffffffffffffffffffffffffffffffffff1673ffffffffffffffffffffffffffffffffffffffff16815260200190815260200160002060006101000a81548160ff0219169083151502179055505b5b50565b600b6020528060005260406000206000915090505481565b6005602052816000526040600020602052806000526040600020600091509150508060000160009054906101000a900460ff16908060000160019054906101000a900460ff16908060000160029054906101000a90046bffffffffffffffffffffffff16905083565b60115481565b600460009054906101000a900473ffffffffffffffffffffffffffffffffffffffff1673ffffffffffffffffffffffffffffffffffffffff163373ffffffffffffffffffffffffffffffffffffffff1614611829576040517f08c379a00000000000000000000000000000000000000000000000000000000081526004016118209061486c565b60405180910390fd5b6000600460006101000a81548173ffffffffffffffffffffffffffffffffffffffff021916908373ffffffffffffffffffffffffffffffffffffffff160217905550565b6000600a905090565b600260009054906101000a900473ffffffffffffffffffffffffffffffffffffffff1681565b6000601060009054906101000a90046bffffffffffffffffffffffff166bffffffffffffffffffffffff166011546118d49190614249565b3414611915576040517f08c379a000000000000000000000000000000000000000000000000000000000815260040161190c906148fe565b60405180910390fd5b61191d612061565b600160009054906101000a900473ffffffffffffffffffffffffffffffffffffffff1673ffffffffffffffffffffffffffffffffffffffff1663782d6fe133611967436001613109565b6040518363ffffffff1660e01b8152600401611984929190614575565b602060405180830381865afa1580156119a1573d6000803e3d6000fd5b505050506040513d601f19601f820116820180604052508101906119c591906145b3565b6bffffffffffffffffffffffff1611611a13576040517f08c379a0000000000000000000000000000000000000000000000000000000008152600401611a0a90614990565b60405180910390fd5b87518951148015611a25575086518951145b8015611a32575085518951145b611a71576040517f08c379a0000000000000000000000000000000000000000000000000000000008152600401611a6890614a22565b60405180910390fd5b6000895103611ab5576040517f08c379a0000000000000000000000000000000000000000000000000000000008152600401611aac90614a8e565b60405180910390fd5b611abd61186d565b89511115611b00576040517f08c379a0000000000000000000000000000000000000000000000000000000008152600401611af790614afa565b60405180910390fd5b6000600860003373ffffffffffffffffffffffffffffffffffffffff1673ffffffffffffffffffffffffffffffffffffffff16815260200190815260200160002054905060008114611c29576000611b5782610f58565b905060016007811115611b6d57611b6c613743565b5b816007811115611b8057611b7f613743565b5b03611bc0576040517f08c379a0000000000000000000000000000000000000000000000000000000008152600401611bb790614b66565b60405180910390fd5b60006007811115611bd457611bd3613743565b5b816007811115611be757611be6613743565b5b03611c27576040517f08c379a0000000000000000000000000000000000000000000000000000000008152600401611c1e90614bf8565b60405180910390fd5b505b6000611c3c43611c37610f4f565b612dd3565b90506000611c5182611c4c610902565b612dd3565b905060036000815480929190611c669061434e565b919050555060405180610160016040528060035481526020013373ffffffffffffffffffffffffffffffffffffffff168152602001600081526020018381526020018281526020018d81526020018c81526020018b81526020018a8152602001600015158152602001600015158152506006600060035481526020019081526020016000206000820151816000015560208201518160010160006101000a81548173ffffffffffffffffffffffffffffffffffffffff021916908373ffffffffffffffffffffffffffffffffffffffff16021790555060408201518160020155606082015181600301556080820151816004015560a0820151816005019080519060200190611d769291906131a8565b5060c0820151816006019080519060200190611d93929190613232565b5060e0820151816007019080519060200190611db092919061327f565b50610100820151816008019080519060200190611dce9291906132d8565b506101208201518160090160006101000a81548160ff0219169083151502179055506101408201518160090160016101000a81548160ff02191690831515021790555090505060405180610100016040528060035481526020013373ffffffffffffffffffffffffffffffffffffffff1681526020018981526020018881526020018781526020018681526020016000815260200160008152506007600060035481526020019081526020016000206000820151816000015560208201518160010160006101000a81548173ffffffffffffffffffffffffffffffffffffffff021916908373ffffffffffffffffffffffffffffffffffffffff1602179055506040820151816002019081611ee39190614da5565b506060820151816003019081611ef99190614da5565b506080820151816004019081611f0f9190614da5565b5060a0820151816005015560c0820151816006015560e08201518160070155905050600354600860003373ffffffffffffffffffffffffffffffffffffffff1673ffffffffffffffffffffffffffffffffffffffff168152602001908152602001600020819055506001600c60003373ffffffffffffffffffffffffffffffffffffffff1673ffffffffffffffffffffffffffffffffffffffff1681526020019081526020016000206000828254611fc79190614249565b92505081905550600060076000600354815260200190815260200160002060050154905080600d60006003548152602001908152602001600020819055507f9479b7607c10133aa95f93ade05216edbd87f9d50043cec8bf0352cbe6c77226600354338f8f8f8f8989604051612044989796959493929190615216565b60405180910390a160035494505050505098975050505050505050565b6000600a905090565b601060009054906101000a90046bffffffffffffffffffffffff1681565b600460009054906101000a900473ffffffffffffffffffffffffffffffffffffffff1673ffffffffffffffffffffffffffffffffffffffff163373ffffffffffffffffffffffffffffffffffffffff1614612118576040517f08c379a000000000000000000000000000000000000000000000000000000000815260040161210f9061486c565b60405180910390fd5b60008054906101000a900473ffffffffffffffffffffffffffffffffffffffff1673ffffffffffffffffffffffffffffffffffffffff16630e18b6816040518163ffffffff1660e01b8152600401600060405180830381600087803b15801561218057600080fd5b505af1158015612194573d6000803e3d6000fd5b50505050565b600a6020528060005260406000206000915054906101000a900460ff1681565b600160009054906101000a900473ffffffffffffffffffffffffffffffffffffffff1673ffffffffffffffffffffffffffffffffffffffff16634b94f50e6040518163ffffffff1660e01b8152600401602060405180830381865afa158015612227573d6000803e3d6000fd5b505050506040513d601f19601f8201168201806040525081019061224b9190614292565b816bffffffffffffffffffffffff1661226491906152b0565b34146122a5576040517f08c379a000000000000000000000000000000000000000000000000000000000815260040161229c9061533e565b60405180910390fd5b806bffffffffffffffffffffffff16600160009054906101000a900473ffffffffffffffffffffffffffffffffffffffff1673ffffffffffffffffffffffffffffffffffffffff166370a08231306040518263ffffffff1660e01b815260040161230f91906137d5565b602060405180830381865afa15801561232c573d6000803e3d6000fd5b505050506040513d601f19601f820116820180604052508101906123509190614292565b1015612391576040517f08c379a0000000000000000000000000000000000000000000000000000000008152600401612388906153d0565b60405180910390fd5b600f60003373ffffffffffffffffffffffffffffffffffffffff1673ffffffffffffffffffffffffffffffffffffffff16815260200190815260200160002060009054906101000a900460ff1661249e57600e339080600181540180825580915050600190039060005260206000200160009091909190916101000a81548173ffffffffffffffffffffffffffffffffffffffff021916908373ffffffffffffffffffffffffffffffffffffffff1602179055506001600f60003373ffffffffffffffffffffffffffffffffffffffff1673ffffffffffffffffffffffffffffffffffffffff16815260200190815260200160002060006101000a81548160ff0219169083151502179055505b600160009054906101000a900473ffffffffffffffffffffffffffffffffffffffff1673ffffffffffffffffffffffffffffffffffffffff1663a9059cbb33836040518363ffffffff1660e01b81526004016124fb929190614409565b6020604051808303816000875af115801561251a573d6000803e3d6000fd5b505050506040513d601f19601f8201168201806040525081019061253e9190614447565b5050565b80601060006101000a8154816bffffffffffffffffffffffff02191690836bffffffffffffffffffffffff16021790555050565b60008054906101000a900473ffffffffffffffffffffffffffffffffffffffff1681565b60035481565b600f6020528060005260406000206000915054906101000a900460ff1681565b600160009054906101000a900473ffffffffffffffffffffffffffffffffffffffff1681565b60076020528060005260406000206000915090508060000154908060010160009054906101000a900473ffffffffffffffffffffffffffffffffffffffff16908060020180546126359061431d565b80601f01602080910402602001604051908101604052809291908181526020018280546126619061431d565b80156126ae5780601f10612683576101008083540402835291602001916126ae565b820191906000526020600020905b81548152906001019060200180831161269157829003601f168201915b5050505050908060030180546126c39061431d565b80601f01602080910402602001604051908101604052809291908181526020018280546126ef9061431d565b801561273c5780601f106127115761010080835404028352916020019161273c565b820191906000526020600020905b81548152906001019060200180831161271f57829003601f168201915b5050505050908060040180546127519061431d565b80601f016020809104026020016040519081016040528092919081815260200182805461277d9061431d565b80156127ca5780601f1061279f576101008083540402835291602001916127ca565b820191906000526020600020905b8154815290600101906020018083116127ad57829003601f168201915b5050505050908060050154908060060154908060070154905088565b600560078111156127fa576127f9613743565b5b61280382610f58565b600781111561281557612814613743565b5b14612855576040517f08c379a000000000000000000000000000000000000000000000000000000000815260040161284c90615462565b60405180910390fd5b600060066000838152602001908152602001600020905060018160090160016101000a81548160ff02191690831515021790555060005b8160050180549050811015612a1b5760008054906101000a900473ffffffffffffffffffffffffffffffffffffffff1673ffffffffffffffffffffffffffffffffffffffff16630825f38f8360060183815481106128ed576128ec6142bf565b5b906000526020600020015484600501848154811061290e5761290d6142bf565b5b9060005260206000200160009054906101000a900473ffffffffffffffffffffffffffffffffffffffff1685600601858154811061294f5761294e6142bf565b5b90600052602060002001548660070186815481106129705761296f6142bf565b5b906000526020600020018760080187815481106129905761298f6142bf565b5b9060005260206000200188600201546040518763ffffffff1660e01b81526004016129bf95949392919061478f565b60006040518083038185885af11580156129dd573d6000803e3d6000fd5b50505050506040513d6000823e3d601f19601f82011682018060405250810190612a0791906154f2565b508080612a139061434e565b91505061288c565b507f712ae1383f79ac853f8d882153778e0260ef8f03b504e2866e0593e04d2b291f82604051612a4b9190613571565b60405180910390a15050565b60016007811115612a6b57612a6a613743565b5b612a7483610f58565b6007811115612a8657612a85613743565b5b14612ac6576040517f08c379a0000000000000000000000000000000000000000000000000000000008152600401612abd90615587565b60405180910390fd5b600060066000848152602001908152602001600020905060006005600085815260200190815260200160002060008673ffffffffffffffffffffffffffffffffffffffff1673ffffffffffffffffffffffffffffffffffffffff1681526020019081526020016000209050600015158160000160009054906101000a900460ff16151514612b89576040517f08c379a0000000000000000000000000000000000000000000000000000000008152600401612b80906155f3565b60405180910390fd5b6000600160009054906101000a900473ffffffffffffffffffffffffffffffffffffffff1673ffffffffffffffffffffffffffffffffffffffff1663782d6fe18785600301546040518363ffffffff1660e01b8152600401612bec929190614575565b602060405180830381865afa158015612c09573d6000803e3d6000fd5b505050506040513d601f19601f82011682018060405250810190612c2d91906145b3565b90508315612c8257612c636007600087815260200190815260200160002060060154826bffffffffffffffffffffffff16612dd3565b6007600087815260200190815260200160002060060181905550612ccb565b612cb06007600087815260200190815260200160002060070154826bffffffffffffffffffffffff16612dd3565b60076000878152602001908152602001600020600701819055505b60018260000160006101000a81548160ff021916908315150217905550838260000160016101000a81548160ff021916908315150217905550808260000160026101000a8154816bffffffffffffffffffffffff02191690836bffffffffffffffffffffffff1602179055506001600b60003373ffffffffffffffffffffffffffffffffffffffff1673ffffffffffffffffffffffffffffffffffffffff1681526020019081526020016000206000828254612d879190614249565b925050819055507f877856338e13f63d0c36822ff0ef736b80934cd90574a3a5bc9262c39d217c4686868684604051612dc39493929190615613565b60405180910390a1505050505050565b6000808284612de29190614249565b905083811015612e27576040517f08c379a0000000000000000000000000000000000000000000000000000000008152600401612e1e906156a4565b60405180910390fd5b8091505092915050565b60008054906101000a900473ffffffffffffffffffffffffffffffffffffffff1673ffffffffffffffffffffffffffffffffffffffff1663f2b065378686868686604051602001612e869594939291906156fd565b604051602081830303815290604052805190602001206040518263ffffffff1660e01b8152600401612eb89190615777565b602060405180830381865afa158015612ed5573d6000803e3d6000fd5b505050506040513d601f19601f82011682018060405250810190612ef99190614447565b15612f39576040517f08c379a0000000000000000000000000000000000000000000000000000000008152600401612f3090615804565b60405180910390fd5b60008054906101000a900473ffffffffffffffffffffffffffffffffffffffff1673ffffffffffffffffffffffffffffffffffffffff1663abc203bd336040518263ffffffff1660e01b8152600401612f9291906137d5565b600060405180830381600087803b158015612fac57600080fd5b505af1158015612fc0573d6000803e3d6000fd5b5050505060008054906101000a900473ffffffffffffffffffffffffffffffffffffffff1673ffffffffffffffffffffffffffffffffffffffff16633a66f90186868686866040518663ffffffff1660e01b81526004016130259594939291906156fd565b6020604051808303816000875af1158015613044573d6000803e3d6000fd5b505050506040513d601f19601f820116820180604052508101906130689190615850565b505050505050565b613106816040516024016130849190613571565b6040516020818303038152906040527ff82c50f1000000000000000000000000000000000000000000000000000000007bffffffffffffffffffffffffffffffffffffffffffffffffffffffff19166020820180517bffffffffffffffffffffffffffffffffffffffffffffffffffffffff8381831617835250505050613162565b50565b60008282111561314e576040517f08c379a0000000000000000000000000000000000000000000000000000000008152600401613145906158c9565b60405180910390fd5b818361315a91906158e9565b905092915050565b6131798161317161317c61319d565b63ffffffff16565b50565b60006a636f6e736f6c652e6c6f679050600080835160208501845afa505050565b613331819050919050565b828054828255906000526020600020908101928215613221579160200282015b828111156132205782518260006101000a81548173ffffffffffffffffffffffffffffffffffffffff021916908373ffffffffffffffffffffffffffffffffffffffff160217905550916020019190600101906131c8565b5b50905061322e919061333b565b5090565b82805482825590600052602060002090810192821561326e579160200282015b8281111561326d578251825591602001919060010190613252565b5b50905061327b919061333b565b5090565b8280548282559060005260206000209081019282156132c7579160200282015b828111156132c65782518290816132b69190614da5565b509160200191906001019061329f565b5b5090506132d49190613358565b5090565b828054828255906000526020600020908101928215613320579160200282015b8281111561331f57825182908161330f9190615963565b50916020019190600101906132f8565b5b50905061332d919061337c565b5090565b613339615a35565b565b5b8082111561335457600081600090555060010161333c565b5090565b5b80821115613378576000818161336f91906133a0565b50600101613359565b5090565b5b8082111561339c576000818161339391906133e0565b5060010161337d565b5090565b5080546133ac9061431d565b6000825580601f106133be57506133dd565b601f0160209004906000526020600020908101906133dc919061333b565b5b50565b5080546133ec9061431d565b6000825580601f106133fe575061341d565b601f01602090049060005260206000209081019061341c919061333b565b5b50565b6000604051905090565b600080fd5b600080fd5b6000819050919050565b61344781613434565b811461345257600080fd5b50565b6000813590506134648161343e565b92915050565b6000602082840312156134805761347f61342a565b5b600061348e84828501613455565b91505092915050565b6134a081613434565b82525050565b600073ffffffffffffffffffffffffffffffffffffffff82169050919050565b60006134d1826134a6565b9050919050565b6134e1816134c6565b82525050565b60008115159050919050565b6134fc816134e7565b82525050565b600060e082019050613517600083018a613497565b61352460208301896134d8565b6135316040830188613497565b61353e6060830187613497565b61354b6080830186613497565b61355860a08301856134f3565b61356560c08301846134f3565b98975050505050505050565b60006020820190506135866000830184613497565b92915050565b600081519050919050565b600082825260208201905092915050565b60005b838110156135c65780820151818401526020810190506135ab565b60008484015250505050565b6000601f19601f8301169050919050565b60006135ee8261358c565b6135f88185613597565b93506136088185602086016135a8565b613611816135d2565b840191505092915050565b6000602082019050818103600083015261363681846135e3565b905092915050565b613647816134c6565b811461365257600080fd5b50565b6000813590506136648161363e565b92915050565b6000602082840312156136805761367f61342a565b5b600061368e84828501613655565b91505092915050565b6136a0816134e7565b81146136ab57600080fd5b50565b6000813590506136bd81613697565b92915050565b600080604083850312156136da576136d961342a565b5b60006136e885828601613455565b92505060206136f9858286016136ae565b9150509250929050565b6000806040838503121561371a5761371961342a565b5b600061372885828601613455565b925050602061373985828601613455565b9150509250929050565b7f4e487b7100000000000000000000000000000000000000000000000000000000600052602160045260246000fd5b6008811061378357613782613743565b5b50565b600081905061379482613772565b919050565b60006137a482613786565b9050919050565b6137b481613799565b82525050565b60006020820190506137cf60008301846137ab565b92915050565b60006020820190506137ea60008301846134d8565b92915050565b600080fd5b600080fd5b7f4e487b7100000000000000000000000000000000000000000000000000000000600052604160045260246000fd5b613832826135d2565b810181811067ffffffffffffffff82111715613851576138506137fa565b5b80604052505050565b6000613864613420565b90506138708282613829565b919050565b600067ffffffffffffffff8211156138905761388f6137fa565b5b613899826135d2565b9050602081019050919050565b82818337600083830152505050565b60006138c86138c384613875565b61385a565b9050828152602081018484840111156138e4576138e36137f5565b5b6138ef8482856138a6565b509392505050565b600082601f83011261390c5761390b6137f0565b5b813561391c8482602086016138b5565b91505092915050565b60006020828403121561393b5761393a61342a565b5b600082013567ffffffffffffffff8111156139595761395861342f565b5b613965848285016138f7565b91505092915050565b600080604083850312156139855761398461342a565b5b600061399385828601613455565b92505060206139a485828601613655565b9150509250929050565b60006bffffffffffffffffffffffff82169050919050565b6139cf816139ae565b82525050565b60006060820190506139ea60008301866134f3565b6139f760208301856134f3565b613a0460408301846139c6565b949350505050565b6000819050919050565b6000613a31613a2c613a27846134a6565b613a0c565b6134a6565b9050919050565b6000613a4382613a16565b9050919050565b6000613a5582613a38565b9050919050565b613a6581613a4a565b82525050565b6000602082019050613a806000830184613a5c565b92915050565b600067ffffffffffffffff821115613aa157613aa06137fa565b5b602082029050602081019050919050565b600080fd5b6000613aca613ac584613a86565b61385a565b90508083825260208201905060208402830185811115613aed57613aec613ab2565b5b835b81811015613b165780613b028882613655565b845260208401935050602081019050613aef565b5050509392505050565b600082601f830112613b3557613b346137f0565b5b8135613b45848260208601613ab7565b91505092915050565b600067ffffffffffffffff821115613b6957613b686137fa565b5b602082029050602081019050919050565b6000613b8d613b8884613b4e565b61385a565b90508083825260208201905060208402830185811115613bb057613baf613ab2565b5b835b81811015613bd95780613bc58882613455565b845260208401935050602081019050613bb2565b5050509392505050565b600082601f830112613bf857613bf76137f0565b5b8135613c08848260208601613b7a565b91505092915050565b600067ffffffffffffffff821115613c2c57613c2b6137fa565b5b602082029050602081019050919050565b6000613c50613c4b84613c11565b61385a565b90508083825260208201905060208402830185811115613c7357613c72613ab2565b5b835b81811015613cba57803567ffffffffffffffff811115613c9857613c976137f0565b5b808601613ca589826138f7565b85526020850194505050602081019050613c75565b5050509392505050565b600082601f830112613cd957613cd86137f0565b5b8135613ce9848260208601613c3d565b91505092915050565b600067ffffffffffffffff821115613d0d57613d0c6137fa565b5b602082029050602081019050919050565b600067ffffffffffffffff821115613d3957613d386137fa565b5b613d42826135d2565b9050602081019050919050565b6000613d62613d5d84613d1e565b61385a565b905082815260208101848484011115613d7e57613d7d6137f5565b5b613d898482856138a6565b509392505050565b600082601f830112613da657613da56137f0565b5b8135613db6848260208601613d4f565b91505092915050565b6000613dd2613dcd84613cf2565b61385a565b90508083825260208201905060208402830185811115613df557613df4613ab2565b5b835b81811015613e3c57803567ffffffffffffffff811115613e1a57613e196137f0565b5b808601613e278982613d91565b85526020850194505050602081019050613df7565b5050509392505050565b600082601f830112613e5b57613e5a6137f0565b5b8135613e6b848260208601613dbf565b91505092915050565b600080600080600080600080610100898b031215613e9557613e9461342a565b5b600089013567ffffffffffffffff811115613eb357613eb261342f565b5b613ebf8b828c01613b20565b985050602089013567ffffffffffffffff811115613ee057613edf61342f565b5b613eec8b828c01613be3565b975050604089013567ffffffffffffffff811115613f0d57613f0c61342f565b5b613f198b828c01613cc4565b965050606089013567ffffffffffffffff811115613f3a57613f3961342f565b5b613f468b828c01613e46565b955050608089013567ffffffffffffffff811115613f6757613f6661342f565b5b613f738b828c016138f7565b94505060a089013567ffffffffffffffff811115613f9457613f9361342f565b5b613fa08b828c016138f7565b93505060c089013567ffffffffffffffff811115613fc157613fc061342f565b5b613fcd8b828c016138f7565b92505060e0613fde8b828c01613455565b9150509295985092959890939650565b600060208201905061400360008301846139c6565b92915050565b600060208201905061401e60008301846134f3565b92915050565b61402d816139ae565b811461403857600080fd5b50565b60008135905061404a81614024565b92915050565b6000602082840312156140665761406561342a565b5b60006140748482850161403b565b91505092915050565b600061408882613a38565b9050919050565b6140988161407d565b82525050565b60006020820190506140b3600083018461408f565b92915050565b60006140c482613a38565b9050919050565b6140d4816140b9565b82525050565b60006020820190506140ef60008301846140cb565b92915050565b60006101008201905061410b600083018b613497565b614118602083018a6134d8565b818103604083015261412a81896135e3565b9050818103606083015261413e81886135e3565b9050818103608083015261415281876135e3565b905061416160a0830186613497565b61416e60c0830185613497565b61417b60e0830184613497565b9998505050505050505050565b7f70726f706f73616c2063616e206f6e6c7920626520717565756564206966206960008201527f7420697320737563636565646564000000000000000000000000000000000000602082015250565b60006141e4602e83613597565b91506141ef82614188565b604082019050919050565b60006020820190508181036000830152614213816141d7565b9050919050565b7f4e487b7100000000000000000000000000000000000000000000000000000000600052601160045260246000fd5b600061425482613434565b915061425f83613434565b92508282019050808211156142775761427661421a565b5b92915050565b60008151905061428c8161343e565b92915050565b6000602082840312156142a8576142a761342a565b5b60006142b68482850161427d565b91505092915050565b7f4e487b7100000000000000000000000000000000000000000000000000000000600052603260045260246000fd5b7f4e487b7100000000000000000000000000000000000000000000000000000000600052602260045260246000fd5b6000600282049050600182168061433557607f821691505b602082108103614348576143476142ee565b5b50919050565b600061435982613434565b91507fffffffffffffffffffffffffffffffffffffffffffffffffffffffffffffffff820361438b5761438a61421a565b5b600182019050919050565b6000815190506143a58161363e565b92915050565b6000602082840312156143c1576143c061342a565b5b60006143cf84828501614396565b91505092915050565b60006143f36143ee6143e9846139ae565b613a0c565b613434565b9050919050565b614403816143d8565b82525050565b600060408201905061441e60008301856134d8565b61442b60208301846143fa565b9392505050565b60008151905061444181613697565b92915050565b60006020828403121561445d5761445c61342a565b5b600061446b84828501614432565b91505092915050565b60006040820190506144896000830185613497565b6144966020830184613497565b9392505050565b7f20696e76616c69642070726f706f73616c206964000000000000000000000000600082015250565b60006144d3601483613597565b91506144de8261449d565b602082019050919050565b60006020820190508181036000830152614502816144c6565b9050919050565b7f63616e6e6f742063616e63656c2065786563757465642070726f706f73616c00600082015250565b600061453f601f83613597565b915061454a82614509565b602082019050919050565b6000602082019050818103600083015261456e81614532565b9050919050565b600060408201905061458a60008301856134d8565b6145976020830184613497565b9392505050565b6000815190506145ad81614024565b92915050565b6000602082840312156145c9576145c861342a565b5b60006145d78482850161459e565b91505092915050565b7f70726f706f7365722061626f7665207468726573686f6c640000000000000000600082015250565b6000614616601883613597565b9150614621826145e0565b602082019050919050565b6000602082019050818103600083015261464581614609565b9050919050565b60008190508160005260206000209050919050565b6000815461466e8161431d565b6146788186613597565b9450600182166000811461469357600181146146a9576146dc565b60ff1983168652811515602002860193506146dc565b6146b28561464c565b60005b838110156146d4578154818901526001820191506020810190506146b5565b808801955050505b50505092915050565b600082825260208201905092915050565b60008190508160005260206000209050919050565b600081546147188161431d565b61472281866146e5565b9450600182166000811461473d576001811461475357614786565b60ff198316865281151560200286019350614786565b61475c856146f6565b60005b8381101561477e5781548189015260018201915060208101905061475f565b808801955050505b50505092915050565b600060a0820190506147a460008301886134d8565b6147b16020830187613497565b81810360408301526147c38186614661565b905081810360608301526147d7818561470b565b90506147e66080830184613497565b9695505050505050565b600060408201905061480560008301856134d8565b818103602083015261481781846135e3565b90509392505050565b7f73656e646572206d75737420626520676f7620677561726469616e0000000000600082015250565b6000614856601b83613597565b915061486182614820565b602082019050919050565b6000602082019050818103600083015261488581614849565b9050919050565b7f596f75206d75737420686176652076616c6964207374616b6520616d6f756e7460008201527f20746f2063726561746520612070726f706f73616c0000000000000000000000602082015250565b60006148e8603583613597565b91506148f38261488c565b604082019050919050565b60006020820190508181036000830152614917816148db565b9050919050565b7f70726f706f73657220766f7465732062656c6f772070726f706f73616c20746860008201527f726573686f6c6400000000000000000000000000000000000000000000000000602082015250565b600061497a602783613597565b91506149858261491e565b604082019050919050565b600060208201905081810360008301526149a98161496d565b9050919050565b7f70726f706f73616c2066756e6374696f6e20696e666f726d6174696f6e20617260008201527f697479206d69736d617463680000000000000000000000000000000000000000602082015250565b6000614a0c602c83613597565b9150614a17826149b0565b604082019050919050565b60006020820190508181036000830152614a3b816149ff565b9050919050565b7f736f6d6520616374696f6e206d75737420626520746865726500000000000000600082015250565b6000614a78601983613597565b9150614a8382614a42565b602082019050919050565b60006020820190508181036000830152614aa781614a6b565b9050919050565b7f746f6f206d616e7920616374696f6e7300000000000000000000000000000000600082015250565b6000614ae4601083613597565b9150614aef82614aae565b602082019050919050565b60006020820190508181036000830152614b1381614ad7565b9050919050565b7f466f756e6420616e20616c7265616479206163746976652070726f706f73616c600082015250565b6000614b50602083613597565b9150614b5b82614b1a565b602082019050919050565b60006020820190508181036000830152614b7f81614b43565b9050919050565b7f466f756e6420616e20616c72656164792070656e64696e672070726f706f736160008201527f6c00000000000000000000000000000000000000000000000000000000000000602082015250565b6000614be2602183613597565b9150614bed82614b86565b604082019050919050565b60006020820190508181036000830152614c1181614bd5565b9050919050565b60006020601f8301049050919050565b600082821b905092915050565b600060088302614c657fffffffffffffffffffffffffffffffffffffffffffffffffffffffffffffffff82614c28565b614c6f8683614c28565b95508019841693508086168417925050509392505050565b6000614ca2614c9d614c9884613434565b613a0c565b613434565b9050919050565b6000819050919050565b614cbc83614c87565b614cd0614cc882614ca9565b848454614c35565b825550505050565b600090565b614ce5614cd8565b614cf0818484614cb3565b505050565b5b81811015614d1457614d09600082614cdd565b600181019050614cf6565b5050565b601f821115614d5957614d2a8161464c565b614d3384614c18565b81016020851015614d42578190505b614d56614d4e85614c18565b830182614cf5565b50505b505050565b600082821c905092915050565b6000614d7c60001984600802614d5e565b1980831691505092915050565b6000614d958383614d6b565b9150826002028217905092915050565b614dae8261358c565b67ffffffffffffffff811115614dc757614dc66137fa565b5b614dd1825461431d565b614ddc828285614d18565b600060209050601f831160018114614e0f5760008415614dfd578287015190505b614e078582614d89565b865550614e6f565b601f198416614e1d8661464c565b60005b82811015614e4557848901518255600182019150602085019450602081019050614e20565b86831015614e625784890151614e5e601f891682614d6b565b8355505b6001600288020188555050505b505050505050565b600081519050919050565b600082825260208201905092915050565b6000819050602082019050919050565b614eac816134c6565b82525050565b6000614ebe8383614ea3565b60208301905092915050565b6000602082019050919050565b6000614ee282614e77565b614eec8185614e82565b9350614ef783614e93565b8060005b83811015614f28578151614f0f8882614eb2565b9750614f1a83614eca565b925050600181019050614efb565b5085935050505092915050565b600081519050919050565b600082825260208201905092915050565b6000819050602082019050919050565b614f6a81613434565b82525050565b6000614f7c8383614f61565b60208301905092915050565b6000602082019050919050565b6000614fa082614f35565b614faa8185614f40565b9350614fb583614f51565b8060005b83811015614fe6578151614fcd8882614f70565b9750614fd883614f88565b925050600181019050614fb9565b5085935050505092915050565b600081519050919050565b600082825260208201905092915050565b6000819050602082019050919050565b600082825260208201905092915050565b600061503b8261358c565b615045818561501f565b93506150558185602086016135a8565b61505e816135d2565b840191505092915050565b60006150758383615030565b905092915050565b6000602082019050919050565b600061509582614ff3565b61509f8185614ffe565b9350836020820285016150b18561500f565b8060005b858110156150ed57848403895281516150ce8582615069565b94506150d98361507d565b925060208a019950506001810190506150b5565b50829750879550505050505092915050565b600081519050919050565b600082825260208201905092915050565b6000819050602082019050919050565b600081519050919050565b600082825260208201905092915050565b60006151528261512b565b61515c8185615136565b935061516c8185602086016135a8565b615175816135d2565b840191505092915050565b600061518c8383615147565b905092915050565b6000602082019050919050565b60006151ac826150ff565b6151b6818561510a565b9350836020820285016151c88561511b565b8060005b8581101561520457848403895281516151e58582615180565b94506151f083615194565b925060208a019950506001810190506151cc565b50829750879550505050505092915050565b60006101008201905061522c600083018b613497565b615239602083018a6134d8565b818103604083015261524b8189614ed7565b9050818103606083015261525f8188614f95565b90508181036080830152615273818761508a565b905081810360a083015261528781866151a1565b905061529660c0830185613497565b6152a360e0830184613497565b9998505050505050505050565b60006152bb82613434565b91506152c683613434565b92508282026152d481613434565b915082820484148315176152eb576152ea61421a565b5b5092915050565b7f4e6f7420656e6f7567682076616c756500000000000000000000000000000000600082015250565b6000615328601083613597565b9150615333826152f2565b602082019050919050565b600060208201905081810360008301526153578161531b565b9050919050565b7f436f6e747261637420646f6573206e6f74206861766520656e6f75676820746f60008201527f6b656e7300000000000000000000000000000000000000000000000000000000602082015250565b60006153ba602483613597565b91506153c58261535e565b604082019050919050565b600060208201905081810360008301526153e9816153ad565b9050919050565b7f70726f706f73616c2063616e206f6e6c7920626520657865637574656420696660008201527f2069742069732071756575656400000000000000000000000000000000000000602082015250565b600061544c602d83613597565b9150615457826153f0565b604082019050919050565b6000602082019050818103600083015261547b8161543f565b9050919050565b600061549561549084613d1e565b61385a565b9050828152602081018484840111156154b1576154b06137f5565b5b6154bc8482856135a8565b509392505050565b600082601f8301126154d9576154d86137f0565b5b81516154e9848260208601615482565b91505092915050565b6000602082840312156155085761550761342a565b5b600082015167ffffffffffffffff8111156155265761552561342f565b5b615532848285016154c4565b91505092915050565b7f766f74696e6720697320636c6f73656400000000000000000000000000000000600082015250565b6000615571601083613597565b915061557c8261553b565b602082019050919050565b600060208201905081810360008301526155a081615564565b9050919050565b7f766f7465722068617320616c726561647920766f746564000000000000000000600082015250565b60006155dd601783613597565b91506155e8826155a7565b602082019050919050565b6000602082019050818103600083015261560c816155d0565b9050919050565b600060808201905061562860008301876134d8565b6156356020830186613497565b61564260408301856134f3565b61564f60608301846143fa565b95945050505050565b7f6164646974696f6e206f766572666c6f77000000000000000000000000000000600082015250565b600061568e601183613597565b915061569982615658565b602082019050919050565b600060208201905081810360008301526156bd81615681565b9050919050565b60006156cf8261512b565b6156d981856146e5565b93506156e98185602086016135a8565b6156f2816135d2565b840191505092915050565b600060a08201905061571260008301886134d8565b61571f6020830187613497565b818103604083015261573181866135e3565b9050818103606083015261574581856156c4565b90506157546080830184613497565b9695505050505050565b6000819050919050565b6157718161575e565b82525050565b600060208201905061578c6000830184615768565b92915050565b7f2070726f706f73616c20616374696f6e20616c7265616479207175657565642060008201527f6174206574610000000000000000000000000000000000000000000000000000602082015250565b60006157ee602683613597565b91506157f982615792565b604082019050919050565b6000602082019050818103600083015261581d816157e1565b9050919050565b61582d8161575e565b811461583857600080fd5b50565b60008151905061584a81615824565b92915050565b6000602082840312156158665761586561342a565b5b60006158748482850161583b565b91505092915050565b7f7375627472616374696f6e20756e646572666c6f770000000000000000000000600082015250565b60006158b3601583613597565b91506158be8261587d565b602082019050919050565b600060208201905081810360008301526158e2816158a6565b9050919050565b60006158f482613434565b91506158ff83613434565b92508282039050818111156159175761591661421a565b5b92915050565b601f82111561595e5761592f816146f6565b61593884614c18565b81016020851015615947578190505b61595b61595385614c18565b830182614cf5565b50505b505050565b61596c8261512b565b67ffffffffffffffff811115615985576159846137fa565b5b61598f825461431d565b61599a82828561591d565b600060209050601f8311600181146159cd57600084156159bb578287015190505b6159c58582614d89565b865550615a2d565b601f1984166159db866146f6565b60005b82811015615a03578489015182556001820191506020850194506020810190506159de565b86831015615a205784890151615a1c601f891682614d6b565b8355505b6001600288020188555050505b505050505050565b7f4e487b7100000000000000000000000000000000000000000000000000000000600052605160045260246000fdfea2646970667358221220be71d64bf2718060b6a58fcd0cac894a822efc9672cff9a3baff1531aa336de964736f6c63430008130033",
  "linkReferences": {},
  "deployedLinkReferences": {}
}