{
  "_format": "hh-sol-artifact-1",
  "contractName": "LanguageDAO",
  "sourceName": "contracts/LanguageDAO.sol",
  "abi": [
    {
      "inputs": [
        {
          "internalType": "address",
          "name": "timelock_",
          "type": "address"
        },
        {
          "internalType": "address",
          "name": "token_",
          "type": "address"
        },
        {
          "internalType": "address",
          "name": "template_",
          "type": "address"
        },
        {
          "internalType": "string",
          "name": "_nftUri",
          "type": "string"
        }
      ],
      "stateMutability": "nonpayable",
      "type": "constructor"
    },
    {
      "anonymous": false,
      "inputs": [
        {
          "indexed": false,
          "internalType": "uint256",
          "name": "id",
          "type": "uint256"
        }
      ],
      "name": "ProposalCanceled",
      "type": "event"
    },
    {
      "anonymous": false,
      "inputs": [
        {
          "indexed": false,
          "internalType": "uint256",
          "name": "id",
          "type": "uint256"
        },
        {
          "indexed": false,
          "internalType": "address",
          "name": "proposer",
          "type": "address"
        },
        {
          "indexed": false,
          "internalType": "address[]",
          "name": "targets",
          "type": "address[]"
        },
        {
          "indexed": false,
          "internalType": "uint256[]",
          "name": "values",
          "type": "uint256[]"
        },
        {
          "indexed": false,
          "internalType": "string[]",
          "name": "signatures",
          "type": "string[]"
        },
        {
          "indexed": false,
          "internalType": "bytes[]",
          "name": "calldatas",
          "type": "bytes[]"
        },
        {
          "indexed": false,
          "internalType": "uint256",
          "name": "startBlock",
          "type": "uint256"
        },
        {
          "indexed": false,
          "internalType": "uint256",
          "name": "endBlock",
          "type": "uint256"
        }
      ],
      "name": "ProposalCreated",
      "type": "event"
    },
    {
      "anonymous": false,
      "inputs": [
        {
          "indexed": false,
          "internalType": "uint256",
          "name": "id",
          "type": "uint256"
        }
      ],
      "name": "ProposalExecuted",
      "type": "event"
    },
    {
      "anonymous": false,
      "inputs": [
        {
          "indexed": false,
          "internalType": "uint256",
          "name": "id",
          "type": "uint256"
        },
        {
          "indexed": false,
          "internalType": "uint256",
          "name": "eta",
          "type": "uint256"
        }
      ],
      "name": "ProposalQueued",
      "type": "event"
    },
    {
      "anonymous": false,
      "inputs": [
        {
          "indexed": false,
          "internalType": "address",
          "name": "voter",
          "type": "address"
        },
        {
          "indexed": false,
          "internalType": "uint256",
          "name": "proposalId",
          "type": "uint256"
        },
        {
          "indexed": false,
          "internalType": "bool",
          "name": "support",
          "type": "bool"
        },
        {
          "indexed": false,
          "internalType": "uint256",
          "name": "votes",
          "type": "uint256"
        }
      ],
      "name": "VoteCast",
      "type": "event"
    },
    {
      "inputs": [],
      "name": "__abdicate",
      "outputs": [],
      "stateMutability": "nonpayable",
      "type": "function"
    },
    {
      "inputs": [],
      "name": "__acceptAdmin",
      "outputs": [],
      "stateMutability": "nonpayable",
      "type": "function"
    },
    {
      "inputs": [
        {
          "internalType": "uint96",
          "name": "_tokens",
          "type": "uint96"
        }
      ],
      "name": "addMember",
      "outputs": [],
      "stateMutability": "payable",
      "type": "function"
    },
    {
      "inputs": [
        {
          "internalType": "uint256",
          "name": "proposalId",
          "type": "uint256"
        }
      ],
      "name": "cancel",
      "outputs": [],
      "stateMutability": "nonpayable",
      "type": "function"
    },
    {
      "inputs": [
        {
          "internalType": "uint256",
          "name": "proposalId",
          "type": "uint256"
        },
        {
          "internalType": "bool",
          "name": "support",
          "type": "bool"
        }
      ],
      "name": "castVote",
      "outputs": [],
      "stateMutability": "nonpayable",
      "type": "function"
    },
    {
      "inputs": [
        {
          "internalType": "string",
          "name": "_nftUri",
          "type": "string"
        }
      ],
      "name": "claimMemberNft",
      "outputs": [],
      "stateMutability": "nonpayable",
      "type": "function"
    },
    {
      "inputs": [
        {
          "internalType": "uint256",
          "name": "proposalId",
          "type": "uint256"
        }
      ],
      "name": "execute",
      "outputs": [],
      "stateMutability": "payable",
      "type": "function"
    },
    {
      "inputs": [
        {
          "internalType": "uint256",
          "name": "proposalId",
          "type": "uint256"
        }
      ],
      "name": "getTemplateId",
      "outputs": [
        {
          "internalType": "uint256",
          "name": "",
          "type": "uint256"
        }
      ],
      "stateMutability": "view",
      "type": "function"
    },
    {
      "inputs": [],
      "name": "guardian",
      "outputs": [
        {
          "internalType": "address",
          "name": "",
          "type": "address"
        }
      ],
      "stateMutability": "view",
      "type": "function"
    },
    {
      "inputs": [
        {
          "internalType": "address",
          "name": "",
          "type": "address"
        }
      ],
      "name": "isMemberAdded",
      "outputs": [
        {
          "internalType": "bool",
          "name": "",
          "type": "bool"
        }
      ],
      "stateMutability": "view",
      "type": "function"
    },
    {
      "inputs": [],
      "name": "langtoken",
      "outputs": [
        {
          "internalType": "contract ILanguageToken",
          "name": "",
          "type": "address"
        }
      ],
      "stateMutability": "view",
      "type": "function"
    },
    {
      "inputs": [
        {
          "internalType": "address",
          "name": "",
          "type": "address"
        }
      ],
      "name": "latestProposalIds",
      "outputs": [
        {
          "internalType": "uint256",
          "name": "",
          "type": "uint256"
        }
      ],
      "stateMutability": "view",
      "type": "function"
    },
    {
      "inputs": [
        {
          "internalType": "address",
          "name": "",
          "type": "address"
        }
      ],
      "name": "memberProposals",
      "outputs": [
        {
          "internalType": "uint256",
          "name": "",
          "type": "uint256"
        }
      ],
      "stateMutability": "view",
      "type": "function"
    },
    {
      "inputs": [
        {
          "internalType": "address",
          "name": "",
          "type": "address"
        }
      ],
      "name": "memberVotes",
      "outputs": [
        {
          "internalType": "uint256",
          "name": "",
          "type": "uint256"
        }
      ],
      "stateMutability": "view",
      "type": "function"
    },
    {
      "inputs": [
        {
          "internalType": "address",
          "name": "",
          "type": "address"
        }
      ],
      "name": "memberWithdrawAmount",
      "outputs": [
        {
          "internalType": "uint256",
          "name": "",
          "type": "uint256"
        }
      ],
      "stateMutability": "view",
      "type": "function"
    },
    {
      "inputs": [],
      "name": "name",
      "outputs": [
        {
          "internalType": "string",
          "name": "",
          "type": "string"
        }
      ],
      "stateMutability": "view",
      "type": "function"
    },
    {
      "inputs": [],
      "name": "proposalCount",
      "outputs": [
        {
          "internalType": "uint256",
          "name": "",
          "type": "uint256"
        }
      ],
      "stateMutability": "view",
      "type": "function"
    },
    {
      "inputs": [],
      "name": "proposalMaxOperations",
      "outputs": [
        {
          "internalType": "uint256",
          "name": "",
          "type": "uint256"
        }
      ],
      "stateMutability": "pure",
      "type": "function"
    },
    {
      "inputs": [
        {
          "internalType": "uint256",
          "name": "",
          "type": "uint256"
        },
        {
          "internalType": "address",
          "name": "",
          "type": "address"
        }
      ],
      "name": "proposalReceipts",
      "outputs": [
        {
          "internalType": "bool",
          "name": "hasVoted",
          "type": "bool"
        },
        {
          "internalType": "bool",
          "name": "support",
          "type": "bool"
        },
        {
          "internalType": "uint96",
          "name": "votes",
          "type": "uint96"
        }
      ],
      "stateMutability": "view",
      "type": "function"
    },
    {
      "inputs": [],
      "name": "proposalStake",
      "outputs": [
        {
          "internalType": "uint256",
          "name": "",
          "type": "uint256"
        }
      ],
      "stateMutability": "view",
      "type": "function"
    },
    {
      "inputs": [],
      "name": "proposalThreshold",
      "outputs": [
        {
          "internalType": "uint256",
          "name": "",
          "type": "uint256"
        }
      ],
      "stateMutability": "pure",
      "type": "function"
    },
    {
      "inputs": [
        {
          "internalType": "uint256",
          "name": "",
          "type": "uint256"
        }
      ],
      "name": "proposalToTemplateId",
      "outputs": [
        {
          "internalType": "uint256",
          "name": "",
          "type": "uint256"
        }
      ],
      "stateMutability": "view",
      "type": "function"
    },
    {
      "inputs": [
        {
          "internalType": "uint256",
          "name": "",
          "type": "uint256"
        }
      ],
      "name": "proposals",
      "outputs": [
        {
          "internalType": "uint256",
          "name": "id",
          "type": "uint256"
        },
        {
          "internalType": "address",
          "name": "creator",
          "type": "address"
        },
        {
          "internalType": "uint256",
          "name": "eta",
          "type": "uint256"
        },
        {
          "internalType": "uint256",
          "name": "startBlock",
          "type": "uint256"
        },
        {
          "internalType": "uint256",
          "name": "endBlock",
          "type": "uint256"
        },
        {
          "internalType": "bool",
          "name": "cancel",
          "type": "bool"
        },
        {
          "internalType": "bool",
          "name": "executed",
          "type": "bool"
        }
      ],
      "stateMutability": "view",
      "type": "function"
    },
    {
      "inputs": [
        {
          "internalType": "uint256",
          "name": "",
          "type": "uint256"
        }
      ],
      "name": "proposalsBasicData",
      "outputs": [
        {
          "internalType": "uint256",
          "name": "id",
          "type": "uint256"
        },
        {
          "internalType": "address",
          "name": "creator",
          "type": "address"
        },
        {
          "internalType": "string",
          "name": "title",
          "type": "string"
        },
        {
          "internalType": "string",
          "name": "description",
          "type": "string"
        },
        {
          "internalType": "string",
          "name": "proposalFile",
          "type": "string"
        },
        {
          "internalType": "uint256",
          "name": "templateId",
          "type": "uint256"
        },
        {
          "internalType": "uint256",
          "name": "forVotes",
          "type": "uint256"
        },
        {
          "internalType": "uint256",
          "name": "againstVotes",
          "type": "uint256"
        }
      ],
      "stateMutability": "view",
      "type": "function"
    },
    {
      "inputs": [
        {
          "internalType": "address[]",
          "name": "targets",
          "type": "address[]"
        },
        {
          "internalType": "uint256[]",
          "name": "values",
          "type": "uint256[]"
        },
        {
          "internalType": "string[]",
          "name": "signatures",
          "type": "string[]"
        },
        {
          "internalType": "bytes[]",
          "name": "calldatas",
          "type": "bytes[]"
        },
        {
          "internalType": "string",
          "name": "title",
          "type": "string"
        },
        {
          "internalType": "string",
          "name": "description",
          "type": "string"
        },
        {
          "internalType": "string",
          "name": "proposalFile",
          "type": "string"
        },
        {
          "internalType": "uint256",
          "name": "_templateId",
          "type": "uint256"
        }
      ],
      "name": "propose",
      "outputs": [
        {
          "internalType": "uint256",
          "name": "",
          "type": "uint256"
        }
      ],
      "stateMutability": "payable",
      "type": "function"
    },
    {
      "inputs": [
        {
          "internalType": "uint256",
          "name": "proposalId",
          "type": "uint256"
        },
        {
          "internalType": "uint256",
          "name": "templateId",
          "type": "uint256"
        }
      ],
      "name": "queue",
      "outputs": [],
      "stateMutability": "nonpayable",
      "type": "function"
    },
    {
      "inputs": [],
      "name": "quorumVotes",
      "outputs": [
        {
          "internalType": "uint256",
          "name": "",
          "type": "uint256"
        }
      ],
      "stateMutability": "pure",
      "type": "function"
    },
    {
      "inputs": [
        {
          "internalType": "address",
          "name": "",
          "type": "address"
        }
      ],
      "name": "receivedMemberNFT",
      "outputs": [
        {
          "internalType": "bool",
          "name": "",
          "type": "bool"
        }
      ],
      "stateMutability": "view",
      "type": "function"
    },
    {
      "inputs": [],
      "name": "royaltyFee",
      "outputs": [
        {
          "internalType": "uint96",
          "name": "",
          "type": "uint96"
        }
      ],
      "stateMutability": "view",
      "type": "function"
    },
    {
      "inputs": [
        {
          "internalType": "uint96",
          "name": "_price",
          "type": "uint96"
        }
      ],
      "name": "setRoyalty",
      "outputs": [],
      "stateMutability": "nonpayable",
      "type": "function"
    },
    {
      "inputs": [
        {
          "internalType": "uint256",
          "name": "proposalId",
          "type": "uint256"
        }
      ],
      "name": "state",
      "outputs": [
        {
          "internalType": "enum LanguageDAO.ProposalState",
          "name": "",
          "type": "uint8"
        }
      ],
      "stateMutability": "view",
      "type": "function"
    },
    {
      "inputs": [],
      "name": "templateNFT",
      "outputs": [
        {
          "internalType": "contract ITemplateNFT",
          "name": "",
          "type": "address"
        }
      ],
      "stateMutability": "view",
      "type": "function"
    },
    {
      "inputs": [],
      "name": "timelock",
      "outputs": [
        {
          "internalType": "contract ITimelock",
          "name": "",
          "type": "address"
        }
      ],
      "stateMutability": "view",
      "type": "function"
    },
    {
      "inputs": [],
      "name": "votingDelay",
      "outputs": [
        {
          "internalType": "uint256",
          "name": "",
          "type": "uint256"
        }
      ],
      "stateMutability": "pure",
      "type": "function"
    },
    {
      "inputs": [],
      "name": "votingPeriod",
      "outputs": [
        {
          "internalType": "uint256",
          "name": "",
          "type": "uint256"
        }
      ],
      "stateMutability": "pure",
      "type": "function"
    }
  ],
  "bytecode": "0x6080604052678ac7230489e80000601060006101000a8154816bffffffffffffffffffffffff02191690836bffffffffffffffffffffffff160217905550674563918244f400006011553480156200005657600080fd5b506040516200603e3803806200603e83398181016040528101906200007c919062000414565b836000806101000a81548173ffffffffffffffffffffffffffffffffffffffff021916908373ffffffffffffffffffffffffffffffffffffffff16021790555082600160006101000a81548173ffffffffffffffffffffffffffffffffffffffff021916908373ffffffffffffffffffffffffffffffffffffffff16021790555081600260006101000a81548173ffffffffffffffffffffffffffffffffffffffff021916908373ffffffffffffffffffffffffffffffffffffffff16021790555033600460006101000a81548173ffffffffffffffffffffffffffffffffffffffff021916908373ffffffffffffffffffffffffffffffffffffffff160217905550600260009054906101000a900473ffffffffffffffffffffffffffffffffffffffff1673ffffffffffffffffffffffffffffffffffffffff16638c85826633836040518363ffffffff1660e01b8152600401620001de92919062000513565b600060405180830381600087803b158015620001f957600080fd5b505af11580156200020e573d6000803e3d6000fd5b505050505050505062000547565b6000604051905090565b600080fd5b600080fd5b600073ffffffffffffffffffffffffffffffffffffffff82169050919050565b60006200025d8262000230565b9050919050565b6200026f8162000250565b81146200027b57600080fd5b50565b6000815190506200028f8162000264565b92915050565b600080fd5b600080fd5b6000601f19601f8301169050919050565b7f4e487b7100000000000000000000000000000000000000000000000000000000600052604160045260246000fd5b620002ea826200029f565b810181811067ffffffffffffffff821117156200030c576200030b620002b0565b5b80604052505050565b6000620003216200021c565b90506200032f8282620002df565b919050565b600067ffffffffffffffff821115620003525762000351620002b0565b5b6200035d826200029f565b9050602081019050919050565b60005b838110156200038a5780820151818401526020810190506200036d565b60008484015250505050565b6000620003ad620003a78462000334565b62000315565b905082815260208101848484011115620003cc57620003cb6200029a565b5b620003d98482856200036a565b509392505050565b600082601f830112620003f957620003f862000295565b5b81516200040b84826020860162000396565b91505092915050565b6000806000806080858703121562000431576200043062000226565b5b600062000441878288016200027e565b945050602062000454878288016200027e565b935050604062000467878288016200027e565b925050606085015167ffffffffffffffff8111156200048b576200048a6200022b565b5b6200049987828801620003e1565b91505092959194509250565b620004b08162000250565b82525050565b600081519050919050565b600082825260208201905092915050565b6000620004df82620004b6565b620004eb8185620004c1565b9350620004fd8185602086016200036a565b62000508816200029f565b840191505092915050565b60006040820190506200052a6000830185620004a5565b81810360208301526200053e8184620004d2565b90509392505050565b615ae780620005576000396000f3fe6080604052600436106102045760003560e01c80636617674311610118578063c377a0c5116100a0578063da35c6641161006f578063da35c66414610793578063de0b27e5146107be578063f4c847f9146107fb578063f646a92c14610826578063fe0d94c11461086a57610204565b8063c377a0c5146106e6578063c3c79d8514610723578063cac926691461073f578063d33219b41461076857610204565b806388fde90a116100e757806388fde90a1461061e578063ab0dce3214610649578063b58131b014610679578063b8997a97146106a4578063b9a61961146106cf57610204565b806366176743146105725780636ef6c66d146105b1578063760fbc13146105dc5780637bdbe4d0146105f357610204565b8063374a42311161019b5780633e4f49e61161016a5780633e4f49e61461047b57806340e58ee5146104b8578063452a9320146104e15780634a7fdf2d1461050c5780634a9f914e1461053557610204565b8063374a4231146103ad578063382fcf1c146103ea578063392317cd146104135780633932abb11461045057610204565b806315373e3d116101d757806315373e3d146102df57806317977c611461030857806319fc88d11461034557806324bc1a641461038257610204565b8063013cf08b1461020957806302a251a31461024c57806306fdde031461027757806308006a15146102a2575b600080fd5b34801561021557600080fd5b50610230600480360381019061022b9190613464565b610886565b60405161024397969594939291906134fc565b60405180910390f35b34801561025857600080fd5b50610261610902565b60405161026e919061356b565b60405180910390f35b34801561028357600080fd5b5061028c61090b565b6040516102999190613616565b60405180910390f35b3480156102ae57600080fd5b506102c960048036038101906102c49190613664565b610944565b6040516102d6919061356b565b60405180910390f35b3480156102eb57600080fd5b50610306600480360381019061030191906136bd565b61095c565b005b34801561031457600080fd5b5061032f600480360381019061032a9190613664565b61096b565b60405161033c919061356b565b60405180910390f35b34801561035157600080fd5b5061036c60048036038101906103679190613464565b610983565b604051610379919061356b565b60405180910390f35b34801561038e57600080fd5b5061039761099b565b6040516103a4919061356b565b60405180910390f35b3480156103b957600080fd5b506103d460048036038101906103cf9190613464565b6109a4565b6040516103e1919061356b565b60405180910390f35b3480156103f657600080fd5b50610411600480360381019061040c91906136fd565b6109c1565b005b34801561041f57600080fd5b5061043a60048036038101906104359190613664565b610f37565b604051610447919061356b565b60405180910390f35b34801561045c57600080fd5b50610465610f4f565b604051610472919061356b565b60405180910390f35b34801561048757600080fd5b506104a2600480360381019061049d9190613464565b610f58565b6040516104af91906137b4565b60405180910390f35b3480156104c457600080fd5b506104df60048036038101906104da9190613464565b611161565b005b3480156104ed57600080fd5b506104f6611513565b60405161050391906137cf565b60405180910390f35b34801561051857600080fd5b50610533600480360381019061052e919061391f565b611539565b005b34801561054157600080fd5b5061055c60048036038101906105579190613664565b611712565b604051610569919061356b565b60405180910390f35b34801561057e57600080fd5b5061059960048036038101906105949190613968565b61172a565b6040516105a8939291906139cf565b60405180910390f35b3480156105bd57600080fd5b506105c6611793565b6040516105d3919061356b565b60405180910390f35b3480156105e857600080fd5b506105f1611799565b005b3480156105ff57600080fd5b5061060861186d565b604051610615919061356b565b60405180910390f35b34801561062a57600080fd5b50610633611876565b6040516106409190613a65565b60405180910390f35b610663600480360381019061065e9190613e6e565b61189c565b604051610670919061356b565b60405180910390f35b34801561068557600080fd5b5061068e612061565b60405161069b919061356b565b60405180910390f35b3480156106b057600080fd5b506106b961206a565b6040516106c69190613fe8565b60405180910390f35b3480156106db57600080fd5b506106e4612088565b005b3480156106f257600080fd5b5061070d60048036038101906107089190613664565b61219a565b60405161071a9190614003565b60405180910390f35b61073d6004803603810190610738919061404a565b6121ba565b005b34801561074b57600080fd5b506107666004803603810190610761919061404a565b612542565b005b34801561077457600080fd5b5061077d612576565b60405161078a9190614098565b60405180910390f35b34801561079f57600080fd5b506107a861259a565b6040516107b5919061356b565b60405180910390f35b3480156107ca57600080fd5b506107e560048036038101906107e09190613664565b6125a0565b6040516107f29190614003565b60405180910390f35b34801561080757600080fd5b506108106125c0565b60405161081d91906140d4565b60405180910390f35b34801561083257600080fd5b5061084d60048036038101906108489190613464565b6125e6565b6040516108619897969594939291906140ef565b60405180910390f35b610884600480360381019061087f9190613464565b6127e6565b005b60066020528060005260406000206000915090508060000154908060010160009054906101000a900473ffffffffffffffffffffffffffffffffffffffff16908060020154908060030154908060040154908060090160009054906101000a900460ff16908060090160019054906101000a900460ff16905087565b60006028905090565b6040518060400160405280600781526020017f6c616e6744414f0000000000000000000000000000000000000000000000000081525081565b600c6020528060005260406000206000915090505481565b610967338383612a51565b5050565b60086020528060005260406000206000915090505481565b600d6020528060005260406000206000915090505481565b60006028905090565b6000600d6000838152602001908152602001600020549050919050565b600460078111156109d5576109d461373d565b5b6109de83610f58565b60078111156109f0576109ef61373d565b5b14610a30576040517f08c379a0000000000000000000000000000000000000000000000000000000008152600401610a27906141f4565b60405180910390fd5b601154600960006006600086815260200190815260200160002060010160009054906101000a900473ffffffffffffffffffffffffffffffffffffffff1673ffffffffffffffffffffffffffffffffffffffff1673ffffffffffffffffffffffffffffffffffffffff1681526020019081526020016000206000828254610ab79190614243565b9250508190555060006006600084815260200190815260200160002090506000610b6f4260008054906101000a900473ffffffffffffffffffffffffffffffffffffffff1673ffffffffffffffffffffffffffffffffffffffff16636a42b8f86040518163ffffffff1660e01b8152600401602060405180830381865afa158015610b46573d6000803e3d6000fd5b505050506040513d601f19601f82011682018060405250810190610b6a919061428c565b612dcd565b905060005b8260050180549050811015610d5357610d40836005018281548110610b9c57610b9b6142b9565b5b9060005260206000200160009054906101000a900473ffffffffffffffffffffffffffffffffffffffff16846006018381548110610bdd57610bdc6142b9565b5b9060005260206000200154856007018481548110610bfe57610bfd6142b9565b5b906000526020600020018054610c1390614317565b80601f0160208091040260200160405190810160405280929190818152602001828054610c3f90614317565b8015610c8c5780601f10610c6157610100808354040283529160200191610c8c565b820191906000526020600020905b815481529060010190602001808311610c6f57829003601f168201915b5050505050866008018581548110610ca757610ca66142b9565b5b906000526020600020018054610cbc90614317565b80601f0160208091040260200160405190810160405280929190818152602001828054610ce890614317565b8015610d355780601f10610d0a57610100808354040283529160200191610d35565b820191906000526020600020905b815481529060010190602001808311610d1857829003601f168201915b505050505086612e2b565b8080610d4b90614348565b915050610b74565b50808260020181905550600060076000868152602001908152602001600020600501541115610ef857610d9b600760008681526020019081526020016000206005015461306a565b6000600260009054906101000a900473ffffffffffffffffffffffffffffffffffffffff1673ffffffffffffffffffffffffffffffffffffffff1663cebf64f5856040518263ffffffff1660e01b8152600401610df8919061356b565b602060405180830381865afa158015610e15573d6000803e3d6000fd5b505050506040513d601f19601f82011682018060405250810190610e3991906143a5565b9050600160009054906101000a900473ffffffffffffffffffffffffffffffffffffffff1673ffffffffffffffffffffffffffffffffffffffff1663a9059cbb82601060009054906101000a90046bffffffffffffffffffffffff166040518363ffffffff1660e01b8152600401610eb2929190614403565b6020604051808303816000875af1158015610ed1573d6000803e3d6000fd5b505050506040513d601f19601f82011682018060405250810190610ef59190614441565b50505b7f9a2e42fd6722813d69113e7d0079d3d940171428df7373df9c7f7617cfda28928482604051610f2992919061446e565b60405180910390a150505050565b60096020528060005260406000206000915090505481565b60006001905090565b60008160035410158015610f6c5750600082115b610fab576040517f08c379a0000000000000000000000000000000000000000000000000000000008152600401610fa2906144e3565b60405180910390fd5b60006006600084815260200190815260200160002090508060090160009054906101000a900460ff1615610fe357600291505061115c565b80600301544311610ff857600091505061115c565b8060040154431161100d57600191505061115c565b60076000848152602001908152602001600020600701546007600085815260200190815260200160002060060154111580611064575061104b61099b565b6007600085815260200190815260200160002060060154105b1561107357600391505061115c565b600081600201540361108957600491505061115c565b8060090160019054906101000a900460ff16156110aa57600791505061115c565b611146816002015460008054906101000a900473ffffffffffffffffffffffffffffffffffffffff1673ffffffffffffffffffffffffffffffffffffffff1663c1a287e26040518163ffffffff1660e01b8152600401602060405180830381865afa15801561111d573d6000803e3d6000fd5b505050506040513d601f19601f82011682018060405250810190611141919061428c565b612dcd565b421061115657600691505061115c565b60059150505b919050565b6007808111156111745761117361373d565b5b61117d82610f58565b600781111561118f5761118e61373d565b5b036111cf576040517f08c379a00000000000000000000000000000000000000000000000000000000081526004016111c69061454f565b60405180910390fd5b6000600660008381526020019081526020016000209050600460009054906101000a900473ffffffffffffffffffffffffffffffffffffffff1673ffffffffffffffffffffffffffffffffffffffff163373ffffffffffffffffffffffffffffffffffffffff1614806113215750611245612061565b600160009054906101000a900473ffffffffffffffffffffffffffffffffffffffff1673ffffffffffffffffffffffffffffffffffffffff1663782d6fe18360010160009054906101000a900473ffffffffffffffffffffffffffffffffffffffff166112b3436001613103565b6040518363ffffffff1660e01b81526004016112d092919061456f565b602060405180830381865afa1580156112ed573d6000803e3d6000fd5b505050506040513d601f19601f8201168201806040525081019061131191906145ad565b6bffffffffffffffffffffffff16105b611360576040517f08c379a000000000000000000000000000000000000000000000000000000000815260040161135790614626565b60405180910390fd5b60018160090160006101000a81548160ff02191690831515021790555060005b81600501805490508110156114d75760008054906101000a900473ffffffffffffffffffffffffffffffffffffffff1673ffffffffffffffffffffffffffffffffffffffff1663591fcdfe8360050183815481106113e1576113e06142b9565b5b9060005260206000200160009054906101000a900473ffffffffffffffffffffffffffffffffffffffff16846006018481548110611422576114216142b9565b5b9060005260206000200154856007018581548110611443576114426142b9565b5b90600052602060002001866008018681548110611463576114626142b9565b5b9060005260206000200187600201546040518663ffffffff1660e01b8152600401611492959493929190614789565b600060405180830381600087803b1580156114ac57600080fd5b505af11580156114c0573d6000803e3d6000fd5b5050505080806114cf90614348565b915050611380565b507f789cf55be980739dad1d0699b93b58e806b51c9d96619bfa8fe0a28abaa7b30c82604051611507919061356b565b60405180910390a15050565b600460009054906101000a900473ffffffffffffffffffffffffffffffffffffffff1681565b60001515600a60003373ffffffffffffffffffffffffffffffffffffffff1673ffffffffffffffffffffffffffffffffffffffff16815260200190815260200160002060009054906101000a900460ff1615150361170f576002600c60003373ffffffffffffffffffffffffffffffffffffffff1673ffffffffffffffffffffffffffffffffffffffff168152602001908152602001600020541015801561162157506005600b60003373ffffffffffffffffffffffffffffffffffffffff1673ffffffffffffffffffffffffffffffffffffffff1681526020019081526020016000205410155b1561170e57600260009054906101000a900473ffffffffffffffffffffffffffffffffffffffff1673ffffffffffffffffffffffffffffffffffffffff1663858f1e9233836040518363ffffffff1660e01b81526004016116839291906147ea565b600060405180830381600087803b15801561169d57600080fd5b505af11580156116b1573d6000803e3d6000fd5b505050506001600a60003373ffffffffffffffffffffffffffffffffffffffff1673ffffffffffffffffffffffffffffffffffffffff16815260200190815260200160002060006101000a81548160ff0219169083151502179055505b5b50565b600b6020528060005260406000206000915090505481565b6005602052816000526040600020602052806000526040600020600091509150508060000160009054906101000a900460ff16908060000160019054906101000a900460ff16908060000160029054906101000a90046bffffffffffffffffffffffff16905083565b60115481565b600460009054906101000a900473ffffffffffffffffffffffffffffffffffffffff1673ffffffffffffffffffffffffffffffffffffffff163373ffffffffffffffffffffffffffffffffffffffff1614611829576040517f08c379a000000000000000000000000000000000000000000000000000000000815260040161182090614866565b60405180910390fd5b6000600460006101000a81548173ffffffffffffffffffffffffffffffffffffffff021916908373ffffffffffffffffffffffffffffffffffffffff160217905550565b6000600a905090565b600260009054906101000a900473ffffffffffffffffffffffffffffffffffffffff1681565b6000601060009054906101000a90046bffffffffffffffffffffffff166bffffffffffffffffffffffff166011546118d49190614243565b3414611915576040517f08c379a000000000000000000000000000000000000000000000000000000000815260040161190c906148f8565b60405180910390fd5b61191d612061565b600160009054906101000a900473ffffffffffffffffffffffffffffffffffffffff1673ffffffffffffffffffffffffffffffffffffffff1663782d6fe133611967436001613103565b6040518363ffffffff1660e01b815260040161198492919061456f565b602060405180830381865afa1580156119a1573d6000803e3d6000fd5b505050506040513d601f19601f820116820180604052508101906119c591906145ad565b6bffffffffffffffffffffffff1611611a13576040517f08c379a0000000000000000000000000000000000000000000000000000000008152600401611a0a9061498a565b60405180910390fd5b87518951148015611a25575086518951145b8015611a32575085518951145b611a71576040517f08c379a0000000000000000000000000000000000000000000000000000000008152600401611a6890614a1c565b60405180910390fd5b6000895103611ab5576040517f08c379a0000000000000000000000000000000000000000000000000000000008152600401611aac90614a88565b60405180910390fd5b611abd61186d565b89511115611b00576040517f08c379a0000000000000000000000000000000000000000000000000000000008152600401611af790614af4565b60405180910390fd5b6000600860003373ffffffffffffffffffffffffffffffffffffffff1673ffffffffffffffffffffffffffffffffffffffff16815260200190815260200160002054905060008114611c29576000611b5782610f58565b905060016007811115611b6d57611b6c61373d565b5b816007811115611b8057611b7f61373d565b5b03611bc0576040517f08c379a0000000000000000000000000000000000000000000000000000000008152600401611bb790614b60565b60405180910390fd5b60006007811115611bd457611bd361373d565b5b816007811115611be757611be661373d565b5b03611c27576040517f08c379a0000000000000000000000000000000000000000000000000000000008152600401611c1e90614bf2565b60405180910390fd5b505b6000611c3c43611c37610f4f565b612dcd565b90506000611c5182611c4c610902565b612dcd565b905060036000815480929190611c6690614348565b919050555060405180610160016040528060035481526020013373ffffffffffffffffffffffffffffffffffffffff168152602001600081526020018381526020018281526020018d81526020018c81526020018b81526020018a8152602001600015158152602001600015158152506006600060035481526020019081526020016000206000820151816000015560208201518160010160006101000a81548173ffffffffffffffffffffffffffffffffffffffff021916908373ffffffffffffffffffffffffffffffffffffffff16021790555060408201518160020155606082015181600301556080820151816004015560a0820151816005019080519060200190611d769291906131a2565b5060c0820151816006019080519060200190611d9392919061322c565b5060e0820151816007019080519060200190611db0929190613279565b50610100820151816008019080519060200190611dce9291906132d2565b506101208201518160090160006101000a81548160ff0219169083151502179055506101408201518160090160016101000a81548160ff02191690831515021790555090505060405180610100016040528060035481526020013373ffffffffffffffffffffffffffffffffffffffff1681526020018981526020018881526020018781526020018681526020016000815260200160008152506007600060035481526020019081526020016000206000820151816000015560208201518160010160006101000a81548173ffffffffffffffffffffffffffffffffffffffff021916908373ffffffffffffffffffffffffffffffffffffffff1602179055506040820151816002019081611ee39190614d9f565b506060820151816003019081611ef99190614d9f565b506080820151816004019081611f0f9190614d9f565b5060a0820151816005015560c0820151816006015560e08201518160070155905050600354600860003373ffffffffffffffffffffffffffffffffffffffff1673ffffffffffffffffffffffffffffffffffffffff168152602001908152602001600020819055506001600c60003373ffffffffffffffffffffffffffffffffffffffff1673ffffffffffffffffffffffffffffffffffffffff1681526020019081526020016000206000828254611fc79190614243565b92505081905550600060076000600354815260200190815260200160002060050154905080600d60006003548152602001908152602001600020819055507f9479b7607c10133aa95f93ade05216edbd87f9d50043cec8bf0352cbe6c77226600354338f8f8f8f8989604051612044989796959493929190615210565b60405180910390a160035494505050505098975050505050505050565b6000600a905090565b601060009054906101000a90046bffffffffffffffffffffffff1681565b600460009054906101000a900473ffffffffffffffffffffffffffffffffffffffff1673ffffffffffffffffffffffffffffffffffffffff163373ffffffffffffffffffffffffffffffffffffffff1614612118576040517f08c379a000000000000000000000000000000000000000000000000000000000815260040161210f90614866565b60405180910390fd5b60008054906101000a900473ffffffffffffffffffffffffffffffffffffffff1673ffffffffffffffffffffffffffffffffffffffff16630e18b6816040518163ffffffff1660e01b8152600401600060405180830381600087803b15801561218057600080fd5b505af1158015612194573d6000803e3d6000fd5b50505050565b600a6020528060005260406000206000915054906101000a900460ff1681565b600160009054906101000a900473ffffffffffffffffffffffffffffffffffffffff1673ffffffffffffffffffffffffffffffffffffffff16634b94f50e6040518163ffffffff1660e01b8152600401602060405180830381865afa158015612227573d6000803e3d6000fd5b505050506040513d601f19601f8201168201806040525081019061224b919061428c565b816bffffffffffffffffffffffff1661226491906152aa565b34146122a5576040517f08c379a000000000000000000000000000000000000000000000000000000000815260040161229c90615338565b60405180910390fd5b806bffffffffffffffffffffffff16600160009054906101000a900473ffffffffffffffffffffffffffffffffffffffff1673ffffffffffffffffffffffffffffffffffffffff166370a08231306040518263ffffffff1660e01b815260040161230f91906137cf565b602060405180830381865afa15801561232c573d6000803e3d6000fd5b505050506040513d601f19601f82011682018060405250810190612350919061428c565b1015612391576040517f08c379a0000000000000000000000000000000000000000000000000000000008152600401612388906153ca565b60405180910390fd5b600f60003373ffffffffffffffffffffffffffffffffffffffff1673ffffffffffffffffffffffffffffffffffffffff16815260200190815260200160002060009054906101000a900460ff1661249e57600e339080600181540180825580915050600190039060005260206000200160009091909190916101000a81548173ffffffffffffffffffffffffffffffffffffffff021916908373ffffffffffffffffffffffffffffffffffffffff1602179055506001600f60003373ffffffffffffffffffffffffffffffffffffffff1673ffffffffffffffffffffffffffffffffffffffff16815260200190815260200160002060006101000a81548160ff0219169083151502179055505b600160009054906101000a900473ffffffffffffffffffffffffffffffffffffffff1673ffffffffffffffffffffffffffffffffffffffff1663a9059cbb33836040518363ffffffff1660e01b81526004016124fb929190614403565b6020604051808303816000875af115801561251a573d6000803e3d6000fd5b505050506040513d601f19601f8201168201806040525081019061253e9190614441565b5050565b80601060006101000a8154816bffffffffffffffffffffffff02191690836bffffffffffffffffffffffff16021790555050565b60008054906101000a900473ffffffffffffffffffffffffffffffffffffffff1681565b60035481565b600f6020528060005260406000206000915054906101000a900460ff1681565b600160009054906101000a900473ffffffffffffffffffffffffffffffffffffffff1681565b60076020528060005260406000206000915090508060000154908060010160009054906101000a900473ffffffffffffffffffffffffffffffffffffffff169080600201805461263590614317565b80601f016020809104026020016040519081016040528092919081815260200182805461266190614317565b80156126ae5780601f10612683576101008083540402835291602001916126ae565b820191906000526020600020905b81548152906001019060200180831161269157829003601f168201915b5050505050908060030180546126c390614317565b80601f01602080910402602001604051908101604052809291908181526020018280546126ef90614317565b801561273c5780601f106127115761010080835404028352916020019161273c565b820191906000526020600020905b81548152906001019060200180831161271f57829003601f168201915b50505050509080600401805461275190614317565b80601f016020809104026020016040519081016040528092919081815260200182805461277d90614317565b80156127ca5780601f1061279f576101008083540402835291602001916127ca565b820191906000526020600020905b8154815290600101906020018083116127ad57829003601f168201915b5050505050908060050154908060060154908060070154905088565b600560078111156127fa576127f961373d565b5b61280382610f58565b60078111156128155761281461373d565b5b14612855576040517f08c379a000000000000000000000000000000000000000000000000000000000815260040161284c9061545c565b60405180910390fd5b600060066000838152602001908152602001600020905060018160090160016101000a81548160ff02191690831515021790555060005b8160050180549050811015612a155760008054906101000a900473ffffffffffffffffffffffffffffffffffffffff1673ffffffffffffffffffffffffffffffffffffffff16632224fa258360060183815481106128ed576128ec6142b9565b5b906000526020600020015484600501848154811061290e5761290d6142b9565b5b9060005260206000200160009054906101000a900473ffffffffffffffffffffffffffffffffffffffff1685600601858154811061294f5761294e6142b9565b5b90600052602060002001548660070186815481106129705761296f6142b9565b5b906000526020600020018760080187815481106129905761298f6142b9565b5b906000526020600020016040518663ffffffff1660e01b81526004016129b9949392919061547c565b60006040518083038185885af11580156129d7573d6000803e3d6000fd5b50505050506040513d6000823e3d601f19601f82011682018060405250810190612a01919061553f565b508080612a0d90614348565b91505061288c565b507f712ae1383f79ac853f8d882153778e0260ef8f03b504e2866e0593e04d2b291f82604051612a45919061356b565b60405180910390a15050565b60016007811115612a6557612a6461373d565b5b612a6e83610f58565b6007811115612a8057612a7f61373d565b5b14612ac0576040517f08c379a0000000000000000000000000000000000000000000000000000000008152600401612ab7906155d4565b60405180910390fd5b600060066000848152602001908152602001600020905060006005600085815260200190815260200160002060008673ffffffffffffffffffffffffffffffffffffffff1673ffffffffffffffffffffffffffffffffffffffff1681526020019081526020016000209050600015158160000160009054906101000a900460ff16151514612b83576040517f08c379a0000000000000000000000000000000000000000000000000000000008152600401612b7a90615640565b60405180910390fd5b6000600160009054906101000a900473ffffffffffffffffffffffffffffffffffffffff1673ffffffffffffffffffffffffffffffffffffffff1663782d6fe18785600301546040518363ffffffff1660e01b8152600401612be692919061456f565b602060405180830381865afa158015612c03573d6000803e3d6000fd5b505050506040513d601f19601f82011682018060405250810190612c2791906145ad565b90508315612c7c57612c5d6007600087815260200190815260200160002060060154826bffffffffffffffffffffffff16612dcd565b6007600087815260200190815260200160002060060181905550612cc5565b612caa6007600087815260200190815260200160002060070154826bffffffffffffffffffffffff16612dcd565b60076000878152602001908152602001600020600701819055505b60018260000160006101000a81548160ff021916908315150217905550838260000160016101000a81548160ff021916908315150217905550808260000160026101000a8154816bffffffffffffffffffffffff02191690836bffffffffffffffffffffffff1602179055506001600b60003373ffffffffffffffffffffffffffffffffffffffff1673ffffffffffffffffffffffffffffffffffffffff1681526020019081526020016000206000828254612d819190614243565b925050819055507f877856338e13f63d0c36822ff0ef736b80934cd90574a3a5bc9262c39d217c4686868684604051612dbd9493929190615660565b60405180910390a1505050505050565b6000808284612ddc9190614243565b905083811015612e21576040517f08c379a0000000000000000000000000000000000000000000000000000000008152600401612e18906156f1565b60405180910390fd5b8091505092915050565b60008054906101000a900473ffffffffffffffffffffffffffffffffffffffff1673ffffffffffffffffffffffffffffffffffffffff1663f2b065378686868686604051602001612e8095949392919061574a565b604051602081830303815290604052805190602001206040518263ffffffff1660e01b8152600401612eb291906157c4565b602060405180830381865afa158015612ecf573d6000803e3d6000fd5b505050506040513d601f19601f82011682018060405250810190612ef39190614441565b15612f33576040517f08c379a0000000000000000000000000000000000000000000000000000000008152600401612f2a90615851565b60405180910390fd5b60008054906101000a900473ffffffffffffffffffffffffffffffffffffffff1673ffffffffffffffffffffffffffffffffffffffff1663abc203bd336040518263ffffffff1660e01b8152600401612f8c91906137cf565b600060405180830381600087803b158015612fa657600080fd5b505af1158015612fba573d6000803e3d6000fd5b5050505060008054906101000a900473ffffffffffffffffffffffffffffffffffffffff1673ffffffffffffffffffffffffffffffffffffffff16633a66f90186868686866040518663ffffffff1660e01b815260040161301f95949392919061574a565b6020604051808303816000875af115801561303e573d6000803e3d6000fd5b505050506040513d601f19601f82011682018060405250810190613062919061589d565b505050505050565b6131008160405160240161307e919061356b565b6040516020818303038152906040527ff82c50f1000000000000000000000000000000000000000000000000000000007bffffffffffffffffffffffffffffffffffffffffffffffffffffffff19166020820180517bffffffffffffffffffffffffffffffffffffffffffffffffffffffff838183161783525050505061315c565b50565b600082821115613148576040517f08c379a000000000000000000000000000000000000000000000000000000000815260040161313f90615916565b60405180910390fd5b81836131549190615936565b905092915050565b6131738161316b613176613197565b63ffffffff16565b50565b60006a636f6e736f6c652e6c6f679050600080835160208501845afa505050565b61332b819050919050565b82805482825590600052602060002090810192821561321b579160200282015b8281111561321a5782518260006101000a81548173ffffffffffffffffffffffffffffffffffffffff021916908373ffffffffffffffffffffffffffffffffffffffff160217905550916020019190600101906131c2565b5b5090506132289190613335565b5090565b828054828255906000526020600020908101928215613268579160200282015b8281111561326757825182559160200191906001019061324c565b5b5090506132759190613335565b5090565b8280548282559060005260206000209081019282156132c1579160200282015b828111156132c05782518290816132b09190614d9f565b5091602001919060010190613299565b5b5090506132ce9190613352565b5090565b82805482825590600052602060002090810192821561331a579160200282015b8281111561331957825182908161330991906159b0565b50916020019190600101906132f2565b5b5090506133279190613376565b5090565b613333615a82565b565b5b8082111561334e576000816000905550600101613336565b5090565b5b808211156133725760008181613369919061339a565b50600101613353565b5090565b5b80821115613396576000818161338d91906133da565b50600101613377565b5090565b5080546133a690614317565b6000825580601f106133b857506133d7565b601f0160209004906000526020600020908101906133d69190613335565b5b50565b5080546133e690614317565b6000825580601f106133f85750613417565b601f0160209004906000526020600020908101906134169190613335565b5b50565b6000604051905090565b600080fd5b600080fd5b6000819050919050565b6134418161342e565b811461344c57600080fd5b50565b60008135905061345e81613438565b92915050565b60006020828403121561347a57613479613424565b5b60006134888482850161344f565b91505092915050565b61349a8161342e565b82525050565b600073ffffffffffffffffffffffffffffffffffffffff82169050919050565b60006134cb826134a0565b9050919050565b6134db816134c0565b82525050565b60008115159050919050565b6134f6816134e1565b82525050565b600060e082019050613511600083018a613491565b61351e60208301896134d2565b61352b6040830188613491565b6135386060830187613491565b6135456080830186613491565b61355260a08301856134ed565b61355f60c08301846134ed565b98975050505050505050565b60006020820190506135806000830184613491565b92915050565b600081519050919050565b600082825260208201905092915050565b60005b838110156135c05780820151818401526020810190506135a5565b60008484015250505050565b6000601f19601f8301169050919050565b60006135e882613586565b6135f28185613591565b93506136028185602086016135a2565b61360b816135cc565b840191505092915050565b6000602082019050818103600083015261363081846135dd565b905092915050565b613641816134c0565b811461364c57600080fd5b50565b60008135905061365e81613638565b92915050565b60006020828403121561367a57613679613424565b5b60006136888482850161364f565b91505092915050565b61369a816134e1565b81146136a557600080fd5b50565b6000813590506136b781613691565b92915050565b600080604083850312156136d4576136d3613424565b5b60006136e28582860161344f565b92505060206136f3858286016136a8565b9150509250929050565b6000806040838503121561371457613713613424565b5b60006137228582860161344f565b92505060206137338582860161344f565b9150509250929050565b7f4e487b7100000000000000000000000000000000000000000000000000000000600052602160045260246000fd5b6008811061377d5761377c61373d565b5b50565b600081905061378e8261376c565b919050565b600061379e82613780565b9050919050565b6137ae81613793565b82525050565b60006020820190506137c960008301846137a5565b92915050565b60006020820190506137e460008301846134d2565b92915050565b600080fd5b600080fd5b7f4e487b7100000000000000000000000000000000000000000000000000000000600052604160045260246000fd5b61382c826135cc565b810181811067ffffffffffffffff8211171561384b5761384a6137f4565b5b80604052505050565b600061385e61341a565b905061386a8282613823565b919050565b600067ffffffffffffffff82111561388a576138896137f4565b5b613893826135cc565b9050602081019050919050565b82818337600083830152505050565b60006138c26138bd8461386f565b613854565b9050828152602081018484840111156138de576138dd6137ef565b5b6138e98482856138a0565b509392505050565b600082601f830112613906576139056137ea565b5b81356139168482602086016138af565b91505092915050565b60006020828403121561393557613934613424565b5b600082013567ffffffffffffffff81111561395357613952613429565b5b61395f848285016138f1565b91505092915050565b6000806040838503121561397f5761397e613424565b5b600061398d8582860161344f565b925050602061399e8582860161364f565b9150509250929050565b60006bffffffffffffffffffffffff82169050919050565b6139c9816139a8565b82525050565b60006060820190506139e460008301866134ed565b6139f160208301856134ed565b6139fe60408301846139c0565b949350505050565b6000819050919050565b6000613a2b613a26613a21846134a0565b613a06565b6134a0565b9050919050565b6000613a3d82613a10565b9050919050565b6000613a4f82613a32565b9050919050565b613a5f81613a44565b82525050565b6000602082019050613a7a6000830184613a56565b92915050565b600067ffffffffffffffff821115613a9b57613a9a6137f4565b5b602082029050602081019050919050565b600080fd5b6000613ac4613abf84613a80565b613854565b90508083825260208201905060208402830185811115613ae757613ae6613aac565b5b835b81811015613b105780613afc888261364f565b845260208401935050602081019050613ae9565b5050509392505050565b600082601f830112613b2f57613b2e6137ea565b5b8135613b3f848260208601613ab1565b91505092915050565b600067ffffffffffffffff821115613b6357613b626137f4565b5b602082029050602081019050919050565b6000613b87613b8284613b48565b613854565b90508083825260208201905060208402830185811115613baa57613ba9613aac565b5b835b81811015613bd35780613bbf888261344f565b845260208401935050602081019050613bac565b5050509392505050565b600082601f830112613bf257613bf16137ea565b5b8135613c02848260208601613b74565b91505092915050565b600067ffffffffffffffff821115613c2657613c256137f4565b5b602082029050602081019050919050565b6000613c4a613c4584613c0b565b613854565b90508083825260208201905060208402830185811115613c6d57613c6c613aac565b5b835b81811015613cb457803567ffffffffffffffff811115613c9257613c916137ea565b5b808601613c9f89826138f1565b85526020850194505050602081019050613c6f565b5050509392505050565b600082601f830112613cd357613cd26137ea565b5b8135613ce3848260208601613c37565b91505092915050565b600067ffffffffffffffff821115613d0757613d066137f4565b5b602082029050602081019050919050565b600067ffffffffffffffff821115613d3357613d326137f4565b5b613d3c826135cc565b9050602081019050919050565b6000613d5c613d5784613d18565b613854565b905082815260208101848484011115613d7857613d776137ef565b5b613d838482856138a0565b509392505050565b600082601f830112613da057613d9f6137ea565b5b8135613db0848260208601613d49565b91505092915050565b6000613dcc613dc784613cec565b613854565b90508083825260208201905060208402830185811115613def57613dee613aac565b5b835b81811015613e3657803567ffffffffffffffff811115613e1457613e136137ea565b5b808601613e218982613d8b565b85526020850194505050602081019050613df1565b5050509392505050565b600082601f830112613e5557613e546137ea565b5b8135613e65848260208601613db9565b91505092915050565b600080600080600080600080610100898b031215613e8f57613e8e613424565b5b600089013567ffffffffffffffff811115613ead57613eac613429565b5b613eb98b828c01613b1a565b985050602089013567ffffffffffffffff811115613eda57613ed9613429565b5b613ee68b828c01613bdd565b975050604089013567ffffffffffffffff811115613f0757613f06613429565b5b613f138b828c01613cbe565b965050606089013567ffffffffffffffff811115613f3457613f33613429565b5b613f408b828c01613e40565b955050608089013567ffffffffffffffff811115613f6157613f60613429565b5b613f6d8b828c016138f1565b94505060a089013567ffffffffffffffff811115613f8e57613f8d613429565b5b613f9a8b828c016138f1565b93505060c089013567ffffffffffffffff811115613fbb57613fba613429565b5b613fc78b828c016138f1565b92505060e0613fd88b828c0161344f565b9150509295985092959890939650565b6000602082019050613ffd60008301846139c0565b92915050565b600060208201905061401860008301846134ed565b92915050565b614027816139a8565b811461403257600080fd5b50565b6000813590506140448161401e565b92915050565b6000602082840312156140605761405f613424565b5b600061406e84828501614035565b91505092915050565b600061408282613a32565b9050919050565b61409281614077565b82525050565b60006020820190506140ad6000830184614089565b92915050565b60006140be82613a32565b9050919050565b6140ce816140b3565b82525050565b60006020820190506140e960008301846140c5565b92915050565b600061010082019050614105600083018b613491565b614112602083018a6134d2565b818103604083015261412481896135dd565b9050818103606083015261413881886135dd565b9050818103608083015261414c81876135dd565b905061415b60a0830186613491565b61416860c0830185613491565b61417560e0830184613491565b9998505050505050505050565b7f70726f706f73616c2063616e206f6e6c7920626520717565756564206966206960008201527f7420697320737563636565646564000000000000000000000000000000000000602082015250565b60006141de602e83613591565b91506141e982614182565b604082019050919050565b6000602082019050818103600083015261420d816141d1565b9050919050565b7f4e487b7100000000000000000000000000000000000000000000000000000000600052601160045260246000fd5b600061424e8261342e565b91506142598361342e565b925082820190508082111561427157614270614214565b5b92915050565b60008151905061428681613438565b92915050565b6000602082840312156142a2576142a1613424565b5b60006142b084828501614277565b91505092915050565b7f4e487b7100000000000000000000000000000000000000000000000000000000600052603260045260246000fd5b7f4e487b7100000000000000000000000000000000000000000000000000000000600052602260045260246000fd5b6000600282049050600182168061432f57607f821691505b602082108103614342576143416142e8565b5b50919050565b60006143538261342e565b91507fffffffffffffffffffffffffffffffffffffffffffffffffffffffffffffffff820361438557614384614214565b5b600182019050919050565b60008151905061439f81613638565b92915050565b6000602082840312156143bb576143ba613424565b5b60006143c984828501614390565b91505092915050565b60006143ed6143e86143e3846139a8565b613a06565b61342e565b9050919050565b6143fd816143d2565b82525050565b600060408201905061441860008301856134d2565b61442560208301846143f4565b9392505050565b60008151905061443b81613691565b92915050565b60006020828403121561445757614456613424565b5b60006144658482850161442c565b91505092915050565b60006040820190506144836000830185613491565b6144906020830184613491565b9392505050565b7f20696e76616c69642070726f706f73616c206964000000000000000000000000600082015250565b60006144cd601483613591565b91506144d882614497565b602082019050919050565b600060208201905081810360008301526144fc816144c0565b9050919050565b7f63616e6e6f742063616e63656c2065786563757465642070726f706f73616c00600082015250565b6000614539601f83613591565b915061454482614503565b602082019050919050565b600060208201905081810360008301526145688161452c565b9050919050565b600060408201905061458460008301856134d2565b6145916020830184613491565b9392505050565b6000815190506145a78161401e565b92915050565b6000602082840312156145c3576145c2613424565b5b60006145d184828501614598565b91505092915050565b7f70726f706f7365722061626f7665207468726573686f6c640000000000000000600082015250565b6000614610601883613591565b915061461b826145da565b602082019050919050565b6000602082019050818103600083015261463f81614603565b9050919050565b60008190508160005260206000209050919050565b6000815461466881614317565b6146728186613591565b9450600182166000811461468d57600181146146a3576146d6565b60ff1983168652811515602002860193506146d6565b6146ac85614646565b60005b838110156146ce578154818901526001820191506020810190506146af565b808801955050505b50505092915050565b600082825260208201905092915050565b60008190508160005260206000209050919050565b6000815461471281614317565b61471c81866146df565b94506001821660008114614737576001811461474d57614780565b60ff198316865281151560200286019350614780565b614756856146f0565b60005b8381101561477857815481890152600182019150602081019050614759565b808801955050505b50505092915050565b600060a08201905061479e60008301886134d2565b6147ab6020830187613491565b81810360408301526147bd818661465b565b905081810360608301526147d18185614705565b90506147e06080830184613491565b9695505050505050565b60006040820190506147ff60008301856134d2565b818103602083015261481181846135dd565b90509392505050565b7f73656e646572206d75737420626520676f7620677561726469616e0000000000600082015250565b6000614850601b83613591565b915061485b8261481a565b602082019050919050565b6000602082019050818103600083015261487f81614843565b9050919050565b7f596f75206d75737420686176652076616c6964207374616b6520616d6f756e7460008201527f20746f2063726561746520612070726f706f73616c0000000000000000000000602082015250565b60006148e2603583613591565b91506148ed82614886565b604082019050919050565b60006020820190508181036000830152614911816148d5565b9050919050565b7f70726f706f73657220766f7465732062656c6f772070726f706f73616c20746860008201527f726573686f6c6400000000000000000000000000000000000000000000000000602082015250565b6000614974602783613591565b915061497f82614918565b604082019050919050565b600060208201905081810360008301526149a381614967565b9050919050565b7f70726f706f73616c2066756e6374696f6e20696e666f726d6174696f6e20617260008201527f697479206d69736d617463680000000000000000000000000000000000000000602082015250565b6000614a06602c83613591565b9150614a11826149aa565b604082019050919050565b60006020820190508181036000830152614a35816149f9565b9050919050565b7f736f6d6520616374696f6e206d75737420626520746865726500000000000000600082015250565b6000614a72601983613591565b9150614a7d82614a3c565b602082019050919050565b60006020820190508181036000830152614aa181614a65565b9050919050565b7f746f6f206d616e7920616374696f6e7300000000000000000000000000000000600082015250565b6000614ade601083613591565b9150614ae982614aa8565b602082019050919050565b60006020820190508181036000830152614b0d81614ad1565b9050919050565b7f466f756e6420616e20616c7265616479206163746976652070726f706f73616c600082015250565b6000614b4a602083613591565b9150614b5582614b14565b602082019050919050565b60006020820190508181036000830152614b7981614b3d565b9050919050565b7f466f756e6420616e20616c72656164792070656e64696e672070726f706f736160008201527f6c00000000000000000000000000000000000000000000000000000000000000602082015250565b6000614bdc602183613591565b9150614be782614b80565b604082019050919050565b60006020820190508181036000830152614c0b81614bcf565b9050919050565b60006020601f8301049050919050565b600082821b905092915050565b600060088302614c5f7fffffffffffffffffffffffffffffffffffffffffffffffffffffffffffffffff82614c22565b614c698683614c22565b95508019841693508086168417925050509392505050565b6000614c9c614c97614c928461342e565b613a06565b61342e565b9050919050565b6000819050919050565b614cb683614c81565b614cca614cc282614ca3565b848454614c2f565b825550505050565b600090565b614cdf614cd2565b614cea818484614cad565b505050565b5b81811015614d0e57614d03600082614cd7565b600181019050614cf0565b5050565b601f821115614d5357614d2481614646565b614d2d84614c12565b81016020851015614d3c578190505b614d50614d4885614c12565b830182614cef565b50505b505050565b600082821c905092915050565b6000614d7660001984600802614d58565b1980831691505092915050565b6000614d8f8383614d65565b9150826002028217905092915050565b614da882613586565b67ffffffffffffffff811115614dc157614dc06137f4565b5b614dcb8254614317565b614dd6828285614d12565b600060209050601f831160018114614e095760008415614df7578287015190505b614e018582614d83565b865550614e69565b601f198416614e1786614646565b60005b82811015614e3f57848901518255600182019150602085019450602081019050614e1a565b86831015614e5c5784890151614e58601f891682614d65565b8355505b6001600288020188555050505b505050505050565b600081519050919050565b600082825260208201905092915050565b6000819050602082019050919050565b614ea6816134c0565b82525050565b6000614eb88383614e9d565b60208301905092915050565b6000602082019050919050565b6000614edc82614e71565b614ee68185614e7c565b9350614ef183614e8d565b8060005b83811015614f22578151614f098882614eac565b9750614f1483614ec4565b925050600181019050614ef5565b5085935050505092915050565b600081519050919050565b600082825260208201905092915050565b6000819050602082019050919050565b614f648161342e565b82525050565b6000614f768383614f5b565b60208301905092915050565b6000602082019050919050565b6000614f9a82614f2f565b614fa48185614f3a565b9350614faf83614f4b565b8060005b83811015614fe0578151614fc78882614f6a565b9750614fd283614f82565b925050600181019050614fb3565b5085935050505092915050565b600081519050919050565b600082825260208201905092915050565b6000819050602082019050919050565b600082825260208201905092915050565b600061503582613586565b61503f8185615019565b935061504f8185602086016135a2565b615058816135cc565b840191505092915050565b600061506f838361502a565b905092915050565b6000602082019050919050565b600061508f82614fed565b6150998185614ff8565b9350836020820285016150ab85615009565b8060005b858110156150e757848403895281516150c88582615063565b94506150d383615077565b925060208a019950506001810190506150af565b50829750879550505050505092915050565b600081519050919050565b600082825260208201905092915050565b6000819050602082019050919050565b600081519050919050565b600082825260208201905092915050565b600061514c82615125565b6151568185615130565b93506151668185602086016135a2565b61516f816135cc565b840191505092915050565b60006151868383615141565b905092915050565b6000602082019050919050565b60006151a6826150f9565b6151b08185615104565b9350836020820285016151c285615115565b8060005b858110156151fe57848403895281516151df858261517a565b94506151ea8361518e565b925060208a019950506001810190506151c6565b50829750879550505050505092915050565b600061010082019050615226600083018b613491565b615233602083018a6134d2565b81810360408301526152458189614ed1565b905081810360608301526152598188614f8f565b9050818103608083015261526d8187615084565b905081810360a0830152615281818661519b565b905061529060c0830185613491565b61529d60e0830184613491565b9998505050505050505050565b60006152b58261342e565b91506152c08361342e565b92508282026152ce8161342e565b915082820484148315176152e5576152e4614214565b5b5092915050565b7f4e6f7420656e6f7567682076616c756500000000000000000000000000000000600082015250565b6000615322601083613591565b915061532d826152ec565b602082019050919050565b6000602082019050818103600083015261535181615315565b9050919050565b7f436f6e747261637420646f6573206e6f74206861766520656e6f75676820746f60008201527f6b656e7300000000000000000000000000000000000000000000000000000000602082015250565b60006153b4602483613591565b91506153bf82615358565b604082019050919050565b600060208201905081810360008301526153e3816153a7565b9050919050565b7f70726f706f73616c2063616e206f6e6c7920626520657865637574656420696660008201527f2069742069732071756575656400000000000000000000000000000000000000602082015250565b6000615446602d83613591565b9150615451826153ea565b604082019050919050565b6000602082019050818103600083015261547581615439565b9050919050565b600060808201905061549160008301876134d2565b61549e6020830186613491565b81810360408301526154b0818561465b565b905081810360608301526154c48184614705565b905095945050505050565b60006154e26154dd84613d18565b613854565b9050828152602081018484840111156154fe576154fd6137ef565b5b6155098482856135a2565b509392505050565b600082601f830112615526576155256137ea565b5b81516155368482602086016154cf565b91505092915050565b60006020828403121561555557615554613424565b5b600082015167ffffffffffffffff81111561557357615572613429565b5b61557f84828501615511565b91505092915050565b7f766f74696e6720697320636c6f73656400000000000000000000000000000000600082015250565b60006155be601083613591565b91506155c982615588565b602082019050919050565b600060208201905081810360008301526155ed816155b1565b9050919050565b7f766f7465722068617320616c726561647920766f746564000000000000000000600082015250565b600061562a601783613591565b9150615635826155f4565b602082019050919050565b600060208201905081810360008301526156598161561d565b9050919050565b600060808201905061567560008301876134d2565b6156826020830186613491565b61568f60408301856134ed565b61569c60608301846143f4565b95945050505050565b7f6164646974696f6e206f766572666c6f77000000000000000000000000000000600082015250565b60006156db601183613591565b91506156e6826156a5565b602082019050919050565b6000602082019050818103600083015261570a816156ce565b9050919050565b600061571c82615125565b61572681856146df565b93506157368185602086016135a2565b61573f816135cc565b840191505092915050565b600060a08201905061575f60008301886134d2565b61576c6020830187613491565b818103604083015261577e81866135dd565b905081810360608301526157928185615711565b90506157a16080830184613491565b9695505050505050565b6000819050919050565b6157be816157ab565b82525050565b60006020820190506157d960008301846157b5565b92915050565b7f2070726f706f73616c20616374696f6e20616c7265616479207175657565642060008201527f6174206574610000000000000000000000000000000000000000000000000000602082015250565b600061583b602683613591565b9150615846826157df565b604082019050919050565b6000602082019050818103600083015261586a8161582e565b9050919050565b61587a816157ab565b811461588557600080fd5b50565b60008151905061589781615871565b92915050565b6000602082840312156158b3576158b2613424565b5b60006158c184828501615888565b91505092915050565b7f7375627472616374696f6e20756e646572666c6f770000000000000000000000600082015250565b6000615900601583613591565b915061590b826158ca565b602082019050919050565b6000602082019050818103600083015261592f816158f3565b9050919050565b60006159418261342e565b915061594c8361342e565b925082820390508181111561596457615963614214565b5b92915050565b601f8211156159ab5761597c816146f0565b61598584614c12565b81016020851015615994578190505b6159a86159a085614c12565b830182614cef565b50505b505050565b6159b982615125565b67ffffffffffffffff8111156159d2576159d16137f4565b5b6159dc8254614317565b6159e782828561596a565b600060209050601f831160018114615a1a5760008415615a08578287015190505b615a128582614d83565b865550615a7a565b601f198416615a28866146f0565b60005b82811015615a5057848901518255600182019150602085019450602081019050615a2b565b86831015615a6d5784890151615a69601f891682614d65565b8355505b6001600288020188555050505b505050505050565b7f4e487b7100000000000000000000000000000000000000000000000000000000600052605160045260246000fdfea2646970667358221220b269d4e07287d6fc0baa2c0196e8d09461b974a3d44fed8175da71df4d66ec7264736f6c63430008130033",
  "linkReferences": {},
  "deployedLinkReferences": {}
}