{
  "_format": "hh-sol-artifact-1",
  "contractName": "Samhita",
  "sourceName": "contracts/samhita.sol",
  "abi": [
    {
      "inputs": [
        {
          "internalType": "address",
          "name": "timelock_",
          "type": "address"
        },
        {
          "internalType": "address",
          "name": "token_",
          "type": "address"
        },
        {
          "internalType": "address",
          "name": "templateNFT_",
          "type": "address"
        },
        {
          "internalType": "string",
          "name": "_nftUri",
          "type": "string"
        }
      ],
      "stateMutability": "nonpayable",
      "type": "constructor"
    },
    {
      "anonymous": false,
      "inputs": [
        {
          "indexed": false,
          "internalType": "uint256",
          "name": "id",
          "type": "uint256"
        }
      ],
      "name": "ProposalCanceled",
      "type": "event"
    },
    {
      "anonymous": false,
      "inputs": [
        {
          "indexed": false,
          "internalType": "uint256",
          "name": "id",
          "type": "uint256"
        },
        {
          "indexed": false,
          "internalType": "address",
          "name": "proposer",
          "type": "address"
        },
        {
          "indexed": false,
          "internalType": "address[]",
          "name": "targets",
          "type": "address[]"
        },
        {
          "indexed": false,
          "internalType": "uint256[]",
          "name": "values",
          "type": "uint256[]"
        },
        {
          "indexed": false,
          "internalType": "string[]",
          "name": "signatures",
          "type": "string[]"
        },
        {
          "indexed": false,
          "internalType": "bytes[]",
          "name": "calldatas",
          "type": "bytes[]"
        },
        {
          "indexed": false,
          "internalType": "string",
          "name": "title",
          "type": "string"
        },
        {
          "indexed": false,
          "internalType": "uint256",
          "name": "startBlock",
          "type": "uint256"
        },
        {
          "indexed": false,
          "internalType": "uint256",
          "name": "endBlock",
          "type": "uint256"
        }
      ],
      "name": "ProposalCreated",
      "type": "event"
    },
    {
      "anonymous": false,
      "inputs": [
        {
          "indexed": false,
          "internalType": "uint256",
          "name": "id",
          "type": "uint256"
        }
      ],
      "name": "ProposalExecuted",
      "type": "event"
    },
    {
      "anonymous": false,
      "inputs": [
        {
          "indexed": false,
          "internalType": "uint256",
          "name": "id",
          "type": "uint256"
        },
        {
          "indexed": false,
          "internalType": "uint256",
          "name": "eta",
          "type": "uint256"
        }
      ],
      "name": "ProposalQueued",
      "type": "event"
    },
    {
      "anonymous": false,
      "inputs": [
        {
          "indexed": false,
          "internalType": "address",
          "name": "voter",
          "type": "address"
        },
        {
          "indexed": false,
          "internalType": "uint256",
          "name": "proposalId",
          "type": "uint256"
        },
        {
          "indexed": false,
          "internalType": "bool",
          "name": "support",
          "type": "bool"
        },
        {
          "indexed": false,
          "internalType": "uint256",
          "name": "votes",
          "type": "uint256"
        }
      ],
      "name": "VoteCast",
      "type": "event"
    },
    {
      "inputs": [
        {
          "internalType": "uint96",
          "name": "_tokens",
          "type": "uint96"
        }
      ],
      "name": "addMember",
      "outputs": [],
      "stateMutability": "payable",
      "type": "function"
    },
    {
      "inputs": [
        {
          "internalType": "uint256",
          "name": "_proposalId",
          "type": "uint256"
        }
      ],
      "name": "cancel",
      "outputs": [],
      "stateMutability": "nonpayable",
      "type": "function"
    },
    {
      "inputs": [
        {
          "internalType": "uint256",
          "name": "_proposalId",
          "type": "uint256"
        },
        {
          "internalType": "bool",
          "name": "support",
          "type": "bool"
        }
      ],
      "name": "castVote",
      "outputs": [],
      "stateMutability": "nonpayable",
      "type": "function"
    },
    {
      "inputs": [
        {
          "internalType": "string",
          "name": "_nftUri",
          "type": "string"
        }
      ],
      "name": "claimMemberNft",
      "outputs": [],
      "stateMutability": "nonpayable",
      "type": "function"
    },
    {
      "inputs": [
        {
          "internalType": "uint256",
          "name": "_proposalId",
          "type": "uint256"
        }
      ],
      "name": "execute",
      "outputs": [],
      "stateMutability": "payable",
      "type": "function"
    },
    {
      "inputs": [],
      "name": "guardian",
      "outputs": [
        {
          "internalType": "address",
          "name": "",
          "type": "address"
        }
      ],
      "stateMutability": "view",
      "type": "function"
    },
    {
      "inputs": [
        {
          "internalType": "address",
          "name": "",
          "type": "address"
        }
      ],
      "name": "isMemberAdded",
      "outputs": [
        {
          "internalType": "bool",
          "name": "",
          "type": "bool"
        }
      ],
      "stateMutability": "view",
      "type": "function"
    },
    {
      "inputs": [
        {
          "internalType": "address",
          "name": "",
          "type": "address"
        }
      ],
      "name": "latestProposalIds",
      "outputs": [
        {
          "internalType": "uint256",
          "name": "",
          "type": "uint256"
        }
      ],
      "stateMutability": "view",
      "type": "function"
    },
    {
      "inputs": [
        {
          "internalType": "address",
          "name": "",
          "type": "address"
        }
      ],
      "name": "memberProposals",
      "outputs": [
        {
          "internalType": "uint256",
          "name": "",
          "type": "uint256"
        }
      ],
      "stateMutability": "view",
      "type": "function"
    },
    {
      "inputs": [
        {
          "internalType": "address",
          "name": "",
          "type": "address"
        }
      ],
      "name": "memberVotes",
      "outputs": [
        {
          "internalType": "uint256",
          "name": "",
          "type": "uint256"
        }
      ],
      "stateMutability": "view",
      "type": "function"
    },
    {
      "inputs": [
        {
          "internalType": "address",
          "name": "",
          "type": "address"
        }
      ],
      "name": "memberWithdrawAmount",
      "outputs": [
        {
          "internalType": "uint256",
          "name": "",
          "type": "uint256"
        }
      ],
      "stateMutability": "view",
      "type": "function"
    },
    {
      "inputs": [],
      "name": "name",
      "outputs": [
        {
          "internalType": "string",
          "name": "",
          "type": "string"
        }
      ],
      "stateMutability": "view",
      "type": "function"
    },
    {
      "inputs": [],
      "name": "proposalCount",
      "outputs": [
        {
          "internalType": "uint256",
          "name": "",
          "type": "uint256"
        }
      ],
      "stateMutability": "view",
      "type": "function"
    },
    {
      "inputs": [],
      "name": "proposalMaxOperations",
      "outputs": [
        {
          "internalType": "uint256",
          "name": "",
          "type": "uint256"
        }
      ],
      "stateMutability": "pure",
      "type": "function"
    },
    {
      "inputs": [
        {
          "internalType": "uint256",
          "name": "",
          "type": "uint256"
        },
        {
          "internalType": "address",
          "name": "",
          "type": "address"
        }
      ],
      "name": "proposalReceipts",
      "outputs": [
        {
          "internalType": "bool",
          "name": "hasVoted",
          "type": "bool"
        },
        {
          "internalType": "bool",
          "name": "support",
          "type": "bool"
        },
        {
          "internalType": "uint96",
          "name": "votes",
          "type": "uint96"
        }
      ],
      "stateMutability": "view",
      "type": "function"
    },
    {
      "inputs": [],
      "name": "proposalStake",
      "outputs": [
        {
          "internalType": "uint96",
          "name": "",
          "type": "uint96"
        }
      ],
      "stateMutability": "view",
      "type": "function"
    },
    {
      "inputs": [],
      "name": "proposalThreshold",
      "outputs": [
        {
          "internalType": "uint256",
          "name": "",
          "type": "uint256"
        }
      ],
      "stateMutability": "pure",
      "type": "function"
    },
    {
      "inputs": [
        {
          "internalType": "uint256",
          "name": "",
          "type": "uint256"
        }
      ],
      "name": "proposalToNFTOwner",
      "outputs": [
        {
          "internalType": "address",
          "name": "",
          "type": "address"
        }
      ],
      "stateMutability": "view",
      "type": "function"
    },
    {
      "inputs": [
        {
          "internalType": "uint256",
          "name": "",
          "type": "uint256"
        }
      ],
      "name": "proposals",
      "outputs": [
        {
          "internalType": "uint256",
          "name": "id",
          "type": "uint256"
        },
        {
          "internalType": "uint256",
          "name": "eta",
          "type": "uint256"
        },
        {
          "internalType": "uint256",
          "name": "startBlock",
          "type": "uint256"
        },
        {
          "internalType": "uint256",
          "name": "endBlock",
          "type": "uint256"
        },
        {
          "internalType": "address",
          "name": "creator",
          "type": "address"
        },
        {
          "internalType": "bool",
          "name": "cancel",
          "type": "bool"
        },
        {
          "internalType": "bool",
          "name": "executed",
          "type": "bool"
        }
      ],
      "stateMutability": "view",
      "type": "function"
    },
    {
      "inputs": [
        {
          "internalType": "uint256",
          "name": "",
          "type": "uint256"
        }
      ],
      "name": "proposalsBasicData",
      "outputs": [
        {
          "internalType": "uint256",
          "name": "id",
          "type": "uint256"
        },
        {
          "internalType": "address",
          "name": "creator",
          "type": "address"
        },
        {
          "internalType": "uint256",
          "name": "forVotes",
          "type": "uint256"
        },
        {
          "internalType": "uint256",
          "name": "againstVotes",
          "type": "uint256"
        },
        {
          "internalType": "string",
          "name": "title",
          "type": "string"
        },
        {
          "internalType": "string",
          "name": "description",
          "type": "string"
        },
        {
          "internalType": "string",
          "name": "proposalFile",
          "type": "string"
        },
        {
          "internalType": "string",
          "name": "category",
          "type": "string"
        }
      ],
      "stateMutability": "view",
      "type": "function"
    },
    {
      "inputs": [
        {
          "internalType": "address[]",
          "name": "targets",
          "type": "address[]"
        },
        {
          "internalType": "uint256[]",
          "name": "values",
          "type": "uint256[]"
        },
        {
          "internalType": "string[]",
          "name": "signatures",
          "type": "string[]"
        },
        {
          "internalType": "bytes[]",
          "name": "calldatas",
          "type": "bytes[]"
        },
        {
          "internalType": "string",
          "name": "title",
          "type": "string"
        },
        {
          "internalType": "string",
          "name": "description",
          "type": "string"
        },
        {
          "internalType": "string",
          "name": "proposalFile",
          "type": "string"
        },
        {
          "internalType": "string",
          "name": "category",
          "type": "string"
        }
      ],
      "name": "propose",
      "outputs": [
        {
          "internalType": "uint256",
          "name": "",
          "type": "uint256"
        }
      ],
      "stateMutability": "payable",
      "type": "function"
    },
    {
      "inputs": [
        {
          "internalType": "uint256",
          "name": "_proposalId",
          "type": "uint256"
        }
      ],
      "name": "queue",
      "outputs": [],
      "stateMutability": "nonpayable",
      "type": "function"
    },
    {
      "inputs": [],
      "name": "quorumVotes",
      "outputs": [
        {
          "internalType": "uint256",
          "name": "",
          "type": "uint256"
        }
      ],
      "stateMutability": "pure",
      "type": "function"
    },
    {
      "inputs": [
        {
          "internalType": "address",
          "name": "",
          "type": "address"
        }
      ],
      "name": "receivedMemberNFT",
      "outputs": [
        {
          "internalType": "bool",
          "name": "",
          "type": "bool"
        }
      ],
      "stateMutability": "view",
      "type": "function"
    },
    {
      "inputs": [
        {
          "internalType": "uint256",
          "name": "_proposalId",
          "type": "uint256"
        }
      ],
      "name": "state",
      "outputs": [
        {
          "internalType": "enum Samhita.ProposalState",
          "name": "",
          "type": "uint8"
        }
      ],
      "stateMutability": "view",
      "type": "function"
    },
    {
      "inputs": [],
      "name": "templateNFT",
      "outputs": [
        {
          "internalType": "contract ITemplateNFT",
          "name": "",
          "type": "address"
        }
      ],
      "stateMutability": "view",
      "type": "function"
    },
    {
      "inputs": [],
      "name": "timelock",
      "outputs": [
        {
          "internalType": "contract ITimelock",
          "name": "",
          "type": "address"
        }
      ],
      "stateMutability": "view",
      "type": "function"
    },
    {
      "inputs": [],
      "name": "token",
      "outputs": [
        {
          "internalType": "contract ISamhitaToken",
          "name": "",
          "type": "address"
        }
      ],
      "stateMutability": "view",
      "type": "function"
    },
    {
      "inputs": [],
      "name": "votingDelay",
      "outputs": [
        {
          "internalType": "uint256",
          "name": "",
          "type": "uint256"
        }
      ],
      "stateMutability": "pure",
      "type": "function"
    },
    {
      "inputs": [],
      "name": "votingPeriod",
      "outputs": [
        {
          "internalType": "uint256",
          "name": "",
          "type": "uint256"
        }
      ],
      "stateMutability": "pure",
      "type": "function"
    }
  ],
  "bytecode": "0x6080604052674563918244f40000601060006101000a8154816bffffffffffffffffffffffff02191690836bffffffffffffffffffffffff160217905550600a6010600c6101000a8154816bffffffffffffffffffffffff02191690836bffffffffffffffffffffffff1602179055503480156200007c57600080fd5b50604051620062bc380380620062bc8339818101604052810190620000a291906200043a565b836000806101000a81548173ffffffffffffffffffffffffffffffffffffffff021916908373ffffffffffffffffffffffffffffffffffffffff16021790555082600160006101000a81548173ffffffffffffffffffffffffffffffffffffffff021916908373ffffffffffffffffffffffffffffffffffffffff16021790555081600260006101000a81548173ffffffffffffffffffffffffffffffffffffffff021916908373ffffffffffffffffffffffffffffffffffffffff16021790555033600460006101000a81548173ffffffffffffffffffffffffffffffffffffffff021916908373ffffffffffffffffffffffffffffffffffffffff160217905550600260009054906101000a900473ffffffffffffffffffffffffffffffffffffffff1673ffffffffffffffffffffffffffffffffffffffff16638c85826633836040518363ffffffff1660e01b81526004016200020492919062000539565b600060405180830381600087803b1580156200021f57600080fd5b505af115801562000234573d6000803e3d6000fd5b50505050505050506200056d565b6000604051905090565b600080fd5b600080fd5b600073ffffffffffffffffffffffffffffffffffffffff82169050919050565b6000620002838262000256565b9050919050565b620002958162000276565b8114620002a157600080fd5b50565b600081519050620002b5816200028a565b92915050565b600080fd5b600080fd5b6000601f19601f8301169050919050565b7f4e487b7100000000000000000000000000000000000000000000000000000000600052604160045260246000fd5b6200031082620002c5565b810181811067ffffffffffffffff82111715620003325762000331620002d6565b5b80604052505050565b60006200034762000242565b905062000355828262000305565b919050565b600067ffffffffffffffff821115620003785762000377620002d6565b5b6200038382620002c5565b9050602081019050919050565b60005b83811015620003b057808201518184015260208101905062000393565b60008484015250505050565b6000620003d3620003cd846200035a565b6200033b565b905082815260208101848484011115620003f257620003f1620002c0565b5b620003ff84828562000390565b509392505050565b600082601f8301126200041f576200041e620002bb565b5b815162000431848260208601620003bc565b91505092915050565b600080600080608085870312156200045757620004566200024c565b5b60006200046787828801620002a4565b94505060206200047a87828801620002a4565b93505060406200048d87828801620002a4565b925050606085015167ffffffffffffffff811115620004b157620004b062000251565b5b620004bf8782880162000407565b91505092959194509250565b620004d68162000276565b82525050565b600081519050919050565b600082825260208201905092915050565b60006200050582620004dc565b620005118185620004e7565b93506200052381856020860162000390565b6200052e81620002c5565b840191505092915050565b6000604082019050620005506000830185620004cb565b8181036020830152620005648184620004f8565b90509392505050565b615d3f806200057d6000396000f3fe6080604052600436106101cd5760003560e01c80636ef6c66d116100f7578063d33219b411610095578063e8b1eba911610064578063e8b1eba9146106d5578063f646a92c14610705578063fc0c546a14610749578063fe0d94c114610774576101cd565b8063d33219b414610619578063da35c66414610644578063ddf0b0091461066f578063de0b27e514610698576101cd565b8063b58131b0116100d1578063b58131b014610558578063c377a0c514610583578063c3c79d85146105c0578063cd887176146105dc576101cd565b80636ef6c66d146104d75780637bdbe4d01461050257806388fde90a1461052d576101cd565b8063392317cd1161016f578063452a93201161013e578063452a9320146104075780634a7fdf2d146104325780634a9f914e1461045b5780636617674314610498576101cd565b8063392317cd146103395780633932abb1146103765780633e4f49e6146103a157806340e58ee5146103de576101cd565b806308006a15116101ab57806308006a151461026b57806315373e3d146102a857806317977c61146102d157806324bc1a641461030e576101cd565b8063013cf08b146101d257806302a251a31461021557806306fdde0314610240575b600080fd5b3480156101de57600080fd5b506101f960048036038101906101f4919061352c565b610790565b60405161020c97969594939291906135c4565b60405180910390f35b34801561022157600080fd5b5061022a61080c565b6040516102379190613633565b60405180910390f35b34801561024c57600080fd5b50610255610815565b60405161026291906136de565b60405180910390f35b34801561027757600080fd5b50610292600480360381019061028d919061372c565b61084e565b60405161029f9190613633565b60405180910390f35b3480156102b457600080fd5b506102cf60048036038101906102ca9190613785565b610866565b005b3480156102dd57600080fd5b506102f860048036038101906102f3919061372c565b610875565b6040516103059190613633565b60405180910390f35b34801561031a57600080fd5b5061032361088d565b6040516103309190613633565b60405180910390f35b34801561034557600080fd5b50610360600480360381019061035b919061372c565b610896565b60405161036d9190613633565b60405180910390f35b34801561038257600080fd5b5061038b6108ae565b6040516103989190613633565b60405180910390f35b3480156103ad57600080fd5b506103c860048036038101906103c3919061352c565b6108b7565b6040516103d5919061383c565b60405180910390f35b3480156103ea57600080fd5b506104056004803603810190610400919061352c565b610ac0565b005b34801561041357600080fd5b5061041c610e72565b6040516104299190613857565b60405180910390f35b34801561043e57600080fd5b50610459600480360381019061045491906139a7565b610e98565b005b34801561046757600080fd5b50610482600480360381019061047d919061372c565b611071565b60405161048f9190613633565b60405180910390f35b3480156104a457600080fd5b506104bf60048036038101906104ba91906139f0565b611089565b6040516104ce93929190613a57565b60405180910390f35b3480156104e357600080fd5b506104ec6110f2565b6040516104f99190613a8e565b60405180910390f35b34801561050e57600080fd5b50610517611110565b6040516105249190613633565b60405180910390f35b34801561053957600080fd5b50610542611119565b60405161054f9190613b08565b60405180910390f35b34801561056457600080fd5b5061056d61113f565b60405161057a9190613633565b60405180910390f35b34801561058f57600080fd5b506105aa60048036038101906105a5919061372c565b611148565b6040516105b79190613b23565b60405180910390f35b6105da60048036038101906105d59190613b6a565b611168565b005b3480156105e857600080fd5b5061060360048036038101906105fe919061352c565b611569565b6040516106109190613857565b60405180910390f35b34801561062557600080fd5b5061062e61159c565b60405161063b9190613bb8565b60405180910390f35b34801561065057600080fd5b506106596115c0565b6040516106669190613633565b60405180910390f35b34801561067b57600080fd5b506106966004803603810190610691919061352c565b6115c6565b005b3480156106a457600080fd5b506106bf60048036038101906106ba919061372c565b611bd0565b6040516106cc9190613b23565b60405180910390f35b6106ef60048036038101906106ea9190613fc1565b611bf0565b6040516106fc9190613633565b60405180910390f35b34801561071157600080fd5b5061072c6004803603810190610727919061352c565b61240a565b604051610740989796959493929190614157565b60405180910390f35b34801561075557600080fd5b5061075e612692565b60405161076b9190614212565b60405180910390f35b61078e6004803603810190610789919061352c565b6126b8565b005b60066020528060005260406000206000915090508060000154908060010154908060020154908060030154908060040160009054906101000a900473ffffffffffffffffffffffffffffffffffffffff16908060090160009054906101000a900460ff16908060090160019054906101000a900460ff16905087565b60006028905090565b6040518060400160405280600781526020017f53616d686974610000000000000000000000000000000000000000000000000081525081565b600d6020528060005260406000206000915090505481565b6108713383836129e4565b5050565b60086020528060005260406000206000915090505481565b60006028905090565b60096020528060005260406000206000915090505481565b60006001905090565b600081600354101580156108cb5750600082115b61090a576040517f08c379a000000000000000000000000000000000000000000000000000000000815260040161090190614279565b60405180910390fd5b60006006600084815260200190815260200160002090508060090160009054906101000a900460ff1615610942576002915050610abb565b80600201544311610957576000915050610abb565b8060030154431161096c576001915050610abb565b600760008481526020019081526020016000206003015460076000858152602001908152602001600020600201541115806109c357506109aa61088d565b6007600085815260200190815260200160002060020154105b156109d2576003915050610abb565b60008160010154036109e8576004915050610abb565b8060090160019054906101000a900460ff1615610a09576007915050610abb565b610aa5816001015460008054906101000a900473ffffffffffffffffffffffffffffffffffffffff1673ffffffffffffffffffffffffffffffffffffffff1663c1a287e26040518163ffffffff1660e01b8152600401602060405180830381865afa158015610a7c573d6000803e3d6000fd5b505050506040513d601f19601f82011682018060405250810190610aa091906142ae565b612d60565b4210610ab5576006915050610abb565b60059150505b919050565b600780811115610ad357610ad26137c5565b5b610adc826108b7565b6007811115610aee57610aed6137c5565b5b03610b2e576040517f08c379a0000000000000000000000000000000000000000000000000000000008152600401610b2590614327565b60405180910390fd5b6000600660008381526020019081526020016000209050600460009054906101000a900473ffffffffffffffffffffffffffffffffffffffff1673ffffffffffffffffffffffffffffffffffffffff163373ffffffffffffffffffffffffffffffffffffffff161480610c805750610ba461113f565b600160009054906101000a900473ffffffffffffffffffffffffffffffffffffffff1673ffffffffffffffffffffffffffffffffffffffff1663782d6fe18360040160009054906101000a900473ffffffffffffffffffffffffffffffffffffffff16610c12436001612dbe565b6040518363ffffffff1660e01b8152600401610c2f929190614347565b602060405180830381865afa158015610c4c573d6000803e3d6000fd5b505050506040513d601f19601f82011682018060405250810190610c709190614385565b6bffffffffffffffffffffffff16105b610cbf576040517f08c379a0000000000000000000000000000000000000000000000000000000008152600401610cb6906143fe565b60405180910390fd5b60018160090160006101000a81548160ff02191690831515021790555060005b8160050180549050811015610e365760008054906101000a900473ffffffffffffffffffffffffffffffffffffffff1673ffffffffffffffffffffffffffffffffffffffff1663591fcdfe836005018381548110610d4057610d3f61441e565b5b9060005260206000200160009054906101000a900473ffffffffffffffffffffffffffffffffffffffff16846006018481548110610d8157610d8061441e565b5b9060005260206000200154856007018581548110610da257610da161441e565b5b90600052602060002001866008018681548110610dc257610dc161441e565b5b9060005260206000200187600101546040518663ffffffff1660e01b8152600401610df19594939291906145f0565b600060405180830381600087803b158015610e0b57600080fd5b505af1158015610e1f573d6000803e3d6000fd5b505050508080610e2e90614680565b915050610cdf565b507f789cf55be980739dad1d0699b93b58e806b51c9d96619bfa8fe0a28abaa7b30c82604051610e669190613633565b60405180910390a15050565b600460009054906101000a900473ffffffffffffffffffffffffffffffffffffffff1681565b60001515600b60003373ffffffffffffffffffffffffffffffffffffffff1673ffffffffffffffffffffffffffffffffffffffff16815260200190815260200160002060009054906101000a900460ff1615150361106e576002600d60003373ffffffffffffffffffffffffffffffffffffffff1673ffffffffffffffffffffffffffffffffffffffff1681526020019081526020016000205410158015610f8057506005600c60003373ffffffffffffffffffffffffffffffffffffffff1673ffffffffffffffffffffffffffffffffffffffff1681526020019081526020016000205410155b1561106d57600260009054906101000a900473ffffffffffffffffffffffffffffffffffffffff1673ffffffffffffffffffffffffffffffffffffffff1663858f1e9233836040518363ffffffff1660e01b8152600401610fe29291906146c8565b600060405180830381600087803b158015610ffc57600080fd5b505af1158015611010573d6000803e3d6000fd5b505050506001600b60003373ffffffffffffffffffffffffffffffffffffffff1673ffffffffffffffffffffffffffffffffffffffff16815260200190815260200160002060006101000a81548160ff0219169083151502179055505b5b50565b600c6020528060005260406000206000915090505481565b6005602052816000526040600020602052806000526040600020600091509150508060000160009054906101000a900460ff16908060000160019054906101000a900460ff16908060000160029054906101000a90046bffffffffffffffffffffffff16905083565b601060009054906101000a90046bffffffffffffffffffffffff1681565b6000600a905090565b600260009054906101000a900473ffffffffffffffffffffffffffffffffffffffff1681565b6000600a905090565b600b6020528060005260406000206000915054906101000a900460ff1681565b6010600c9054906101000a90046bffffffffffffffffffffffff166bffffffffffffffffffffffff16816bffffffffffffffffffffffff1610156111e1576040517f08c379a00000000000000000000000000000000000000000000000000000000081526004016111d89061476a565b60405180910390fd5b600160009054906101000a900473ffffffffffffffffffffffffffffffffffffffff1673ffffffffffffffffffffffffffffffffffffffff16634b94f50e6040518163ffffffff1660e01b8152600401602060405180830381865afa15801561124e573d6000803e3d6000fd5b505050506040513d601f19601f8201168201806040525081019061127291906142ae565b816bffffffffffffffffffffffff1661128b919061478a565b34146112cc576040517f08c379a00000000000000000000000000000000000000000000000000000000081526004016112c390614818565b60405180910390fd5b806bffffffffffffffffffffffff16600160009054906101000a900473ffffffffffffffffffffffffffffffffffffffff1673ffffffffffffffffffffffffffffffffffffffff166370a08231306040518263ffffffff1660e01b81526004016113369190613857565b602060405180830381865afa158015611353573d6000803e3d6000fd5b505050506040513d601f19601f8201168201806040525081019061137791906142ae565b10156113b8576040517f08c379a00000000000000000000000000000000000000000000000000000000081526004016113af906148aa565b60405180910390fd5b600f60003373ffffffffffffffffffffffffffffffffffffffff1673ffffffffffffffffffffffffffffffffffffffff16815260200190815260200160002060009054906101000a900460ff166114c557600e339080600181540180825580915050600190039060005260206000200160009091909190916101000a81548173ffffffffffffffffffffffffffffffffffffffff021916908373ffffffffffffffffffffffffffffffffffffffff1602179055506001600f60003373ffffffffffffffffffffffffffffffffffffffff1673ffffffffffffffffffffffffffffffffffffffff16815260200190815260200160002060006101000a81548160ff0219169083151502179055505b600160009054906101000a900473ffffffffffffffffffffffffffffffffffffffff1673ffffffffffffffffffffffffffffffffffffffff1663a9059cbb33836040518363ffffffff1660e01b81526004016115229291906148fb565b6020604051808303816000875af1158015611541573d6000803e3d6000fd5b505050506040513d601f19601f820116820180604052508101906115659190614939565b5050565b600a6020528060005260406000206000915054906101000a900473ffffffffffffffffffffffffffffffffffffffff1681565b60008054906101000a900473ffffffffffffffffffffffffffffffffffffffff1681565b60035481565b600460078111156115da576115d96137c5565b5b6115e3826108b7565b60078111156115f5576115f46137c5565b5b14611635576040517f08c379a000000000000000000000000000000000000000000000000000000000815260040161162c906149d8565b60405180910390fd5b6116746006600083815260200190815260200160002060040160009054906101000a900473ffffffffffffffffffffffffffffffffffffffff16612e17565b601060009054906101000a90046bffffffffffffffffffffffff166bffffffffffffffffffffffff16600960006006600085815260200190815260200160002060040160009054906101000a900473ffffffffffffffffffffffffffffffffffffffff1673ffffffffffffffffffffffffffffffffffffffff1673ffffffffffffffffffffffffffffffffffffffff168152602001908152602001600020600082825461172191906149f8565b925050819055506006600082815260200190815260200160002060040160009054906101000a900473ffffffffffffffffffffffffffffffffffffffff16600a600083815260200190815260200160002060006101000a81548173ffffffffffffffffffffffffffffffffffffffff021916908373ffffffffffffffffffffffffffffffffffffffff160217905550600060066000838152602001908152602001600020905060006118614260008054906101000a900473ffffffffffffffffffffffffffffffffffffffff1673ffffffffffffffffffffffffffffffffffffffff16636a42b8f86040518163ffffffff1660e01b8152600401602060405180830381865afa158015611838573d6000803e3d6000fd5b505050506040513d601f19601f8201168201806040525081019061185c91906142ae565b612d60565b905060005b8260050180549050811015611a4557611a3283600501828154811061188e5761188d61441e565b5b9060005260206000200160009054906101000a900473ffffffffffffffffffffffffffffffffffffffff168460060183815481106118cf576118ce61441e565b5b90600052602060002001548560070184815481106118f0576118ef61441e565b5b9060005260206000200180546119059061447c565b80601f01602080910402602001604051908101604052809291908181526020018280546119319061447c565b801561197e5780601f106119535761010080835404028352916020019161197e565b820191906000526020600020905b81548152906001019060200180831161196157829003601f168201915b50505050508660080185815481106119995761199861441e565b5b9060005260206000200180546119ae9061447c565b80601f01602080910402602001604051908101604052809291908181526020018280546119da9061447c565b8015611a275780601f106119fc57610100808354040283529160200191611a27565b820191906000526020600020905b815481529060010190602001808311611a0a57829003601f168201915b505050505086612eb0565b8080611a3d90614680565b915050611866565b50808260010181905550604051602001611a5e90614a83565b6040516020818303038152906040528051906020012060076000858152602001908152602001600020600701604051602001611a9a9190614b1b565b6040516020818303038152906040528051906020012003611b9257600260009054906101000a900473ffffffffffffffffffffffffffffffffffffffff1673ffffffffffffffffffffffffffffffffffffffff1663b971043b6006600086815260200190815260200160002060040160009054906101000a900473ffffffffffffffffffffffffffffffffffffffff1660076000878152602001908152602001600020600601866040518463ffffffff1660e01b8152600401611b5f93929190614b32565b600060405180830381600087803b158015611b7957600080fd5b505af1158015611b8d573d6000803e3d6000fd5b505050505b7f9a2e42fd6722813d69113e7d0079d3d940171428df7373df9c7f7617cfda28928382604051611bc3929190614b70565b60405180910390a1505050565b600f6020528060005260406000206000915054906101000a900460ff1681565b6000600f60003373ffffffffffffffffffffffffffffffffffffffff1673ffffffffffffffffffffffffffffffffffffffff16815260200190815260200160002060009054906101000a900460ff16611c7e576040517f08c379a0000000000000000000000000000000000000000000000000000000008152600401611c7590614c0b565b60405180910390fd5b601060009054906101000a90046bffffffffffffffffffffffff166bffffffffffffffffffffffff163414611ce8576040517f08c379a0000000000000000000000000000000000000000000000000000000008152600401611cdf90614c9d565b60405180910390fd5b611cf061113f565b600160009054906101000a900473ffffffffffffffffffffffffffffffffffffffff1673ffffffffffffffffffffffffffffffffffffffff1663782d6fe133611d3a436001612dbe565b6040518363ffffffff1660e01b8152600401611d57929190614347565b602060405180830381865afa158015611d74573d6000803e3d6000fd5b505050506040513d601f19601f82011682018060405250810190611d989190614385565b6bffffffffffffffffffffffff1611611de6576040517f08c379a0000000000000000000000000000000000000000000000000000000008152600401611ddd90614d2f565b60405180910390fd5b87518951148015611df8575086518951145b8015611e05575085518951145b611e44576040517f08c379a0000000000000000000000000000000000000000000000000000000008152600401611e3b90614dc1565b60405180910390fd5b6000895103611e88576040517f08c379a0000000000000000000000000000000000000000000000000000000008152600401611e7f90614e2d565b60405180910390fd5b611e90611110565b89511115611ed3576040517f08c379a0000000000000000000000000000000000000000000000000000000008152600401611eca90614e99565b60405180910390fd5b6000600860003373ffffffffffffffffffffffffffffffffffffffff1673ffffffffffffffffffffffffffffffffffffffff16815260200190815260200160002054905060008114611ffc576000611f2a826108b7565b905060016007811115611f4057611f3f6137c5565b5b816007811115611f5357611f526137c5565b5b03611f93576040517f08c379a0000000000000000000000000000000000000000000000000000000008152600401611f8a90614f05565b60405180910390fd5b60006007811115611fa757611fa66137c5565b5b816007811115611fba57611fb96137c5565b5b03611ffa576040517f08c379a0000000000000000000000000000000000000000000000000000000008152600401611ff190614f97565b60405180910390fd5b505b600061200f4361200a6108ae565b612d60565b905060006120248261201f61080c565b612d60565b90506003600081548092919061203990614680565b91905055506040518061016001604052806003548152602001600081526020018381526020018281526020013373ffffffffffffffffffffffffffffffffffffffff1681526020018d81526020018c81526020018b81526020018a8152602001600015158152602001600015158152506006600060035481526020019081526020016000206000820151816000015560208201518160010155604082015181600201556060820151816003015560808201518160040160006101000a81548173ffffffffffffffffffffffffffffffffffffffff021916908373ffffffffffffffffffffffffffffffffffffffff16021790555060a082015181600501908051906020019061214992919061326a565b5060c08201518160060190805190602001906121669291906132f4565b5060e0820151816007019080519060200190612183929190613341565b506101008201518160080190805190602001906121a192919061339a565b506101208201518160090160006101000a81548160ff0219169083151502179055506101408201518160090160016101000a81548160ff02191690831515021790555090505060405180610100016040528060035481526020013373ffffffffffffffffffffffffffffffffffffffff1681526020016000815260200160008152602001898152602001888152602001878152602001868152506007600060035481526020019081526020016000206000820151816000015560208201518160010160006101000a81548173ffffffffffffffffffffffffffffffffffffffff021916908373ffffffffffffffffffffffffffffffffffffffff160217905550604082015181600201556060820151816003015560808201518160040190816122ca9190615144565b5060a08201518160050190816122e09190615144565b5060c08201518160060190816122f69190615144565b5060e082015181600701908161230c9190615144565b50905050600354600860003373ffffffffffffffffffffffffffffffffffffffff1673ffffffffffffffffffffffffffffffffffffffff168152602001908152602001600020819055506001600d60003373ffffffffffffffffffffffffffffffffffffffff1673ffffffffffffffffffffffffffffffffffffffff16815260200190815260200160002060008282546123a691906149f8565b925050819055507f9c2b0d68f5edfd1bf6158a1867aced894efcfcf77c7a7603cb571e18ce89ae76600354338e8e8e8e8e89896040516123ee999897969594939291906155b5565b60405180910390a1600354935050505098975050505050505050565b60076020528060005260406000206000915090508060000154908060010160009054906101000a900473ffffffffffffffffffffffffffffffffffffffff16908060020154908060030154908060040180546124659061447c565b80601f01602080910402602001604051908101604052809291908181526020018280546124919061447c565b80156124de5780601f106124b3576101008083540402835291602001916124de565b820191906000526020600020905b8154815290600101906020018083116124c157829003601f168201915b5050505050908060050180546124f39061447c565b80601f016020809104026020016040519081016040528092919081815260200182805461251f9061447c565b801561256c5780601f106125415761010080835404028352916020019161256c565b820191906000526020600020905b81548152906001019060200180831161254f57829003601f168201915b5050505050908060060180546125819061447c565b80601f01602080910402602001604051908101604052809291908181526020018280546125ad9061447c565b80156125fa5780601f106125cf576101008083540402835291602001916125fa565b820191906000526020600020905b8154815290600101906020018083116125dd57829003601f168201915b50505050509080600701805461260f9061447c565b80601f016020809104026020016040519081016040528092919081815260200182805461263b9061447c565b80156126885780601f1061265d57610100808354040283529160200191612688565b820191906000526020600020905b81548152906001019060200180831161266b57829003601f168201915b5050505050905088565b600160009054906101000a900473ffffffffffffffffffffffffffffffffffffffff1681565b600560078111156126cc576126cb6137c5565b5b6126d5826108b7565b60078111156126e7576126e66137c5565b5b14612727576040517f08c379a000000000000000000000000000000000000000000000000000000000815260040161271e906156d7565b60405180910390fd5b6127666040518060400160405280600a81526020017f696e20636f6e74723a2000000000000000000000000000000000000000000000815250826130ef565b600060066000838152602001908152602001600020905060018160090160016101000a81548160ff02191690831515021790555060005b816005018054905081101561296a576127ea6040518060400160405280600781526020017f696e206c6f6f700000000000000000000000000000000000000000000000000081525061318b565b60008054906101000a900473ffffffffffffffffffffffffffffffffffffffff1673ffffffffffffffffffffffffffffffffffffffff16630825f38f83600601838154811061283c5761283b61441e565b5b906000526020600020015484600501848154811061285d5761285c61441e565b5b9060005260206000200160009054906101000a900473ffffffffffffffffffffffffffffffffffffffff1685600601858154811061289e5761289d61441e565b5b90600052602060002001548660070186815481106128bf576128be61441e565b5b906000526020600020018760080187815481106128df576128de61441e565b5b9060005260206000200188600101546040518763ffffffff1660e01b815260040161290e9594939291906145f0565b60006040518083038185885af115801561292c573d6000803e3d6000fd5b50505050506040513d6000823e3d601f19601f820116820180604052508101906129569190615767565b50808061296290614680565b91505061279d565b506129a96040518060400160405280600581526020017f4020656e6400000000000000000000000000000000000000000000000000000081525061318b565b7f712ae1383f79ac853f8d882153778e0260ef8f03b504e2866e0593e04d2b291f826040516129d89190613633565b60405180910390a15050565b600160078111156129f8576129f76137c5565b5b612a01836108b7565b6007811115612a1357612a126137c5565b5b14612a53576040517f08c379a0000000000000000000000000000000000000000000000000000000008152600401612a4a906157fc565b60405180910390fd5b600060066000848152602001908152602001600020905060006005600085815260200190815260200160002060008673ffffffffffffffffffffffffffffffffffffffff1673ffffffffffffffffffffffffffffffffffffffff1681526020019081526020016000209050600015158160000160009054906101000a900460ff16151514612b16576040517f08c379a0000000000000000000000000000000000000000000000000000000008152600401612b0d90615868565b60405180910390fd5b6000600160009054906101000a900473ffffffffffffffffffffffffffffffffffffffff1673ffffffffffffffffffffffffffffffffffffffff1663782d6fe18785600201546040518363ffffffff1660e01b8152600401612b79929190614347565b602060405180830381865afa158015612b96573d6000803e3d6000fd5b505050506040513d601f19601f82011682018060405250810190612bba9190614385565b90508315612c0f57612bf06007600087815260200190815260200160002060020154826bffffffffffffffffffffffff16612d60565b6007600087815260200190815260200160002060020181905550612c58565b612c3d6007600087815260200190815260200160002060030154826bffffffffffffffffffffffff16612d60565b60076000878152602001908152602001600020600301819055505b60018260000160006101000a81548160ff021916908315150217905550838260000160016101000a81548160ff021916908315150217905550808260000160026101000a8154816bffffffffffffffffffffffff02191690836bffffffffffffffffffffffff1602179055506001600c60003373ffffffffffffffffffffffffffffffffffffffff1673ffffffffffffffffffffffffffffffffffffffff1681526020019081526020016000206000828254612d1491906149f8565b925050819055507f877856338e13f63d0c36822ff0ef736b80934cd90574a3a5bc9262c39d217c4686868684604051612d509493929190615888565b60405180910390a1505050505050565b6000808284612d6f91906149f8565b905083811015612db4576040517f08c379a0000000000000000000000000000000000000000000000000000000008152600401612dab90615919565b60405180910390fd5b8091505092915050565b600082821115612e03576040517f08c379a0000000000000000000000000000000000000000000000000000000008152600401612dfa90615985565b60405180910390fd5b8183612e0f91906159a5565b905092915050565b612ead81604051602401612e2b9190613857565b6040516020818303038152906040527f2c2ecbc2000000000000000000000000000000000000000000000000000000007bffffffffffffffffffffffffffffffffffffffffffffffffffffffff19166020820180517bffffffffffffffffffffffffffffffffffffffffffffffffffffffff8381831617835250505050613224565b50565b60008054906101000a900473ffffffffffffffffffffffffffffffffffffffff1673ffffffffffffffffffffffffffffffffffffffff1663f2b065378686868686604051602001612f05959493929190615a12565b604051602081830303815290604052805190602001206040518263ffffffff1660e01b8152600401612f379190615a8c565b602060405180830381865afa158015612f54573d6000803e3d6000fd5b505050506040513d601f19601f82011682018060405250810190612f789190614939565b15612fb8576040517f08c379a0000000000000000000000000000000000000000000000000000000008152600401612faf90615b19565b60405180910390fd5b60008054906101000a900473ffffffffffffffffffffffffffffffffffffffff1673ffffffffffffffffffffffffffffffffffffffff1663abc203bd336040518263ffffffff1660e01b81526004016130119190613857565b600060405180830381600087803b15801561302b57600080fd5b505af115801561303f573d6000803e3d6000fd5b5050505060008054906101000a900473ffffffffffffffffffffffffffffffffffffffff1673ffffffffffffffffffffffffffffffffffffffff16633a66f90186868686866040518663ffffffff1660e01b81526004016130a4959493929190615a12565b6020604051808303816000875af11580156130c3573d6000803e3d6000fd5b505050506040513d601f19601f820116820180604052508101906130e79190615b65565b505050505050565b6131878282604051602401613105929190615b92565b6040516020818303038152906040527fb60e72cc000000000000000000000000000000000000000000000000000000007bffffffffffffffffffffffffffffffffffffffffffffffffffffffff19166020820180517bffffffffffffffffffffffffffffffffffffffffffffffffffffffff8381831617835250505050613224565b5050565b6132218160405160240161319f91906136de565b6040516020818303038152906040527f41304fac000000000000000000000000000000000000000000000000000000007bffffffffffffffffffffffffffffffffffffffffffffffffffffffff19166020820180517bffffffffffffffffffffffffffffffffffffffffffffffffffffffff8381831617835250505050613224565b50565b61323b8161323361323e61325f565b63ffffffff16565b50565b60006a636f6e736f6c652e6c6f679050600080835160208501845afa505050565b6133f3819050919050565b8280548282559060005260206000209081019282156132e3579160200282015b828111156132e25782518260006101000a81548173ffffffffffffffffffffffffffffffffffffffff021916908373ffffffffffffffffffffffffffffffffffffffff1602179055509160200191906001019061328a565b5b5090506132f091906133fd565b5090565b828054828255906000526020600020908101928215613330579160200282015b8281111561332f578251825591602001919060010190613314565b5b50905061333d91906133fd565b5090565b828054828255906000526020600020908101928215613389579160200282015b828111156133885782518290816133789190615144565b5091602001919060010190613361565b5b509050613396919061341a565b5090565b8280548282559060005260206000209081019282156133e2579160200282015b828111156133e15782518290816133d19190615c08565b50916020019190600101906133ba565b5b5090506133ef919061343e565b5090565b6133fb615cda565b565b5b808211156134165760008160009055506001016133fe565b5090565b5b8082111561343a57600081816134319190613462565b5060010161341b565b5090565b5b8082111561345e576000818161345591906134a2565b5060010161343f565b5090565b50805461346e9061447c565b6000825580601f10613480575061349f565b601f01602090049060005260206000209081019061349e91906133fd565b5b50565b5080546134ae9061447c565b6000825580601f106134c057506134df565b601f0160209004906000526020600020908101906134de91906133fd565b5b50565b6000604051905090565b600080fd5b600080fd5b6000819050919050565b613509816134f6565b811461351457600080fd5b50565b60008135905061352681613500565b92915050565b600060208284031215613542576135416134ec565b5b600061355084828501613517565b91505092915050565b613562816134f6565b82525050565b600073ffffffffffffffffffffffffffffffffffffffff82169050919050565b600061359382613568565b9050919050565b6135a381613588565b82525050565b60008115159050919050565b6135be816135a9565b82525050565b600060e0820190506135d9600083018a613559565b6135e66020830189613559565b6135f36040830188613559565b6136006060830187613559565b61360d608083018661359a565b61361a60a08301856135b5565b61362760c08301846135b5565b98975050505050505050565b60006020820190506136486000830184613559565b92915050565b600081519050919050565b600082825260208201905092915050565b60005b8381101561368857808201518184015260208101905061366d565b60008484015250505050565b6000601f19601f8301169050919050565b60006136b08261364e565b6136ba8185613659565b93506136ca81856020860161366a565b6136d381613694565b840191505092915050565b600060208201905081810360008301526136f881846136a5565b905092915050565b61370981613588565b811461371457600080fd5b50565b60008135905061372681613700565b92915050565b600060208284031215613742576137416134ec565b5b600061375084828501613717565b91505092915050565b613762816135a9565b811461376d57600080fd5b50565b60008135905061377f81613759565b92915050565b6000806040838503121561379c5761379b6134ec565b5b60006137aa85828601613517565b92505060206137bb85828601613770565b9150509250929050565b7f4e487b7100000000000000000000000000000000000000000000000000000000600052602160045260246000fd5b60088110613805576138046137c5565b5b50565b6000819050613816826137f4565b919050565b600061382682613808565b9050919050565b6138368161381b565b82525050565b6000602082019050613851600083018461382d565b92915050565b600060208201905061386c600083018461359a565b92915050565b600080fd5b600080fd5b7f4e487b7100000000000000000000000000000000000000000000000000000000600052604160045260246000fd5b6138b482613694565b810181811067ffffffffffffffff821117156138d3576138d261387c565b5b80604052505050565b60006138e66134e2565b90506138f282826138ab565b919050565b600067ffffffffffffffff8211156139125761391161387c565b5b61391b82613694565b9050602081019050919050565b82818337600083830152505050565b600061394a613945846138f7565b6138dc565b90508281526020810184848401111561396657613965613877565b5b613971848285613928565b509392505050565b600082601f83011261398e5761398d613872565b5b813561399e848260208601613937565b91505092915050565b6000602082840312156139bd576139bc6134ec565b5b600082013567ffffffffffffffff8111156139db576139da6134f1565b5b6139e784828501613979565b91505092915050565b60008060408385031215613a0757613a066134ec565b5b6000613a1585828601613517565b9250506020613a2685828601613717565b9150509250929050565b60006bffffffffffffffffffffffff82169050919050565b613a5181613a30565b82525050565b6000606082019050613a6c60008301866135b5565b613a7960208301856135b5565b613a866040830184613a48565b949350505050565b6000602082019050613aa36000830184613a48565b92915050565b6000819050919050565b6000613ace613ac9613ac484613568565b613aa9565b613568565b9050919050565b6000613ae082613ab3565b9050919050565b6000613af282613ad5565b9050919050565b613b0281613ae7565b82525050565b6000602082019050613b1d6000830184613af9565b92915050565b6000602082019050613b3860008301846135b5565b92915050565b613b4781613a30565b8114613b5257600080fd5b50565b600081359050613b6481613b3e565b92915050565b600060208284031215613b8057613b7f6134ec565b5b6000613b8e84828501613b55565b91505092915050565b6000613ba282613ad5565b9050919050565b613bb281613b97565b82525050565b6000602082019050613bcd6000830184613ba9565b92915050565b600067ffffffffffffffff821115613bee57613bed61387c565b5b602082029050602081019050919050565b600080fd5b6000613c17613c1284613bd3565b6138dc565b90508083825260208201905060208402830185811115613c3a57613c39613bff565b5b835b81811015613c635780613c4f8882613717565b845260208401935050602081019050613c3c565b5050509392505050565b600082601f830112613c8257613c81613872565b5b8135613c92848260208601613c04565b91505092915050565b600067ffffffffffffffff821115613cb657613cb561387c565b5b602082029050602081019050919050565b6000613cda613cd584613c9b565b6138dc565b90508083825260208201905060208402830185811115613cfd57613cfc613bff565b5b835b81811015613d265780613d128882613517565b845260208401935050602081019050613cff565b5050509392505050565b600082601f830112613d4557613d44613872565b5b8135613d55848260208601613cc7565b91505092915050565b600067ffffffffffffffff821115613d7957613d7861387c565b5b602082029050602081019050919050565b6000613d9d613d9884613d5e565b6138dc565b90508083825260208201905060208402830185811115613dc057613dbf613bff565b5b835b81811015613e0757803567ffffffffffffffff811115613de557613de4613872565b5b808601613df28982613979565b85526020850194505050602081019050613dc2565b5050509392505050565b600082601f830112613e2657613e25613872565b5b8135613e36848260208601613d8a565b91505092915050565b600067ffffffffffffffff821115613e5a57613e5961387c565b5b602082029050602081019050919050565b600067ffffffffffffffff821115613e8657613e8561387c565b5b613e8f82613694565b9050602081019050919050565b6000613eaf613eaa84613e6b565b6138dc565b905082815260208101848484011115613ecb57613eca613877565b5b613ed6848285613928565b509392505050565b600082601f830112613ef357613ef2613872565b5b8135613f03848260208601613e9c565b91505092915050565b6000613f1f613f1a84613e3f565b6138dc565b90508083825260208201905060208402830185811115613f4257613f41613bff565b5b835b81811015613f8957803567ffffffffffffffff811115613f6757613f66613872565b5b808601613f748982613ede565b85526020850194505050602081019050613f44565b5050509392505050565b600082601f830112613fa857613fa7613872565b5b8135613fb8848260208601613f0c565b91505092915050565b600080600080600080600080610100898b031215613fe257613fe16134ec565b5b600089013567ffffffffffffffff81111561400057613fff6134f1565b5b61400c8b828c01613c6d565b985050602089013567ffffffffffffffff81111561402d5761402c6134f1565b5b6140398b828c01613d30565b975050604089013567ffffffffffffffff81111561405a576140596134f1565b5b6140668b828c01613e11565b965050606089013567ffffffffffffffff811115614087576140866134f1565b5b6140938b828c01613f93565b955050608089013567ffffffffffffffff8111156140b4576140b36134f1565b5b6140c08b828c01613979565b94505060a089013567ffffffffffffffff8111156140e1576140e06134f1565b5b6140ed8b828c01613979565b93505060c089013567ffffffffffffffff81111561410e5761410d6134f1565b5b61411a8b828c01613979565b92505060e089013567ffffffffffffffff81111561413b5761413a6134f1565b5b6141478b828c01613979565b9150509295985092959890939650565b60006101008201905061416d600083018b613559565b61417a602083018a61359a565b6141876040830189613559565b6141946060830188613559565b81810360808301526141a681876136a5565b905081810360a08301526141ba81866136a5565b905081810360c08301526141ce81856136a5565b905081810360e08301526141e281846136a5565b90509998505050505050505050565b60006141fc82613ad5565b9050919050565b61420c816141f1565b82525050565b60006020820190506142276000830184614203565b92915050565b7f696e76616c69642070726f706f73616c20696400000000000000000000000000600082015250565b6000614263601383613659565b915061426e8261422d565b602082019050919050565b6000602082019050818103600083015261429281614256565b9050919050565b6000815190506142a881613500565b92915050565b6000602082840312156142c4576142c36134ec565b5b60006142d284828501614299565b91505092915050565b7f63616e6e6f742063616e63656c2065786563757465642070726f706f73616c00600082015250565b6000614311601f83613659565b915061431c826142db565b602082019050919050565b6000602082019050818103600083015261434081614304565b9050919050565b600060408201905061435c600083018561359a565b6143696020830184613559565b9392505050565b60008151905061437f81613b3e565b92915050565b60006020828403121561439b5761439a6134ec565b5b60006143a984828501614370565b91505092915050565b7f70726f706f7365722061626f7665207468726573686f6c640000000000000000600082015250565b60006143e8601883613659565b91506143f3826143b2565b602082019050919050565b60006020820190508181036000830152614417816143db565b9050919050565b7f4e487b7100000000000000000000000000000000000000000000000000000000600052603260045260246000fd5b7f4e487b7100000000000000000000000000000000000000000000000000000000600052602260045260246000fd5b6000600282049050600182168061449457607f821691505b6020821081036144a7576144a661444d565b5b50919050565b60008190508160005260206000209050919050565b600081546144cf8161447c565b6144d98186613659565b945060018216600081146144f4576001811461450a5761453d565b60ff19831686528115156020028601935061453d565b614513856144ad565b60005b8381101561453557815481890152600182019150602081019050614516565b808801955050505b50505092915050565b600082825260208201905092915050565b60008190508160005260206000209050919050565b600081546145798161447c565b6145838186614546565b9450600182166000811461459e57600181146145b4576145e7565b60ff1983168652811515602002860193506145e7565b6145bd85614557565b60005b838110156145df578154818901526001820191506020810190506145c0565b808801955050505b50505092915050565b600060a082019050614605600083018861359a565b6146126020830187613559565b818103604083015261462481866144c2565b90508181036060830152614638818561456c565b90506146476080830184613559565b9695505050505050565b7f4e487b7100000000000000000000000000000000000000000000000000000000600052601160045260246000fd5b600061468b826134f6565b91507fffffffffffffffffffffffffffffffffffffffffffffffffffffffffffffffff82036146bd576146bc614651565b5b600182019050919050565b60006040820190506146dd600083018561359a565b81810360208301526146ef81846136a5565b90509392505050565b7f596f75206d757374207075726368617365206174206c6561737420313020746f60008201527f6b656e7320746f206265636f6d652061206d656d626572000000000000000000602082015250565b6000614754603783613659565b915061475f826146f8565b604082019050919050565b6000602082019050818103600083015261478381614747565b9050919050565b6000614795826134f6565b91506147a0836134f6565b92508282026147ae816134f6565b915082820484148315176147c5576147c4614651565b5b5092915050565b7f4e6f7420656e6f7567682076616c756500000000000000000000000000000000600082015250565b6000614802601083613659565b915061480d826147cc565b602082019050919050565b60006020820190508181036000830152614831816147f5565b9050919050565b7f436f6e747261637420646f6573206e6f74206861766520656e6f75676820736160008201527f6d68697461546f6b656e73000000000000000000000000000000000000000000602082015250565b6000614894602b83613659565b915061489f82614838565b604082019050919050565b600060208201905081810360008301526148c381614887565b9050919050565b60006148e56148e06148db84613a30565b613aa9565b6134f6565b9050919050565b6148f5816148ca565b82525050565b6000604082019050614910600083018561359a565b61491d60208301846148ec565b9392505050565b60008151905061493381613759565b92915050565b60006020828403121561494f5761494e6134ec565b5b600061495d84828501614924565b91505092915050565b7f70726f706f73616c2063616e206f6e6c7920626520717565756564206966206960008201527f7420697320737563636565646564000000000000000000000000000000000000602082015250565b60006149c2602e83613659565b91506149cd82614966565b604082019050919050565b600060208201905081810360008301526149f1816149b5565b9050919050565b6000614a03826134f6565b9150614a0e836134f6565b9250828201905080821115614a2657614a25614651565b5b92915050565b600081905092915050565b7f74656d706c617465000000000000000000000000000000000000000000000000600082015250565b6000614a6d600883614a2c565b9150614a7882614a37565b600882019050919050565b6000614a8e82614a60565b9150819050919050565b60008154614aa58161447c565b614aaf8186614a2c565b94506001821660008114614aca5760018114614adf57614b12565b60ff1983168652811515820286019350614b12565b614ae8856144ad565b60005b83811015614b0a57815481890152600182019150602081019050614aeb565b838801955050505b50505092915050565b6000614b278284614a98565b915081905092915050565b6000606082019050614b47600083018661359a565b8181036020830152614b5981856144c2565b9050614b686040830184613559565b949350505050565b6000604082019050614b856000830185613559565b614b926020830184613559565b9392505050565b7f596f7520617265206e6f7420746865206d656d626572206f662074687320536160008201527f6d686974612044414f0000000000000000000000000000000000000000000000602082015250565b6000614bf5602983613659565b9150614c0082614b99565b604082019050919050565b60006020820190508181036000830152614c2481614be8565b9050919050565b7f596f75206d75737420686176652076616c6964207374616b6520616d6f756e7460008201527f20746f2063726561746520612070726f706f73616c0000000000000000000000602082015250565b6000614c87603583613659565b9150614c9282614c2b565b604082019050919050565b60006020820190508181036000830152614cb681614c7a565b9050919050565b7f70726f706f73657220766f7465732062656c6f772070726f706f73616c20746860008201527f726573686f6c6400000000000000000000000000000000000000000000000000602082015250565b6000614d19602783613659565b9150614d2482614cbd565b604082019050919050565b60006020820190508181036000830152614d4881614d0c565b9050919050565b7f70726f706f73616c2066756e6374696f6e20696e666f726d6174696f6e20617260008201527f697479206d69736d617463680000000000000000000000000000000000000000602082015250565b6000614dab602c83613659565b9150614db682614d4f565b604082019050919050565b60006020820190508181036000830152614dda81614d9e565b9050919050565b7f736f6d6520616374696f6e206d75737420626520746865726500000000000000600082015250565b6000614e17601983613659565b9150614e2282614de1565b602082019050919050565b60006020820190508181036000830152614e4681614e0a565b9050919050565b7f746f6f206d616e7920616374696f6e7300000000000000000000000000000000600082015250565b6000614e83601083613659565b9150614e8e82614e4d565b602082019050919050565b60006020820190508181036000830152614eb281614e76565b9050919050565b7f466f756e6420616e20616c7265616479206163746976652070726f706f73616c600082015250565b6000614eef602083613659565b9150614efa82614eb9565b602082019050919050565b60006020820190508181036000830152614f1e81614ee2565b9050919050565b7f466f756e6420616e20616c72656164792070656e64696e672070726f706f736160008201527f6c00000000000000000000000000000000000000000000000000000000000000602082015250565b6000614f81602183613659565b9150614f8c82614f25565b604082019050919050565b60006020820190508181036000830152614fb081614f74565b9050919050565b60006020601f8301049050919050565b600082821b905092915050565b6000600883026150047fffffffffffffffffffffffffffffffffffffffffffffffffffffffffffffffff82614fc7565b61500e8683614fc7565b95508019841693508086168417925050509392505050565b600061504161503c615037846134f6565b613aa9565b6134f6565b9050919050565b6000819050919050565b61505b83615026565b61506f61506782615048565b848454614fd4565b825550505050565b600090565b615084615077565b61508f818484615052565b505050565b5b818110156150b3576150a860008261507c565b600181019050615095565b5050565b601f8211156150f8576150c9816144ad565b6150d284614fb7565b810160208510156150e1578190505b6150f56150ed85614fb7565b830182615094565b50505b505050565b600082821c905092915050565b600061511b600019846008026150fd565b1980831691505092915050565b6000615134838361510a565b9150826002028217905092915050565b61514d8261364e565b67ffffffffffffffff8111156151665761516561387c565b5b615170825461447c565b61517b8282856150b7565b600060209050601f8311600181146151ae576000841561519c578287015190505b6151a68582615128565b86555061520e565b601f1984166151bc866144ad565b60005b828110156151e4578489015182556001820191506020850194506020810190506151bf565b8683101561520157848901516151fd601f89168261510a565b8355505b6001600288020188555050505b505050505050565b600081519050919050565b600082825260208201905092915050565b6000819050602082019050919050565b61524b81613588565b82525050565b600061525d8383615242565b60208301905092915050565b6000602082019050919050565b600061528182615216565b61528b8185615221565b935061529683615232565b8060005b838110156152c75781516152ae8882615251565b97506152b983615269565b92505060018101905061529a565b5085935050505092915050565b600081519050919050565b600082825260208201905092915050565b6000819050602082019050919050565b615309816134f6565b82525050565b600061531b8383615300565b60208301905092915050565b6000602082019050919050565b600061533f826152d4565b61534981856152df565b9350615354836152f0565b8060005b8381101561538557815161536c888261530f565b975061537783615327565b925050600181019050615358565b5085935050505092915050565b600081519050919050565b600082825260208201905092915050565b6000819050602082019050919050565b600082825260208201905092915050565b60006153da8261364e565b6153e481856153be565b93506153f481856020860161366a565b6153fd81613694565b840191505092915050565b600061541483836153cf565b905092915050565b6000602082019050919050565b600061543482615392565b61543e818561539d565b935083602082028501615450856153ae565b8060005b8581101561548c578484038952815161546d8582615408565b94506154788361541c565b925060208a01995050600181019050615454565b50829750879550505050505092915050565b600081519050919050565b600082825260208201905092915050565b6000819050602082019050919050565b600081519050919050565b600082825260208201905092915050565b60006154f1826154ca565b6154fb81856154d5565b935061550b81856020860161366a565b61551481613694565b840191505092915050565b600061552b83836154e6565b905092915050565b6000602082019050919050565b600061554b8261549e565b61555581856154a9565b935083602082028501615567856154ba565b8060005b858110156155a35784840389528151615584858261551f565b945061558f83615533565b925060208a0199505060018101905061556b565b50829750879550505050505092915050565b6000610120820190506155cb600083018c613559565b6155d8602083018b61359a565b81810360408301526155ea818a615276565b905081810360608301526155fe8189615334565b905081810360808301526156128188615429565b905081810360a08301526156268187615540565b905081810360c083015261563a81866136a5565b905061564960e0830185613559565b615657610100830184613559565b9a9950505050505050505050565b7f70726f706f73616c2063616e206f6e6c7920626520657865637574656420696660008201527f2069742069732071756575656400000000000000000000000000000000000000602082015250565b60006156c1602d83613659565b91506156cc82615665565b604082019050919050565b600060208201905081810360008301526156f0816156b4565b9050919050565b600061570a61570584613e6b565b6138dc565b90508281526020810184848401111561572657615725613877565b5b61573184828561366a565b509392505050565b600082601f83011261574e5761574d613872565b5b815161575e8482602086016156f7565b91505092915050565b60006020828403121561577d5761577c6134ec565b5b600082015167ffffffffffffffff81111561579b5761579a6134f1565b5b6157a784828501615739565b91505092915050565b7f766f74696e6720697320636c6f73656400000000000000000000000000000000600082015250565b60006157e6601083613659565b91506157f1826157b0565b602082019050919050565b60006020820190508181036000830152615815816157d9565b9050919050565b7f766f7465722068617320616c726561647920766f746564000000000000000000600082015250565b6000615852601783613659565b915061585d8261581c565b602082019050919050565b6000602082019050818103600083015261588181615845565b9050919050565b600060808201905061589d600083018761359a565b6158aa6020830186613559565b6158b760408301856135b5565b6158c460608301846148ec565b95945050505050565b7f6164646974696f6e206f766572666c6f77000000000000000000000000000000600082015250565b6000615903601183613659565b915061590e826158cd565b602082019050919050565b60006020820190508181036000830152615932816158f6565b9050919050565b7f7375627472616374696f6e20756e646572666c6f770000000000000000000000600082015250565b600061596f601583613659565b915061597a82615939565b602082019050919050565b6000602082019050818103600083015261599e81615962565b9050919050565b60006159b0826134f6565b91506159bb836134f6565b92508282039050818111156159d3576159d2614651565b5b92915050565b60006159e4826154ca565b6159ee8185614546565b93506159fe81856020860161366a565b615a0781613694565b840191505092915050565b600060a082019050615a27600083018861359a565b615a346020830187613559565b8181036040830152615a4681866136a5565b90508181036060830152615a5a81856159d9565b9050615a696080830184613559565b9695505050505050565b6000819050919050565b615a8681615a73565b82525050565b6000602082019050615aa16000830184615a7d565b92915050565b7f2070726f706f73616c20616374696f6e20616c7265616479207175657565642060008201527f6174206574610000000000000000000000000000000000000000000000000000602082015250565b6000615b03602683613659565b9150615b0e82615aa7565b604082019050919050565b60006020820190508181036000830152615b3281615af6565b9050919050565b615b4281615a73565b8114615b4d57600080fd5b50565b600081519050615b5f81615b39565b92915050565b600060208284031215615b7b57615b7a6134ec565b5b6000615b8984828501615b50565b91505092915050565b60006040820190508181036000830152615bac81856136a5565b9050615bbb6020830184613559565b9392505050565b601f821115615c0357615bd481614557565b615bdd84614fb7565b81016020851015615bec578190505b615c00615bf885614fb7565b830182615094565b50505b505050565b615c11826154ca565b67ffffffffffffffff811115615c2a57615c2961387c565b5b615c34825461447c565b615c3f828285615bc2565b600060209050601f831160018114615c725760008415615c60578287015190505b615c6a8582615128565b865550615cd2565b601f198416615c8086614557565b60005b82811015615ca857848901518255600182019150602085019450602081019050615c83565b86831015615cc55784890151615cc1601f89168261510a565b8355505b6001600288020188555050505b505050505050565b7f4e487b7100000000000000000000000000000000000000000000000000000000600052605160045260246000fdfea264697066735822122031bca66ec643e91bb2f4e8acd66cd49763d0a4bdf6d0014ccc3c5156e299eb9564736f6c63430008130033",
  "linkReferences": {},
  "deployedLinkReferences": {}
}