{
  "_format": "hh-sol-artifact-1",
  "contractName": "Samhita",
  "sourceName": "contracts/samhita.sol",
  "abi": [
    {
      "inputs": [
        {
          "internalType": "address",
          "name": "timelock_",
          "type": "address"
        },
        {
          "internalType": "address",
          "name": "token_",
          "type": "address"
        },
        {
          "internalType": "address",
          "name": "templateNFT_",
          "type": "address"
        },
        {
          "internalType": "string",
          "name": "_nftUri",
          "type": "string"
        }
      ],
      "stateMutability": "nonpayable",
      "type": "constructor"
    },
    {
      "anonymous": false,
      "inputs": [
        {
          "indexed": false,
          "internalType": "uint256",
          "name": "id",
          "type": "uint256"
        }
      ],
      "name": "ProposalCanceled",
      "type": "event"
    },
    {
      "anonymous": false,
      "inputs": [
        {
          "indexed": false,
          "internalType": "uint256",
          "name": "id",
          "type": "uint256"
        },
        {
          "indexed": false,
          "internalType": "address",
          "name": "proposer",
          "type": "address"
        },
        {
          "indexed": false,
          "internalType": "address[]",
          "name": "targets",
          "type": "address[]"
        },
        {
          "indexed": false,
          "internalType": "uint256[]",
          "name": "values",
          "type": "uint256[]"
        },
        {
          "indexed": false,
          "internalType": "string[]",
          "name": "signatures",
          "type": "string[]"
        },
        {
          "indexed": false,
          "internalType": "bytes[]",
          "name": "calldatas",
          "type": "bytes[]"
        },
        {
          "indexed": false,
          "internalType": "string",
          "name": "title",
          "type": "string"
        },
        {
          "indexed": false,
          "internalType": "uint256",
          "name": "startBlock",
          "type": "uint256"
        },
        {
          "indexed": false,
          "internalType": "uint256",
          "name": "endBlock",
          "type": "uint256"
        }
      ],
      "name": "ProposalCreated",
      "type": "event"
    },
    {
      "anonymous": false,
      "inputs": [
        {
          "indexed": false,
          "internalType": "uint256",
          "name": "id",
          "type": "uint256"
        }
      ],
      "name": "ProposalExecuted",
      "type": "event"
    },
    {
      "anonymous": false,
      "inputs": [
        {
          "indexed": false,
          "internalType": "uint256",
          "name": "id",
          "type": "uint256"
        },
        {
          "indexed": false,
          "internalType": "uint256",
          "name": "eta",
          "type": "uint256"
        }
      ],
      "name": "ProposalQueued",
      "type": "event"
    },
    {
      "anonymous": false,
      "inputs": [
        {
          "indexed": false,
          "internalType": "address",
          "name": "voter",
          "type": "address"
        },
        {
          "indexed": false,
          "internalType": "uint256",
          "name": "proposalId",
          "type": "uint256"
        },
        {
          "indexed": false,
          "internalType": "bool",
          "name": "support",
          "type": "bool"
        },
        {
          "indexed": false,
          "internalType": "uint256",
          "name": "votes",
          "type": "uint256"
        }
      ],
      "name": "VoteCast",
      "type": "event"
    },
    {
      "inputs": [
        {
          "internalType": "uint96",
          "name": "_tokens",
          "type": "uint96"
        }
      ],
      "name": "addMember",
      "outputs": [],
      "stateMutability": "payable",
      "type": "function"
    },
    {
      "inputs": [
        {
          "internalType": "uint256",
          "name": "_proposalId",
          "type": "uint256"
        }
      ],
      "name": "cancel",
      "outputs": [],
      "stateMutability": "nonpayable",
      "type": "function"
    },
    {
      "inputs": [
        {
          "internalType": "uint256",
          "name": "_proposalId",
          "type": "uint256"
        },
        {
          "internalType": "bool",
          "name": "support",
          "type": "bool"
        }
      ],
      "name": "castVote",
      "outputs": [],
      "stateMutability": "nonpayable",
      "type": "function"
    },
    {
      "inputs": [
        {
          "internalType": "string",
          "name": "_nftUri",
          "type": "string"
        }
      ],
      "name": "claimMemberNft",
      "outputs": [],
      "stateMutability": "nonpayable",
      "type": "function"
    },
    {
      "inputs": [
        {
          "internalType": "uint256",
          "name": "_proposalId",
          "type": "uint256"
        }
      ],
      "name": "execute",
      "outputs": [],
      "stateMutability": "payable",
      "type": "function"
    },
    {
      "inputs": [],
      "name": "guardian",
      "outputs": [
        {
          "internalType": "address",
          "name": "",
          "type": "address"
        }
      ],
      "stateMutability": "view",
      "type": "function"
    },
    {
      "inputs": [
        {
          "internalType": "address",
          "name": "",
          "type": "address"
        }
      ],
      "name": "isMemberAdded",
      "outputs": [
        {
          "internalType": "bool",
          "name": "",
          "type": "bool"
        }
      ],
      "stateMutability": "view",
      "type": "function"
    },
    {
      "inputs": [
        {
          "internalType": "address",
          "name": "",
          "type": "address"
        }
      ],
      "name": "latestProposalIds",
      "outputs": [
        {
          "internalType": "uint256",
          "name": "",
          "type": "uint256"
        }
      ],
      "stateMutability": "view",
      "type": "function"
    },
    {
      "inputs": [
        {
          "internalType": "address",
          "name": "",
          "type": "address"
        }
      ],
      "name": "memberProposals",
      "outputs": [
        {
          "internalType": "uint256",
          "name": "",
          "type": "uint256"
        }
      ],
      "stateMutability": "view",
      "type": "function"
    },
    {
      "inputs": [
        {
          "internalType": "address",
          "name": "",
          "type": "address"
        }
      ],
      "name": "memberVotes",
      "outputs": [
        {
          "internalType": "uint256",
          "name": "",
          "type": "uint256"
        }
      ],
      "stateMutability": "view",
      "type": "function"
    },
    {
      "inputs": [
        {
          "internalType": "address",
          "name": "",
          "type": "address"
        }
      ],
      "name": "memberWithdrawAmount",
      "outputs": [
        {
          "internalType": "uint256",
          "name": "",
          "type": "uint256"
        }
      ],
      "stateMutability": "view",
      "type": "function"
    },
    {
      "inputs": [],
      "name": "name",
      "outputs": [
        {
          "internalType": "string",
          "name": "",
          "type": "string"
        }
      ],
      "stateMutability": "view",
      "type": "function"
    },
    {
      "inputs": [],
      "name": "proposalCount",
      "outputs": [
        {
          "internalType": "uint256",
          "name": "",
          "type": "uint256"
        }
      ],
      "stateMutability": "view",
      "type": "function"
    },
    {
      "inputs": [],
      "name": "proposalMaxOperations",
      "outputs": [
        {
          "internalType": "uint256",
          "name": "",
          "type": "uint256"
        }
      ],
      "stateMutability": "pure",
      "type": "function"
    },
    {
      "inputs": [
        {
          "internalType": "uint256",
          "name": "",
          "type": "uint256"
        },
        {
          "internalType": "address",
          "name": "",
          "type": "address"
        }
      ],
      "name": "proposalReceipts",
      "outputs": [
        {
          "internalType": "bool",
          "name": "hasVoted",
          "type": "bool"
        },
        {
          "internalType": "bool",
          "name": "support",
          "type": "bool"
        },
        {
          "internalType": "uint96",
          "name": "votes",
          "type": "uint96"
        }
      ],
      "stateMutability": "view",
      "type": "function"
    },
    {
      "inputs": [],
      "name": "proposalStake",
      "outputs": [
        {
          "internalType": "uint96",
          "name": "",
          "type": "uint96"
        }
      ],
      "stateMutability": "view",
      "type": "function"
    },
    {
      "inputs": [],
      "name": "proposalThreshold",
      "outputs": [
        {
          "internalType": "uint256",
          "name": "",
          "type": "uint256"
        }
      ],
      "stateMutability": "pure",
      "type": "function"
    },
    {
      "inputs": [
        {
          "internalType": "uint256",
          "name": "",
          "type": "uint256"
        }
      ],
      "name": "proposalToNFTOwner",
      "outputs": [
        {
          "internalType": "address",
          "name": "",
          "type": "address"
        }
      ],
      "stateMutability": "view",
      "type": "function"
    },
    {
      "inputs": [
        {
          "internalType": "uint256",
          "name": "",
          "type": "uint256"
        }
      ],
      "name": "proposals",
      "outputs": [
        {
          "internalType": "uint256",
          "name": "id",
          "type": "uint256"
        },
        {
          "internalType": "uint256",
          "name": "eta",
          "type": "uint256"
        },
        {
          "internalType": "uint256",
          "name": "startBlock",
          "type": "uint256"
        },
        {
          "internalType": "uint256",
          "name": "endBlock",
          "type": "uint256"
        },
        {
          "internalType": "address",
          "name": "creator",
          "type": "address"
        },
        {
          "internalType": "bool",
          "name": "cancel",
          "type": "bool"
        },
        {
          "internalType": "bool",
          "name": "executed",
          "type": "bool"
        }
      ],
      "stateMutability": "view",
      "type": "function"
    },
    {
      "inputs": [
        {
          "internalType": "uint256",
          "name": "",
          "type": "uint256"
        }
      ],
      "name": "proposalsBasicData",
      "outputs": [
        {
          "internalType": "uint256",
          "name": "id",
          "type": "uint256"
        },
        {
          "internalType": "address",
          "name": "creator",
          "type": "address"
        },
        {
          "internalType": "uint256",
          "name": "forVotes",
          "type": "uint256"
        },
        {
          "internalType": "uint256",
          "name": "againstVotes",
          "type": "uint256"
        },
        {
          "internalType": "string",
          "name": "title",
          "type": "string"
        },
        {
          "internalType": "string",
          "name": "description",
          "type": "string"
        },
        {
          "internalType": "string",
          "name": "proposalFile",
          "type": "string"
        },
        {
          "internalType": "string",
          "name": "category",
          "type": "string"
        }
      ],
      "stateMutability": "view",
      "type": "function"
    },
    {
      "inputs": [
        {
          "internalType": "address[]",
          "name": "targets",
          "type": "address[]"
        },
        {
          "internalType": "uint256[]",
          "name": "values",
          "type": "uint256[]"
        },
        {
          "internalType": "string[]",
          "name": "signatures",
          "type": "string[]"
        },
        {
          "internalType": "bytes[]",
          "name": "calldatas",
          "type": "bytes[]"
        },
        {
          "internalType": "string",
          "name": "title",
          "type": "string"
        },
        {
          "internalType": "string",
          "name": "description",
          "type": "string"
        },
        {
          "internalType": "string",
          "name": "proposalFile",
          "type": "string"
        },
        {
          "internalType": "string",
          "name": "category",
          "type": "string"
        }
      ],
      "name": "propose",
      "outputs": [
        {
          "internalType": "uint256",
          "name": "",
          "type": "uint256"
        }
      ],
      "stateMutability": "payable",
      "type": "function"
    },
    {
      "inputs": [
        {
          "internalType": "uint256",
          "name": "_proposalId",
          "type": "uint256"
        }
      ],
      "name": "queue",
      "outputs": [],
      "stateMutability": "nonpayable",
      "type": "function"
    },
    {
      "inputs": [],
      "name": "quorumVotes",
      "outputs": [
        {
          "internalType": "uint256",
          "name": "",
          "type": "uint256"
        }
      ],
      "stateMutability": "pure",
      "type": "function"
    },
    {
      "inputs": [
        {
          "internalType": "address",
          "name": "",
          "type": "address"
        }
      ],
      "name": "receivedMemberNFT",
      "outputs": [
        {
          "internalType": "bool",
          "name": "",
          "type": "bool"
        }
      ],
      "stateMutability": "view",
      "type": "function"
    },
    {
      "inputs": [
        {
          "internalType": "uint256",
          "name": "_proposalId",
          "type": "uint256"
        }
      ],
      "name": "state",
      "outputs": [
        {
          "internalType": "enum Samhita.ProposalState",
          "name": "",
          "type": "uint8"
        }
      ],
      "stateMutability": "view",
      "type": "function"
    },
    {
      "inputs": [],
      "name": "templateNFT",
      "outputs": [
        {
          "internalType": "contract ITemplateNFT",
          "name": "",
          "type": "address"
        }
      ],
      "stateMutability": "view",
      "type": "function"
    },
    {
      "inputs": [],
      "name": "timelock",
      "outputs": [
        {
          "internalType": "contract ITimelock",
          "name": "",
          "type": "address"
        }
      ],
      "stateMutability": "view",
      "type": "function"
    },
    {
      "inputs": [],
      "name": "token",
      "outputs": [
        {
          "internalType": "contract ISamhitaToken",
          "name": "",
          "type": "address"
        }
      ],
      "stateMutability": "view",
      "type": "function"
    },
    {
      "inputs": [],
      "name": "votingDelay",
      "outputs": [
        {
          "internalType": "uint256",
          "name": "",
          "type": "uint256"
        }
      ],
      "stateMutability": "pure",
      "type": "function"
    },
    {
      "inputs": [],
      "name": "votingPeriod",
      "outputs": [
        {
          "internalType": "uint256",
          "name": "",
          "type": "uint256"
        }
      ],
      "stateMutability": "pure",
      "type": "function"
    }
  ],
  "bytecode": "0x6080604052674563918244f40000601060006101000a8154816bffffffffffffffffffffffff02191690836bffffffffffffffffffffffff160217905550600a6010600c6101000a8154816bffffffffffffffffffffffff02191690836bffffffffffffffffffffffff1602179055503480156200007c57600080fd5b50604051620060e9380380620060e98339818101604052810190620000a291906200043a565b836000806101000a81548173ffffffffffffffffffffffffffffffffffffffff021916908373ffffffffffffffffffffffffffffffffffffffff16021790555082600160006101000a81548173ffffffffffffffffffffffffffffffffffffffff021916908373ffffffffffffffffffffffffffffffffffffffff16021790555081600260006101000a81548173ffffffffffffffffffffffffffffffffffffffff021916908373ffffffffffffffffffffffffffffffffffffffff16021790555033600460006101000a81548173ffffffffffffffffffffffffffffffffffffffff021916908373ffffffffffffffffffffffffffffffffffffffff160217905550600260009054906101000a900473ffffffffffffffffffffffffffffffffffffffff1673ffffffffffffffffffffffffffffffffffffffff16638c85826633836040518363ffffffff1660e01b81526004016200020492919062000539565b600060405180830381600087803b1580156200021f57600080fd5b505af115801562000234573d6000803e3d6000fd5b50505050505050506200056d565b6000604051905090565b600080fd5b600080fd5b600073ffffffffffffffffffffffffffffffffffffffff82169050919050565b6000620002838262000256565b9050919050565b620002958162000276565b8114620002a157600080fd5b50565b600081519050620002b5816200028a565b92915050565b600080fd5b600080fd5b6000601f19601f8301169050919050565b7f4e487b7100000000000000000000000000000000000000000000000000000000600052604160045260246000fd5b6200031082620002c5565b810181811067ffffffffffffffff82111715620003325762000331620002d6565b5b80604052505050565b60006200034762000242565b905062000355828262000305565b919050565b600067ffffffffffffffff821115620003785762000377620002d6565b5b6200038382620002c5565b9050602081019050919050565b60005b83811015620003b057808201518184015260208101905062000393565b60008484015250505050565b6000620003d3620003cd846200035a565b6200033b565b905082815260208101848484011115620003f257620003f1620002c0565b5b620003ff84828562000390565b509392505050565b600082601f8301126200041f576200041e620002bb565b5b815162000431848260208601620003bc565b91505092915050565b600080600080608085870312156200045757620004566200024c565b5b60006200046787828801620002a4565b94505060206200047a87828801620002a4565b93505060406200048d87828801620002a4565b925050606085015167ffffffffffffffff811115620004b157620004b062000251565b5b620004bf8782880162000407565b91505092959194509250565b620004d68162000276565b82525050565b600081519050919050565b600082825260208201905092915050565b60006200050582620004dc565b620005118185620004e7565b93506200052381856020860162000390565b6200052e81620002c5565b840191505092915050565b6000604082019050620005506000830185620004cb565b8181036020830152620005648184620004f8565b90509392505050565b615b6c806200057d6000396000f3fe6080604052600436106101cd5760003560e01c80636ef6c66d116100f7578063d33219b411610095578063e8b1eba911610064578063e8b1eba9146106d5578063f646a92c14610705578063fc0c546a14610749578063fe0d94c114610774576101cd565b8063d33219b414610619578063da35c66414610644578063ddf0b0091461066f578063de0b27e514610698576101cd565b8063b58131b0116100d1578063b58131b014610558578063c377a0c514610583578063c3c79d85146105c0578063cd887176146105dc576101cd565b80636ef6c66d146104d75780637bdbe4d01461050257806388fde90a1461052d576101cd565b8063392317cd1161016f578063452a93201161013e578063452a9320146104075780634a7fdf2d146104325780634a9f914e1461045b5780636617674314610498576101cd565b8063392317cd146103395780633932abb1146103765780633e4f49e6146103a157806340e58ee5146103de576101cd565b806308006a15116101ab57806308006a151461026b57806315373e3d146102a857806317977c61146102d157806324bc1a641461030e576101cd565b8063013cf08b146101d257806302a251a31461021557806306fdde0314610240575b600080fd5b3480156101de57600080fd5b506101f960048036038101906101f49190613336565b610790565b60405161020c97969594939291906133ce565b60405180910390f35b34801561022157600080fd5b5061022a61080c565b604051610237919061343d565b60405180910390f35b34801561024c57600080fd5b50610255610815565b60405161026291906134e8565b60405180910390f35b34801561027757600080fd5b50610292600480360381019061028d9190613536565b61084e565b60405161029f919061343d565b60405180910390f35b3480156102b457600080fd5b506102cf60048036038101906102ca919061358f565b610866565b005b3480156102dd57600080fd5b506102f860048036038101906102f39190613536565b610875565b604051610305919061343d565b60405180910390f35b34801561031a57600080fd5b5061032361088d565b604051610330919061343d565b60405180910390f35b34801561034557600080fd5b50610360600480360381019061035b9190613536565b610896565b60405161036d919061343d565b60405180910390f35b34801561038257600080fd5b5061038b6108ae565b604051610398919061343d565b60405180910390f35b3480156103ad57600080fd5b506103c860048036038101906103c39190613336565b6108b7565b6040516103d59190613646565b60405180910390f35b3480156103ea57600080fd5b5061040560048036038101906104009190613336565b610ac0565b005b34801561041357600080fd5b5061041c610e72565b6040516104299190613661565b60405180910390f35b34801561043e57600080fd5b50610459600480360381019061045491906137b1565b610e98565b005b34801561046757600080fd5b50610482600480360381019061047d9190613536565b611071565b60405161048f919061343d565b60405180910390f35b3480156104a457600080fd5b506104bf60048036038101906104ba91906137fa565b611089565b6040516104ce93929190613861565b60405180910390f35b3480156104e357600080fd5b506104ec6110f2565b6040516104f99190613898565b60405180910390f35b34801561050e57600080fd5b50610517611110565b604051610524919061343d565b60405180910390f35b34801561053957600080fd5b50610542611119565b60405161054f9190613912565b60405180910390f35b34801561056457600080fd5b5061056d61113f565b60405161057a919061343d565b60405180910390f35b34801561058f57600080fd5b506105aa60048036038101906105a59190613536565b611148565b6040516105b7919061392d565b60405180910390f35b6105da60048036038101906105d59190613974565b611168565b005b3480156105e857600080fd5b5061060360048036038101906105fe9190613336565b611569565b6040516106109190613661565b60405180910390f35b34801561062557600080fd5b5061062e61159c565b60405161063b91906139c2565b60405180910390f35b34801561065057600080fd5b506106596115c0565b604051610666919061343d565b60405180910390f35b34801561067b57600080fd5b5061069660048036038101906106919190613336565b6115c6565b005b3480156106a457600080fd5b506106bf60048036038101906106ba9190613536565b611bd0565b6040516106cc919061392d565b60405180910390f35b6106ef60048036038101906106ea9190613dcb565b611bf0565b6040516106fc919061343d565b60405180910390f35b34801561071157600080fd5b5061072c60048036038101906107279190613336565b61240a565b604051610740989796959493929190613f61565b60405180910390f35b34801561075557600080fd5b5061075e612692565b60405161076b919061401c565b60405180910390f35b61078e60048036038101906107899190613336565b6126b8565b005b60066020528060005260406000206000915090508060000154908060010154908060020154908060030154908060040160009054906101000a900473ffffffffffffffffffffffffffffffffffffffff16908060090160009054906101000a900460ff16908060090160019054906101000a900460ff16905087565b60006028905090565b6040518060400160405280600781526020017f53616d686974610000000000000000000000000000000000000000000000000081525081565b600d6020528060005260406000206000915090505481565b610871338383612923565b5050565b60086020528060005260406000206000915090505481565b60006028905090565b60096020528060005260406000206000915090505481565b60006001905090565b600081600354101580156108cb5750600082115b61090a576040517f08c379a000000000000000000000000000000000000000000000000000000000815260040161090190614083565b60405180910390fd5b60006006600084815260200190815260200160002090508060090160009054906101000a900460ff1615610942576002915050610abb565b80600201544311610957576000915050610abb565b8060030154431161096c576001915050610abb565b600760008481526020019081526020016000206003015460076000858152602001908152602001600020600201541115806109c357506109aa61088d565b6007600085815260200190815260200160002060020154105b156109d2576003915050610abb565b60008160010154036109e8576004915050610abb565b8060090160019054906101000a900460ff1615610a09576007915050610abb565b610aa5816001015460008054906101000a900473ffffffffffffffffffffffffffffffffffffffff1673ffffffffffffffffffffffffffffffffffffffff1663c1a287e26040518163ffffffff1660e01b8152600401602060405180830381865afa158015610a7c573d6000803e3d6000fd5b505050506040513d601f19601f82011682018060405250810190610aa091906140b8565b612c9f565b4210610ab5576006915050610abb565b60059150505b919050565b600780811115610ad357610ad26135cf565b5b610adc826108b7565b6007811115610aee57610aed6135cf565b5b03610b2e576040517f08c379a0000000000000000000000000000000000000000000000000000000008152600401610b2590614131565b60405180910390fd5b6000600660008381526020019081526020016000209050600460009054906101000a900473ffffffffffffffffffffffffffffffffffffffff1673ffffffffffffffffffffffffffffffffffffffff163373ffffffffffffffffffffffffffffffffffffffff161480610c805750610ba461113f565b600160009054906101000a900473ffffffffffffffffffffffffffffffffffffffff1673ffffffffffffffffffffffffffffffffffffffff1663782d6fe18360040160009054906101000a900473ffffffffffffffffffffffffffffffffffffffff16610c12436001612cfd565b6040518363ffffffff1660e01b8152600401610c2f929190614151565b602060405180830381865afa158015610c4c573d6000803e3d6000fd5b505050506040513d601f19601f82011682018060405250810190610c70919061418f565b6bffffffffffffffffffffffff16105b610cbf576040517f08c379a0000000000000000000000000000000000000000000000000000000008152600401610cb690614208565b60405180910390fd5b60018160090160006101000a81548160ff02191690831515021790555060005b8160050180549050811015610e365760008054906101000a900473ffffffffffffffffffffffffffffffffffffffff1673ffffffffffffffffffffffffffffffffffffffff1663591fcdfe836005018381548110610d4057610d3f614228565b5b9060005260206000200160009054906101000a900473ffffffffffffffffffffffffffffffffffffffff16846006018481548110610d8157610d80614228565b5b9060005260206000200154856007018581548110610da257610da1614228565b5b90600052602060002001866008018681548110610dc257610dc1614228565b5b9060005260206000200187600101546040518663ffffffff1660e01b8152600401610df19594939291906143fa565b600060405180830381600087803b158015610e0b57600080fd5b505af1158015610e1f573d6000803e3d6000fd5b505050508080610e2e9061448a565b915050610cdf565b507f789cf55be980739dad1d0699b93b58e806b51c9d96619bfa8fe0a28abaa7b30c82604051610e66919061343d565b60405180910390a15050565b600460009054906101000a900473ffffffffffffffffffffffffffffffffffffffff1681565b60001515600b60003373ffffffffffffffffffffffffffffffffffffffff1673ffffffffffffffffffffffffffffffffffffffff16815260200190815260200160002060009054906101000a900460ff1615150361106e576002600d60003373ffffffffffffffffffffffffffffffffffffffff1673ffffffffffffffffffffffffffffffffffffffff1681526020019081526020016000205410158015610f8057506005600c60003373ffffffffffffffffffffffffffffffffffffffff1673ffffffffffffffffffffffffffffffffffffffff1681526020019081526020016000205410155b1561106d57600260009054906101000a900473ffffffffffffffffffffffffffffffffffffffff1673ffffffffffffffffffffffffffffffffffffffff1663858f1e9233836040518363ffffffff1660e01b8152600401610fe29291906144d2565b600060405180830381600087803b158015610ffc57600080fd5b505af1158015611010573d6000803e3d6000fd5b505050506001600b60003373ffffffffffffffffffffffffffffffffffffffff1673ffffffffffffffffffffffffffffffffffffffff16815260200190815260200160002060006101000a81548160ff0219169083151502179055505b5b50565b600c6020528060005260406000206000915090505481565b6005602052816000526040600020602052806000526040600020600091509150508060000160009054906101000a900460ff16908060000160019054906101000a900460ff16908060000160029054906101000a90046bffffffffffffffffffffffff16905083565b601060009054906101000a90046bffffffffffffffffffffffff1681565b6000600a905090565b600260009054906101000a900473ffffffffffffffffffffffffffffffffffffffff1681565b6000600a905090565b600b6020528060005260406000206000915054906101000a900460ff1681565b6010600c9054906101000a90046bffffffffffffffffffffffff166bffffffffffffffffffffffff16816bffffffffffffffffffffffff1610156111e1576040517f08c379a00000000000000000000000000000000000000000000000000000000081526004016111d890614574565b60405180910390fd5b600160009054906101000a900473ffffffffffffffffffffffffffffffffffffffff1673ffffffffffffffffffffffffffffffffffffffff16634b94f50e6040518163ffffffff1660e01b8152600401602060405180830381865afa15801561124e573d6000803e3d6000fd5b505050506040513d601f19601f8201168201806040525081019061127291906140b8565b816bffffffffffffffffffffffff1661128b9190614594565b34146112cc576040517f08c379a00000000000000000000000000000000000000000000000000000000081526004016112c390614622565b60405180910390fd5b806bffffffffffffffffffffffff16600160009054906101000a900473ffffffffffffffffffffffffffffffffffffffff1673ffffffffffffffffffffffffffffffffffffffff166370a08231306040518263ffffffff1660e01b81526004016113369190613661565b602060405180830381865afa158015611353573d6000803e3d6000fd5b505050506040513d601f19601f8201168201806040525081019061137791906140b8565b10156113b8576040517f08c379a00000000000000000000000000000000000000000000000000000000081526004016113af906146b4565b60405180910390fd5b600f60003373ffffffffffffffffffffffffffffffffffffffff1673ffffffffffffffffffffffffffffffffffffffff16815260200190815260200160002060009054906101000a900460ff166114c557600e339080600181540180825580915050600190039060005260206000200160009091909190916101000a81548173ffffffffffffffffffffffffffffffffffffffff021916908373ffffffffffffffffffffffffffffffffffffffff1602179055506001600f60003373ffffffffffffffffffffffffffffffffffffffff1673ffffffffffffffffffffffffffffffffffffffff16815260200190815260200160002060006101000a81548160ff0219169083151502179055505b600160009054906101000a900473ffffffffffffffffffffffffffffffffffffffff1673ffffffffffffffffffffffffffffffffffffffff1663a9059cbb33836040518363ffffffff1660e01b8152600401611522929190614705565b6020604051808303816000875af1158015611541573d6000803e3d6000fd5b505050506040513d601f19601f820116820180604052508101906115659190614743565b5050565b600a6020528060005260406000206000915054906101000a900473ffffffffffffffffffffffffffffffffffffffff1681565b60008054906101000a900473ffffffffffffffffffffffffffffffffffffffff1681565b60035481565b600460078111156115da576115d96135cf565b5b6115e3826108b7565b60078111156115f5576115f46135cf565b5b14611635576040517f08c379a000000000000000000000000000000000000000000000000000000000815260040161162c906147e2565b60405180910390fd5b6116746006600083815260200190815260200160002060040160009054906101000a900473ffffffffffffffffffffffffffffffffffffffff16612d56565b601060009054906101000a90046bffffffffffffffffffffffff166bffffffffffffffffffffffff16600960006006600085815260200190815260200160002060040160009054906101000a900473ffffffffffffffffffffffffffffffffffffffff1673ffffffffffffffffffffffffffffffffffffffff1673ffffffffffffffffffffffffffffffffffffffff16815260200190815260200160002060008282546117219190614802565b925050819055506006600082815260200190815260200160002060040160009054906101000a900473ffffffffffffffffffffffffffffffffffffffff16600a600083815260200190815260200160002060006101000a81548173ffffffffffffffffffffffffffffffffffffffff021916908373ffffffffffffffffffffffffffffffffffffffff160217905550600060066000838152602001908152602001600020905060006118614260008054906101000a900473ffffffffffffffffffffffffffffffffffffffff1673ffffffffffffffffffffffffffffffffffffffff16636a42b8f86040518163ffffffff1660e01b8152600401602060405180830381865afa158015611838573d6000803e3d6000fd5b505050506040513d601f19601f8201168201806040525081019061185c91906140b8565b612c9f565b905060005b8260050180549050811015611a4557611a3283600501828154811061188e5761188d614228565b5b9060005260206000200160009054906101000a900473ffffffffffffffffffffffffffffffffffffffff168460060183815481106118cf576118ce614228565b5b90600052602060002001548560070184815481106118f0576118ef614228565b5b90600052602060002001805461190590614286565b80601f016020809104026020016040519081016040528092919081815260200182805461193190614286565b801561197e5780601f106119535761010080835404028352916020019161197e565b820191906000526020600020905b81548152906001019060200180831161196157829003601f168201915b505050505086600801858154811061199957611998614228565b5b9060005260206000200180546119ae90614286565b80601f01602080910402602001604051908101604052809291908181526020018280546119da90614286565b8015611a275780601f106119fc57610100808354040283529160200191611a27565b820191906000526020600020905b815481529060010190602001808311611a0a57829003601f168201915b505050505086612def565b8080611a3d9061448a565b915050611866565b50808260010181905550604051602001611a5e9061488d565b6040516020818303038152906040528051906020012060076000858152602001908152602001600020600701604051602001611a9a9190614925565b6040516020818303038152906040528051906020012003611b9257600260009054906101000a900473ffffffffffffffffffffffffffffffffffffffff1673ffffffffffffffffffffffffffffffffffffffff1663b971043b6006600086815260200190815260200160002060040160009054906101000a900473ffffffffffffffffffffffffffffffffffffffff1660076000878152602001908152602001600020600601866040518463ffffffff1660e01b8152600401611b5f9392919061493c565b600060405180830381600087803b158015611b7957600080fd5b505af1158015611b8d573d6000803e3d6000fd5b505050505b7f9a2e42fd6722813d69113e7d0079d3d940171428df7373df9c7f7617cfda28928382604051611bc392919061497a565b60405180910390a1505050565b600f6020528060005260406000206000915054906101000a900460ff1681565b6000600f60003373ffffffffffffffffffffffffffffffffffffffff1673ffffffffffffffffffffffffffffffffffffffff16815260200190815260200160002060009054906101000a900460ff16611c7e576040517f08c379a0000000000000000000000000000000000000000000000000000000008152600401611c7590614a15565b60405180910390fd5b601060009054906101000a90046bffffffffffffffffffffffff166bffffffffffffffffffffffff163414611ce8576040517f08c379a0000000000000000000000000000000000000000000000000000000008152600401611cdf90614aa7565b60405180910390fd5b611cf061113f565b600160009054906101000a900473ffffffffffffffffffffffffffffffffffffffff1673ffffffffffffffffffffffffffffffffffffffff1663782d6fe133611d3a436001612cfd565b6040518363ffffffff1660e01b8152600401611d57929190614151565b602060405180830381865afa158015611d74573d6000803e3d6000fd5b505050506040513d601f19601f82011682018060405250810190611d98919061418f565b6bffffffffffffffffffffffff1611611de6576040517f08c379a0000000000000000000000000000000000000000000000000000000008152600401611ddd90614b39565b60405180910390fd5b87518951148015611df8575086518951145b8015611e05575085518951145b611e44576040517f08c379a0000000000000000000000000000000000000000000000000000000008152600401611e3b90614bcb565b60405180910390fd5b6000895103611e88576040517f08c379a0000000000000000000000000000000000000000000000000000000008152600401611e7f90614c37565b60405180910390fd5b611e90611110565b89511115611ed3576040517f08c379a0000000000000000000000000000000000000000000000000000000008152600401611eca90614ca3565b60405180910390fd5b6000600860003373ffffffffffffffffffffffffffffffffffffffff1673ffffffffffffffffffffffffffffffffffffffff16815260200190815260200160002054905060008114611ffc576000611f2a826108b7565b905060016007811115611f4057611f3f6135cf565b5b816007811115611f5357611f526135cf565b5b03611f93576040517f08c379a0000000000000000000000000000000000000000000000000000000008152600401611f8a90614d0f565b60405180910390fd5b60006007811115611fa757611fa66135cf565b5b816007811115611fba57611fb96135cf565b5b03611ffa576040517f08c379a0000000000000000000000000000000000000000000000000000000008152600401611ff190614da1565b60405180910390fd5b505b600061200f4361200a6108ae565b612c9f565b905060006120248261201f61080c565b612c9f565b9050600360008154809291906120399061448a565b91905055506040518061016001604052806003548152602001600081526020018381526020018281526020013373ffffffffffffffffffffffffffffffffffffffff1681526020018d81526020018c81526020018b81526020018a8152602001600015158152602001600015158152506006600060035481526020019081526020016000206000820151816000015560208201518160010155604082015181600201556060820151816003015560808201518160040160006101000a81548173ffffffffffffffffffffffffffffffffffffffff021916908373ffffffffffffffffffffffffffffffffffffffff16021790555060a0820151816005019080519060200190612149929190613074565b5060c08201518160060190805190602001906121669291906130fe565b5060e082015181600701908051906020019061218392919061314b565b506101008201518160080190805190602001906121a19291906131a4565b506101208201518160090160006101000a81548160ff0219169083151502179055506101408201518160090160016101000a81548160ff02191690831515021790555090505060405180610100016040528060035481526020013373ffffffffffffffffffffffffffffffffffffffff1681526020016000815260200160008152602001898152602001888152602001878152602001868152506007600060035481526020019081526020016000206000820151816000015560208201518160010160006101000a81548173ffffffffffffffffffffffffffffffffffffffff021916908373ffffffffffffffffffffffffffffffffffffffff160217905550604082015181600201556060820151816003015560808201518160040190816122ca9190614f4e565b5060a08201518160050190816122e09190614f4e565b5060c08201518160060190816122f69190614f4e565b5060e082015181600701908161230c9190614f4e565b50905050600354600860003373ffffffffffffffffffffffffffffffffffffffff1673ffffffffffffffffffffffffffffffffffffffff168152602001908152602001600020819055506001600d60003373ffffffffffffffffffffffffffffffffffffffff1673ffffffffffffffffffffffffffffffffffffffff16815260200190815260200160002060008282546123a69190614802565b925050819055507f9c2b0d68f5edfd1bf6158a1867aced894efcfcf77c7a7603cb571e18ce89ae76600354338e8e8e8e8e89896040516123ee999897969594939291906153bf565b60405180910390a1600354935050505098975050505050505050565b60076020528060005260406000206000915090508060000154908060010160009054906101000a900473ffffffffffffffffffffffffffffffffffffffff169080600201549080600301549080600401805461246590614286565b80601f016020809104026020016040519081016040528092919081815260200182805461249190614286565b80156124de5780601f106124b3576101008083540402835291602001916124de565b820191906000526020600020905b8154815290600101906020018083116124c157829003601f168201915b5050505050908060050180546124f390614286565b80601f016020809104026020016040519081016040528092919081815260200182805461251f90614286565b801561256c5780601f106125415761010080835404028352916020019161256c565b820191906000526020600020905b81548152906001019060200180831161254f57829003601f168201915b50505050509080600601805461258190614286565b80601f01602080910402602001604051908101604052809291908181526020018280546125ad90614286565b80156125fa5780601f106125cf576101008083540402835291602001916125fa565b820191906000526020600020905b8154815290600101906020018083116125dd57829003601f168201915b50505050509080600701805461260f90614286565b80601f016020809104026020016040519081016040528092919081815260200182805461263b90614286565b80156126885780601f1061265d57610100808354040283529160200191612688565b820191906000526020600020905b81548152906001019060200180831161266b57829003601f168201915b5050505050905088565b600160009054906101000a900473ffffffffffffffffffffffffffffffffffffffff1681565b600560078111156126cc576126cb6135cf565b5b6126d5826108b7565b60078111156126e7576126e66135cf565b5b14612727576040517f08c379a000000000000000000000000000000000000000000000000000000000815260040161271e906154e1565b60405180910390fd5b600060066000838152602001908152602001600020905060018160090160016101000a81548160ff02191690831515021790555060005b81600501805490508110156128e75760008054906101000a900473ffffffffffffffffffffffffffffffffffffffff1673ffffffffffffffffffffffffffffffffffffffff16632224fa258360060183815481106127bf576127be614228565b5b90600052602060002001548460050184815481106127e0576127df614228565b5b9060005260206000200160009054906101000a900473ffffffffffffffffffffffffffffffffffffffff1685600601858154811061282157612820614228565b5b906000526020600020015486600701868154811061284257612841614228565b5b9060005260206000200187600801878154811061286257612861614228565b5b906000526020600020016040518663ffffffff1660e01b815260040161288b9493929190615501565b60006040518083038185885af11580156128a9573d6000803e3d6000fd5b50505050506040513d6000823e3d601f19601f820116820180604052508101906128d391906155c4565b5080806128df9061448a565b91505061275e565b507f712ae1383f79ac853f8d882153778e0260ef8f03b504e2866e0593e04d2b291f82604051612917919061343d565b60405180910390a15050565b60016007811115612937576129366135cf565b5b612940836108b7565b6007811115612952576129516135cf565b5b14612992576040517f08c379a000000000000000000000000000000000000000000000000000000000815260040161298990615659565b60405180910390fd5b600060066000848152602001908152602001600020905060006005600085815260200190815260200160002060008673ffffffffffffffffffffffffffffffffffffffff1673ffffffffffffffffffffffffffffffffffffffff1681526020019081526020016000209050600015158160000160009054906101000a900460ff16151514612a55576040517f08c379a0000000000000000000000000000000000000000000000000000000008152600401612a4c906156c5565b60405180910390fd5b6000600160009054906101000a900473ffffffffffffffffffffffffffffffffffffffff1673ffffffffffffffffffffffffffffffffffffffff1663782d6fe18785600201546040518363ffffffff1660e01b8152600401612ab8929190614151565b602060405180830381865afa158015612ad5573d6000803e3d6000fd5b505050506040513d601f19601f82011682018060405250810190612af9919061418f565b90508315612b4e57612b2f6007600087815260200190815260200160002060020154826bffffffffffffffffffffffff16612c9f565b6007600087815260200190815260200160002060020181905550612b97565b612b7c6007600087815260200190815260200160002060030154826bffffffffffffffffffffffff16612c9f565b60076000878152602001908152602001600020600301819055505b60018260000160006101000a81548160ff021916908315150217905550838260000160016101000a81548160ff021916908315150217905550808260000160026101000a8154816bffffffffffffffffffffffff02191690836bffffffffffffffffffffffff1602179055506001600c60003373ffffffffffffffffffffffffffffffffffffffff1673ffffffffffffffffffffffffffffffffffffffff1681526020019081526020016000206000828254612c539190614802565b925050819055507f877856338e13f63d0c36822ff0ef736b80934cd90574a3a5bc9262c39d217c4686868684604051612c8f94939291906156e5565b60405180910390a1505050505050565b6000808284612cae9190614802565b905083811015612cf3576040517f08c379a0000000000000000000000000000000000000000000000000000000008152600401612cea90615776565b60405180910390fd5b8091505092915050565b600082821115612d42576040517f08c379a0000000000000000000000000000000000000000000000000000000008152600401612d39906157e2565b60405180910390fd5b8183612d4e9190615802565b905092915050565b612dec81604051602401612d6a9190613661565b6040516020818303038152906040527f2c2ecbc2000000000000000000000000000000000000000000000000000000007bffffffffffffffffffffffffffffffffffffffffffffffffffffffff19166020820180517bffffffffffffffffffffffffffffffffffffffffffffffffffffffff838183161783525050505061302e565b50565b60008054906101000a900473ffffffffffffffffffffffffffffffffffffffff1673ffffffffffffffffffffffffffffffffffffffff1663f2b065378686868686604051602001612e4495949392919061586f565b604051602081830303815290604052805190602001206040518263ffffffff1660e01b8152600401612e7691906158e9565b602060405180830381865afa158015612e93573d6000803e3d6000fd5b505050506040513d601f19601f82011682018060405250810190612eb79190614743565b15612ef7576040517f08c379a0000000000000000000000000000000000000000000000000000000008152600401612eee90615976565b60405180910390fd5b60008054906101000a900473ffffffffffffffffffffffffffffffffffffffff1673ffffffffffffffffffffffffffffffffffffffff1663abc203bd336040518263ffffffff1660e01b8152600401612f509190613661565b600060405180830381600087803b158015612f6a57600080fd5b505af1158015612f7e573d6000803e3d6000fd5b5050505060008054906101000a900473ffffffffffffffffffffffffffffffffffffffff1673ffffffffffffffffffffffffffffffffffffffff16633a66f90186868686866040518663ffffffff1660e01b8152600401612fe395949392919061586f565b6020604051808303816000875af1158015613002573d6000803e3d6000fd5b505050506040513d601f19601f8201168201806040525081019061302691906159c2565b505050505050565b6130458161303d613048613069565b63ffffffff16565b50565b60006a636f6e736f6c652e6c6f679050600080835160208501845afa505050565b6131fd819050919050565b8280548282559060005260206000209081019282156130ed579160200282015b828111156130ec5782518260006101000a81548173ffffffffffffffffffffffffffffffffffffffff021916908373ffffffffffffffffffffffffffffffffffffffff16021790555091602001919060010190613094565b5b5090506130fa9190613207565b5090565b82805482825590600052602060002090810192821561313a579160200282015b8281111561313957825182559160200191906001019061311e565b5b5090506131479190613207565b5090565b828054828255906000526020600020908101928215613193579160200282015b828111156131925782518290816131829190614f4e565b509160200191906001019061316b565b5b5090506131a09190613224565b5090565b8280548282559060005260206000209081019282156131ec579160200282015b828111156131eb5782518290816131db9190615a35565b50916020019190600101906131c4565b5b5090506131f99190613248565b5090565b613205615b07565b565b5b80821115613220576000816000905550600101613208565b5090565b5b80821115613244576000818161323b919061326c565b50600101613225565b5090565b5b80821115613268576000818161325f91906132ac565b50600101613249565b5090565b50805461327890614286565b6000825580601f1061328a57506132a9565b601f0160209004906000526020600020908101906132a89190613207565b5b50565b5080546132b890614286565b6000825580601f106132ca57506132e9565b601f0160209004906000526020600020908101906132e89190613207565b5b50565b6000604051905090565b600080fd5b600080fd5b6000819050919050565b61331381613300565b811461331e57600080fd5b50565b6000813590506133308161330a565b92915050565b60006020828403121561334c5761334b6132f6565b5b600061335a84828501613321565b91505092915050565b61336c81613300565b82525050565b600073ffffffffffffffffffffffffffffffffffffffff82169050919050565b600061339d82613372565b9050919050565b6133ad81613392565b82525050565b60008115159050919050565b6133c8816133b3565b82525050565b600060e0820190506133e3600083018a613363565b6133f06020830189613363565b6133fd6040830188613363565b61340a6060830187613363565b61341760808301866133a4565b61342460a08301856133bf565b61343160c08301846133bf565b98975050505050505050565b60006020820190506134526000830184613363565b92915050565b600081519050919050565b600082825260208201905092915050565b60005b83811015613492578082015181840152602081019050613477565b60008484015250505050565b6000601f19601f8301169050919050565b60006134ba82613458565b6134c48185613463565b93506134d4818560208601613474565b6134dd8161349e565b840191505092915050565b6000602082019050818103600083015261350281846134af565b905092915050565b61351381613392565b811461351e57600080fd5b50565b6000813590506135308161350a565b92915050565b60006020828403121561354c5761354b6132f6565b5b600061355a84828501613521565b91505092915050565b61356c816133b3565b811461357757600080fd5b50565b60008135905061358981613563565b92915050565b600080604083850312156135a6576135a56132f6565b5b60006135b485828601613321565b92505060206135c58582860161357a565b9150509250929050565b7f4e487b7100000000000000000000000000000000000000000000000000000000600052602160045260246000fd5b6008811061360f5761360e6135cf565b5b50565b6000819050613620826135fe565b919050565b600061363082613612565b9050919050565b61364081613625565b82525050565b600060208201905061365b6000830184613637565b92915050565b600060208201905061367660008301846133a4565b92915050565b600080fd5b600080fd5b7f4e487b7100000000000000000000000000000000000000000000000000000000600052604160045260246000fd5b6136be8261349e565b810181811067ffffffffffffffff821117156136dd576136dc613686565b5b80604052505050565b60006136f06132ec565b90506136fc82826136b5565b919050565b600067ffffffffffffffff82111561371c5761371b613686565b5b6137258261349e565b9050602081019050919050565b82818337600083830152505050565b600061375461374f84613701565b6136e6565b9050828152602081018484840111156137705761376f613681565b5b61377b848285613732565b509392505050565b600082601f8301126137985761379761367c565b5b81356137a8848260208601613741565b91505092915050565b6000602082840312156137c7576137c66132f6565b5b600082013567ffffffffffffffff8111156137e5576137e46132fb565b5b6137f184828501613783565b91505092915050565b60008060408385031215613811576138106132f6565b5b600061381f85828601613321565b925050602061383085828601613521565b9150509250929050565b60006bffffffffffffffffffffffff82169050919050565b61385b8161383a565b82525050565b600060608201905061387660008301866133bf565b61388360208301856133bf565b6138906040830184613852565b949350505050565b60006020820190506138ad6000830184613852565b92915050565b6000819050919050565b60006138d86138d36138ce84613372565b6138b3565b613372565b9050919050565b60006138ea826138bd565b9050919050565b60006138fc826138df565b9050919050565b61390c816138f1565b82525050565b60006020820190506139276000830184613903565b92915050565b600060208201905061394260008301846133bf565b92915050565b6139518161383a565b811461395c57600080fd5b50565b60008135905061396e81613948565b92915050565b60006020828403121561398a576139896132f6565b5b60006139988482850161395f565b91505092915050565b60006139ac826138df565b9050919050565b6139bc816139a1565b82525050565b60006020820190506139d760008301846139b3565b92915050565b600067ffffffffffffffff8211156139f8576139f7613686565b5b602082029050602081019050919050565b600080fd5b6000613a21613a1c846139dd565b6136e6565b90508083825260208201905060208402830185811115613a4457613a43613a09565b5b835b81811015613a6d5780613a598882613521565b845260208401935050602081019050613a46565b5050509392505050565b600082601f830112613a8c57613a8b61367c565b5b8135613a9c848260208601613a0e565b91505092915050565b600067ffffffffffffffff821115613ac057613abf613686565b5b602082029050602081019050919050565b6000613ae4613adf84613aa5565b6136e6565b90508083825260208201905060208402830185811115613b0757613b06613a09565b5b835b81811015613b305780613b1c8882613321565b845260208401935050602081019050613b09565b5050509392505050565b600082601f830112613b4f57613b4e61367c565b5b8135613b5f848260208601613ad1565b91505092915050565b600067ffffffffffffffff821115613b8357613b82613686565b5b602082029050602081019050919050565b6000613ba7613ba284613b68565b6136e6565b90508083825260208201905060208402830185811115613bca57613bc9613a09565b5b835b81811015613c1157803567ffffffffffffffff811115613bef57613bee61367c565b5b808601613bfc8982613783565b85526020850194505050602081019050613bcc565b5050509392505050565b600082601f830112613c3057613c2f61367c565b5b8135613c40848260208601613b94565b91505092915050565b600067ffffffffffffffff821115613c6457613c63613686565b5b602082029050602081019050919050565b600067ffffffffffffffff821115613c9057613c8f613686565b5b613c998261349e565b9050602081019050919050565b6000613cb9613cb484613c75565b6136e6565b905082815260208101848484011115613cd557613cd4613681565b5b613ce0848285613732565b509392505050565b600082601f830112613cfd57613cfc61367c565b5b8135613d0d848260208601613ca6565b91505092915050565b6000613d29613d2484613c49565b6136e6565b90508083825260208201905060208402830185811115613d4c57613d4b613a09565b5b835b81811015613d9357803567ffffffffffffffff811115613d7157613d7061367c565b5b808601613d7e8982613ce8565b85526020850194505050602081019050613d4e565b5050509392505050565b600082601f830112613db257613db161367c565b5b8135613dc2848260208601613d16565b91505092915050565b600080600080600080600080610100898b031215613dec57613deb6132f6565b5b600089013567ffffffffffffffff811115613e0a57613e096132fb565b5b613e168b828c01613a77565b985050602089013567ffffffffffffffff811115613e3757613e366132fb565b5b613e438b828c01613b3a565b975050604089013567ffffffffffffffff811115613e6457613e636132fb565b5b613e708b828c01613c1b565b965050606089013567ffffffffffffffff811115613e9157613e906132fb565b5b613e9d8b828c01613d9d565b955050608089013567ffffffffffffffff811115613ebe57613ebd6132fb565b5b613eca8b828c01613783565b94505060a089013567ffffffffffffffff811115613eeb57613eea6132fb565b5b613ef78b828c01613783565b93505060c089013567ffffffffffffffff811115613f1857613f176132fb565b5b613f248b828c01613783565b92505060e089013567ffffffffffffffff811115613f4557613f446132fb565b5b613f518b828c01613783565b9150509295985092959890939650565b600061010082019050613f77600083018b613363565b613f84602083018a6133a4565b613f916040830189613363565b613f9e6060830188613363565b8181036080830152613fb081876134af565b905081810360a0830152613fc481866134af565b905081810360c0830152613fd881856134af565b905081810360e0830152613fec81846134af565b90509998505050505050505050565b6000614006826138df565b9050919050565b61401681613ffb565b82525050565b6000602082019050614031600083018461400d565b92915050565b7f696e76616c69642070726f706f73616c20696400000000000000000000000000600082015250565b600061406d601383613463565b915061407882614037565b602082019050919050565b6000602082019050818103600083015261409c81614060565b9050919050565b6000815190506140b28161330a565b92915050565b6000602082840312156140ce576140cd6132f6565b5b60006140dc848285016140a3565b91505092915050565b7f63616e6e6f742063616e63656c2065786563757465642070726f706f73616c00600082015250565b600061411b601f83613463565b9150614126826140e5565b602082019050919050565b6000602082019050818103600083015261414a8161410e565b9050919050565b600060408201905061416660008301856133a4565b6141736020830184613363565b9392505050565b60008151905061418981613948565b92915050565b6000602082840312156141a5576141a46132f6565b5b60006141b38482850161417a565b91505092915050565b7f70726f706f7365722061626f7665207468726573686f6c640000000000000000600082015250565b60006141f2601883613463565b91506141fd826141bc565b602082019050919050565b60006020820190508181036000830152614221816141e5565b9050919050565b7f4e487b7100000000000000000000000000000000000000000000000000000000600052603260045260246000fd5b7f4e487b7100000000000000000000000000000000000000000000000000000000600052602260045260246000fd5b6000600282049050600182168061429e57607f821691505b6020821081036142b1576142b0614257565b5b50919050565b60008190508160005260206000209050919050565b600081546142d981614286565b6142e38186613463565b945060018216600081146142fe576001811461431457614347565b60ff198316865281151560200286019350614347565b61431d856142b7565b60005b8381101561433f57815481890152600182019150602081019050614320565b808801955050505b50505092915050565b600082825260208201905092915050565b60008190508160005260206000209050919050565b6000815461438381614286565b61438d8186614350565b945060018216600081146143a857600181146143be576143f1565b60ff1983168652811515602002860193506143f1565b6143c785614361565b60005b838110156143e9578154818901526001820191506020810190506143ca565b808801955050505b50505092915050565b600060a08201905061440f60008301886133a4565b61441c6020830187613363565b818103604083015261442e81866142cc565b905081810360608301526144428185614376565b90506144516080830184613363565b9695505050505050565b7f4e487b7100000000000000000000000000000000000000000000000000000000600052601160045260246000fd5b600061449582613300565b91507fffffffffffffffffffffffffffffffffffffffffffffffffffffffffffffffff82036144c7576144c661445b565b5b600182019050919050565b60006040820190506144e760008301856133a4565b81810360208301526144f981846134af565b90509392505050565b7f596f75206d757374207075726368617365206174206c6561737420313020746f60008201527f6b656e7320746f206265636f6d652061206d656d626572000000000000000000602082015250565b600061455e603783613463565b915061456982614502565b604082019050919050565b6000602082019050818103600083015261458d81614551565b9050919050565b600061459f82613300565b91506145aa83613300565b92508282026145b881613300565b915082820484148315176145cf576145ce61445b565b5b5092915050565b7f4e6f7420656e6f7567682076616c756500000000000000000000000000000000600082015250565b600061460c601083613463565b9150614617826145d6565b602082019050919050565b6000602082019050818103600083015261463b816145ff565b9050919050565b7f436f6e747261637420646f6573206e6f74206861766520656e6f75676820736160008201527f6d68697461546f6b656e73000000000000000000000000000000000000000000602082015250565b600061469e602b83613463565b91506146a982614642565b604082019050919050565b600060208201905081810360008301526146cd81614691565b9050919050565b60006146ef6146ea6146e58461383a565b6138b3565b613300565b9050919050565b6146ff816146d4565b82525050565b600060408201905061471a60008301856133a4565b61472760208301846146f6565b9392505050565b60008151905061473d81613563565b92915050565b600060208284031215614759576147586132f6565b5b60006147678482850161472e565b91505092915050565b7f70726f706f73616c2063616e206f6e6c7920626520717565756564206966206960008201527f7420697320737563636565646564000000000000000000000000000000000000602082015250565b60006147cc602e83613463565b91506147d782614770565b604082019050919050565b600060208201905081810360008301526147fb816147bf565b9050919050565b600061480d82613300565b915061481883613300565b92508282019050808211156148305761482f61445b565b5b92915050565b600081905092915050565b7f74656d706c617465000000000000000000000000000000000000000000000000600082015250565b6000614877600883614836565b915061488282614841565b600882019050919050565b60006148988261486a565b9150819050919050565b600081546148af81614286565b6148b98186614836565b945060018216600081146148d457600181146148e95761491c565b60ff198316865281151582028601935061491c565b6148f2856142b7565b60005b83811015614914578154818901526001820191506020810190506148f5565b838801955050505b50505092915050565b600061493182846148a2565b915081905092915050565b600060608201905061495160008301866133a4565b818103602083015261496381856142cc565b90506149726040830184613363565b949350505050565b600060408201905061498f6000830185613363565b61499c6020830184613363565b9392505050565b7f596f7520617265206e6f7420746865206d656d626572206f662074687320536160008201527f6d686974612044414f0000000000000000000000000000000000000000000000602082015250565b60006149ff602983613463565b9150614a0a826149a3565b604082019050919050565b60006020820190508181036000830152614a2e816149f2565b9050919050565b7f596f75206d75737420686176652076616c6964207374616b6520616d6f756e7460008201527f20746f2063726561746520612070726f706f73616c0000000000000000000000602082015250565b6000614a91603583613463565b9150614a9c82614a35565b604082019050919050565b60006020820190508181036000830152614ac081614a84565b9050919050565b7f70726f706f73657220766f7465732062656c6f772070726f706f73616c20746860008201527f726573686f6c6400000000000000000000000000000000000000000000000000602082015250565b6000614b23602783613463565b9150614b2e82614ac7565b604082019050919050565b60006020820190508181036000830152614b5281614b16565b9050919050565b7f70726f706f73616c2066756e6374696f6e20696e666f726d6174696f6e20617260008201527f697479206d69736d617463680000000000000000000000000000000000000000602082015250565b6000614bb5602c83613463565b9150614bc082614b59565b604082019050919050565b60006020820190508181036000830152614be481614ba8565b9050919050565b7f736f6d6520616374696f6e206d75737420626520746865726500000000000000600082015250565b6000614c21601983613463565b9150614c2c82614beb565b602082019050919050565b60006020820190508181036000830152614c5081614c14565b9050919050565b7f746f6f206d616e7920616374696f6e7300000000000000000000000000000000600082015250565b6000614c8d601083613463565b9150614c9882614c57565b602082019050919050565b60006020820190508181036000830152614cbc81614c80565b9050919050565b7f466f756e6420616e20616c7265616479206163746976652070726f706f73616c600082015250565b6000614cf9602083613463565b9150614d0482614cc3565b602082019050919050565b60006020820190508181036000830152614d2881614cec565b9050919050565b7f466f756e6420616e20616c72656164792070656e64696e672070726f706f736160008201527f6c00000000000000000000000000000000000000000000000000000000000000602082015250565b6000614d8b602183613463565b9150614d9682614d2f565b604082019050919050565b60006020820190508181036000830152614dba81614d7e565b9050919050565b60006020601f8301049050919050565b600082821b905092915050565b600060088302614e0e7fffffffffffffffffffffffffffffffffffffffffffffffffffffffffffffffff82614dd1565b614e188683614dd1565b95508019841693508086168417925050509392505050565b6000614e4b614e46614e4184613300565b6138b3565b613300565b9050919050565b6000819050919050565b614e6583614e30565b614e79614e7182614e52565b848454614dde565b825550505050565b600090565b614e8e614e81565b614e99818484614e5c565b505050565b5b81811015614ebd57614eb2600082614e86565b600181019050614e9f565b5050565b601f821115614f0257614ed3816142b7565b614edc84614dc1565b81016020851015614eeb578190505b614eff614ef785614dc1565b830182614e9e565b50505b505050565b600082821c905092915050565b6000614f2560001984600802614f07565b1980831691505092915050565b6000614f3e8383614f14565b9150826002028217905092915050565b614f5782613458565b67ffffffffffffffff811115614f7057614f6f613686565b5b614f7a8254614286565b614f85828285614ec1565b600060209050601f831160018114614fb85760008415614fa6578287015190505b614fb08582614f32565b865550615018565b601f198416614fc6866142b7565b60005b82811015614fee57848901518255600182019150602085019450602081019050614fc9565b8683101561500b5784890151615007601f891682614f14565b8355505b6001600288020188555050505b505050505050565b600081519050919050565b600082825260208201905092915050565b6000819050602082019050919050565b61505581613392565b82525050565b6000615067838361504c565b60208301905092915050565b6000602082019050919050565b600061508b82615020565b615095818561502b565b93506150a08361503c565b8060005b838110156150d15781516150b8888261505b565b97506150c383615073565b9250506001810190506150a4565b5085935050505092915050565b600081519050919050565b600082825260208201905092915050565b6000819050602082019050919050565b61511381613300565b82525050565b6000615125838361510a565b60208301905092915050565b6000602082019050919050565b6000615149826150de565b61515381856150e9565b935061515e836150fa565b8060005b8381101561518f5781516151768882615119565b975061518183615131565b925050600181019050615162565b5085935050505092915050565b600081519050919050565b600082825260208201905092915050565b6000819050602082019050919050565b600082825260208201905092915050565b60006151e482613458565b6151ee81856151c8565b93506151fe818560208601613474565b6152078161349e565b840191505092915050565b600061521e83836151d9565b905092915050565b6000602082019050919050565b600061523e8261519c565b61524881856151a7565b93508360208202850161525a856151b8565b8060005b8581101561529657848403895281516152778582615212565b945061528283615226565b925060208a0199505060018101905061525e565b50829750879550505050505092915050565b600081519050919050565b600082825260208201905092915050565b6000819050602082019050919050565b600081519050919050565b600082825260208201905092915050565b60006152fb826152d4565b61530581856152df565b9350615315818560208601613474565b61531e8161349e565b840191505092915050565b600061533583836152f0565b905092915050565b6000602082019050919050565b6000615355826152a8565b61535f81856152b3565b935083602082028501615371856152c4565b8060005b858110156153ad578484038952815161538e8582615329565b94506153998361533d565b925060208a01995050600181019050615375565b50829750879550505050505092915050565b6000610120820190506153d5600083018c613363565b6153e2602083018b6133a4565b81810360408301526153f4818a615080565b90508181036060830152615408818961513e565b9050818103608083015261541c8188615233565b905081810360a0830152615430818761534a565b905081810360c083015261544481866134af565b905061545360e0830185613363565b615461610100830184613363565b9a9950505050505050505050565b7f70726f706f73616c2063616e206f6e6c7920626520657865637574656420696660008201527f2069742069732071756575656400000000000000000000000000000000000000602082015250565b60006154cb602d83613463565b91506154d68261546f565b604082019050919050565b600060208201905081810360008301526154fa816154be565b9050919050565b600060808201905061551660008301876133a4565b6155236020830186613363565b818103604083015261553581856142cc565b905081810360608301526155498184614376565b905095945050505050565b600061556761556284613c75565b6136e6565b90508281526020810184848401111561558357615582613681565b5b61558e848285613474565b509392505050565b600082601f8301126155ab576155aa61367c565b5b81516155bb848260208601615554565b91505092915050565b6000602082840312156155da576155d96132f6565b5b600082015167ffffffffffffffff8111156155f8576155f76132fb565b5b61560484828501615596565b91505092915050565b7f766f74696e6720697320636c6f73656400000000000000000000000000000000600082015250565b6000615643601083613463565b915061564e8261560d565b602082019050919050565b6000602082019050818103600083015261567281615636565b9050919050565b7f766f7465722068617320616c726561647920766f746564000000000000000000600082015250565b60006156af601783613463565b91506156ba82615679565b602082019050919050565b600060208201905081810360008301526156de816156a2565b9050919050565b60006080820190506156fa60008301876133a4565b6157076020830186613363565b61571460408301856133bf565b61572160608301846146f6565b95945050505050565b7f6164646974696f6e206f766572666c6f77000000000000000000000000000000600082015250565b6000615760601183613463565b915061576b8261572a565b602082019050919050565b6000602082019050818103600083015261578f81615753565b9050919050565b7f7375627472616374696f6e20756e646572666c6f770000000000000000000000600082015250565b60006157cc601583613463565b91506157d782615796565b602082019050919050565b600060208201905081810360008301526157fb816157bf565b9050919050565b600061580d82613300565b915061581883613300565b92508282039050818111156158305761582f61445b565b5b92915050565b6000615841826152d4565b61584b8185614350565b935061585b818560208601613474565b6158648161349e565b840191505092915050565b600060a08201905061588460008301886133a4565b6158916020830187613363565b81810360408301526158a381866134af565b905081810360608301526158b78185615836565b90506158c66080830184613363565b9695505050505050565b6000819050919050565b6158e3816158d0565b82525050565b60006020820190506158fe60008301846158da565b92915050565b7f2070726f706f73616c20616374696f6e20616c7265616479207175657565642060008201527f6174206574610000000000000000000000000000000000000000000000000000602082015250565b6000615960602683613463565b915061596b82615904565b604082019050919050565b6000602082019050818103600083015261598f81615953565b9050919050565b61599f816158d0565b81146159aa57600080fd5b50565b6000815190506159bc81615996565b92915050565b6000602082840312156159d8576159d76132f6565b5b60006159e6848285016159ad565b91505092915050565b601f821115615a3057615a0181614361565b615a0a84614dc1565b81016020851015615a19578190505b615a2d615a2585614dc1565b830182614e9e565b50505b505050565b615a3e826152d4565b67ffffffffffffffff811115615a5757615a56613686565b5b615a618254614286565b615a6c8282856159ef565b600060209050601f831160018114615a9f5760008415615a8d578287015190505b615a978582614f32565b865550615aff565b601f198416615aad86614361565b60005b82811015615ad557848901518255600182019150602085019450602081019050615ab0565b86831015615af25784890151615aee601f891682614f14565b8355505b6001600288020188555050505b505050505050565b7f4e487b7100000000000000000000000000000000000000000000000000000000600052605160045260246000fdfea2646970667358221220dede2000aa3bd89323775a307bf053f0bbc07bfe4efb6bcc782a837c77e3f5be64736f6c63430008130033",
  "linkReferences": {},
  "deployedLinkReferences": {}
}