{
  "_format": "hh-sol-artifact-1",
  "contractName": "samhitaToken",
  "sourceName": "contracts/samhitaToken.sol",
  "abi": [
    {
      "inputs": [
        {
          "internalType": "uint96",
          "name": "_initialSupplyToOwner",
          "type": "uint96"
        }
      ],
      "stateMutability": "nonpayable",
      "type": "constructor"
    },
    {
      "anonymous": false,
      "inputs": [
        {
          "indexed": true,
          "internalType": "address",
          "name": "owner",
          "type": "address"
        },
        {
          "indexed": true,
          "internalType": "address",
          "name": "spender",
          "type": "address"
        },
        {
          "indexed": false,
          "internalType": "uint256",
          "name": "value",
          "type": "uint256"
        }
      ],
      "name": "Approval",
      "type": "event"
    },
    {
      "anonymous": false,
      "inputs": [
        {
          "indexed": true,
          "internalType": "address",
          "name": "delegator",
          "type": "address"
        },
        {
          "indexed": true,
          "internalType": "address",
          "name": "fromDelegate",
          "type": "address"
        },
        {
          "indexed": true,
          "internalType": "address",
          "name": "toDelegate",
          "type": "address"
        }
      ],
      "name": "DelegateChanged",
      "type": "event"
    },
    {
      "anonymous": false,
      "inputs": [
        {
          "indexed": true,
          "internalType": "address",
          "name": "delegate",
          "type": "address"
        },
        {
          "indexed": false,
          "internalType": "uint256",
          "name": "previousBalance",
          "type": "uint256"
        },
        {
          "indexed": false,
          "internalType": "uint256",
          "name": "newBalance",
          "type": "uint256"
        }
      ],
      "name": "DelegateVotesChanged",
      "type": "event"
    },
    {
      "anonymous": false,
      "inputs": [
        {
          "indexed": true,
          "internalType": "address",
          "name": "previousOwner",
          "type": "address"
        },
        {
          "indexed": true,
          "internalType": "address",
          "name": "newOwner",
          "type": "address"
        }
      ],
      "name": "OwnershipTransferred",
      "type": "event"
    },
    {
      "anonymous": false,
      "inputs": [
        {
          "indexed": true,
          "internalType": "address",
          "name": "from",
          "type": "address"
        },
        {
          "indexed": true,
          "internalType": "address",
          "name": "to",
          "type": "address"
        },
        {
          "indexed": false,
          "internalType": "uint256",
          "name": "value",
          "type": "uint256"
        }
      ],
      "name": "Transfer",
      "type": "event"
    },
    {
      "inputs": [],
      "name": "DELEGATION_TYPEHASH",
      "outputs": [
        {
          "internalType": "bytes32",
          "name": "",
          "type": "bytes32"
        }
      ],
      "stateMutability": "view",
      "type": "function"
    },
    {
      "inputs": [],
      "name": "DOMAIN_TYPEHASH",
      "outputs": [
        {
          "internalType": "bytes32",
          "name": "",
          "type": "bytes32"
        }
      ],
      "stateMutability": "view",
      "type": "function"
    },
    {
      "inputs": [],
      "name": "admin",
      "outputs": [
        {
          "internalType": "address",
          "name": "",
          "type": "address"
        }
      ],
      "stateMutability": "view",
      "type": "function"
    },
    {
      "inputs": [
        {
          "internalType": "address",
          "name": "owner",
          "type": "address"
        },
        {
          "internalType": "address",
          "name": "spender",
          "type": "address"
        }
      ],
      "name": "allowance",
      "outputs": [
        {
          "internalType": "uint256",
          "name": "",
          "type": "uint256"
        }
      ],
      "stateMutability": "view",
      "type": "function"
    },
    {
      "inputs": [
        {
          "internalType": "address",
          "name": "spender",
          "type": "address"
        },
        {
          "internalType": "uint256",
          "name": "amount",
          "type": "uint256"
        }
      ],
      "name": "approve",
      "outputs": [
        {
          "internalType": "bool",
          "name": "",
          "type": "bool"
        }
      ],
      "stateMutability": "nonpayable",
      "type": "function"
    },
    {
      "inputs": [
        {
          "internalType": "address",
          "name": "account",
          "type": "address"
        }
      ],
      "name": "balanceOf",
      "outputs": [
        {
          "internalType": "uint256",
          "name": "",
          "type": "uint256"
        }
      ],
      "stateMutability": "view",
      "type": "function"
    },
    {
      "inputs": [
        {
          "internalType": "address",
          "name": "",
          "type": "address"
        },
        {
          "internalType": "uint32",
          "name": "",
          "type": "uint32"
        }
      ],
      "name": "checkpoints",
      "outputs": [
        {
          "internalType": "uint32",
          "name": "fromBlock",
          "type": "uint32"
        },
        {
          "internalType": "uint96",
          "name": "votes",
          "type": "uint96"
        }
      ],
      "stateMutability": "view",
      "type": "function"
    },
    {
      "inputs": [],
      "name": "decimals",
      "outputs": [
        {
          "internalType": "uint8",
          "name": "",
          "type": "uint8"
        }
      ],
      "stateMutability": "view",
      "type": "function"
    },
    {
      "inputs": [
        {
          "internalType": "address",
          "name": "spender",
          "type": "address"
        },
        {
          "internalType": "uint256",
          "name": "subtractedValue",
          "type": "uint256"
        }
      ],
      "name": "decreaseAllowance",
      "outputs": [
        {
          "internalType": "bool",
          "name": "",
          "type": "bool"
        }
      ],
      "stateMutability": "nonpayable",
      "type": "function"
    },
    {
      "inputs": [
        {
          "internalType": "address",
          "name": "to",
          "type": "address"
        }
      ],
      "name": "delegate",
      "outputs": [],
      "stateMutability": "payable",
      "type": "function"
    },
    {
      "inputs": [
        {
          "internalType": "address",
          "name": "from",
          "type": "address"
        },
        {
          "internalType": "address",
          "name": "to",
          "type": "address"
        }
      ],
      "name": "delegateTransfer",
      "outputs": [],
      "stateMutability": "nonpayable",
      "type": "function"
    },
    {
      "inputs": [
        {
          "internalType": "address",
          "name": "",
          "type": "address"
        }
      ],
      "name": "delegates",
      "outputs": [
        {
          "internalType": "address",
          "name": "",
          "type": "address"
        }
      ],
      "stateMutability": "view",
      "type": "function"
    },
    {
      "inputs": [
        {
          "internalType": "address",
          "name": "account",
          "type": "address"
        }
      ],
      "name": "getCurrentVotes",
      "outputs": [
        {
          "internalType": "uint96",
          "name": "",
          "type": "uint96"
        }
      ],
      "stateMutability": "view",
      "type": "function"
    },
    {
      "inputs": [
        {
          "internalType": "address",
          "name": "account",
          "type": "address"
        },
        {
          "internalType": "uint256",
          "name": "blockNumber",
          "type": "uint256"
        }
      ],
      "name": "getPriorVotes",
      "outputs": [
        {
          "internalType": "uint96",
          "name": "",
          "type": "uint96"
        }
      ],
      "stateMutability": "view",
      "type": "function"
    },
    {
      "inputs": [],
      "name": "getTokenPrice",
      "outputs": [
        {
          "internalType": "uint256",
          "name": "",
          "type": "uint256"
        }
      ],
      "stateMutability": "view",
      "type": "function"
    },
    {
      "inputs": [
        {
          "internalType": "address",
          "name": "spender",
          "type": "address"
        },
        {
          "internalType": "uint256",
          "name": "addedValue",
          "type": "uint256"
        }
      ],
      "name": "increaseAllowance",
      "outputs": [
        {
          "internalType": "bool",
          "name": "",
          "type": "bool"
        }
      ],
      "stateMutability": "nonpayable",
      "type": "function"
    },
    {
      "inputs": [
        {
          "internalType": "address",
          "name": "srcRep",
          "type": "address"
        },
        {
          "internalType": "address",
          "name": "destRep",
          "type": "address"
        },
        {
          "internalType": "uint96",
          "name": "amt",
          "type": "uint96"
        }
      ],
      "name": "moveDelegates",
      "outputs": [],
      "stateMutability": "nonpayable",
      "type": "function"
    },
    {
      "inputs": [],
      "name": "name",
      "outputs": [
        {
          "internalType": "string",
          "name": "",
          "type": "string"
        }
      ],
      "stateMutability": "view",
      "type": "function"
    },
    {
      "inputs": [
        {
          "internalType": "address",
          "name": "",
          "type": "address"
        }
      ],
      "name": "nonces",
      "outputs": [
        {
          "internalType": "uint256",
          "name": "",
          "type": "uint256"
        }
      ],
      "stateMutability": "view",
      "type": "function"
    },
    {
      "inputs": [
        {
          "internalType": "address",
          "name": "",
          "type": "address"
        }
      ],
      "name": "numCheckpoints",
      "outputs": [
        {
          "internalType": "uint32",
          "name": "",
          "type": "uint32"
        }
      ],
      "stateMutability": "view",
      "type": "function"
    },
    {
      "inputs": [],
      "name": "owner",
      "outputs": [
        {
          "internalType": "address",
          "name": "",
          "type": "address"
        }
      ],
      "stateMutability": "view",
      "type": "function"
    },
    {
      "inputs": [],
      "name": "renounceOwnership",
      "outputs": [],
      "stateMutability": "nonpayable",
      "type": "function"
    },
    {
      "inputs": [
        {
          "internalType": "uint256",
          "name": "_tokenPrice",
          "type": "uint256"
        }
      ],
      "name": "setTokenprice",
      "outputs": [],
      "stateMutability": "nonpayable",
      "type": "function"
    },
    {
      "inputs": [],
      "name": "symbol",
      "outputs": [
        {
          "internalType": "string",
          "name": "",
          "type": "string"
        }
      ],
      "stateMutability": "view",
      "type": "function"
    },
    {
      "inputs": [],
      "name": "totalSupply",
      "outputs": [
        {
          "internalType": "uint256",
          "name": "",
          "type": "uint256"
        }
      ],
      "stateMutability": "view",
      "type": "function"
    },
    {
      "inputs": [
        {
          "internalType": "address",
          "name": "to",
          "type": "address"
        },
        {
          "internalType": "uint256",
          "name": "amount",
          "type": "uint256"
        }
      ],
      "name": "transfer",
      "outputs": [
        {
          "internalType": "bool",
          "name": "",
          "type": "bool"
        }
      ],
      "stateMutability": "nonpayable",
      "type": "function"
    },
    {
      "inputs": [
        {
          "internalType": "address",
          "name": "from",
          "type": "address"
        },
        {
          "internalType": "address",
          "name": "to",
          "type": "address"
        },
        {
          "internalType": "uint256",
          "name": "amount",
          "type": "uint256"
        }
      ],
      "name": "transferFrom",
      "outputs": [
        {
          "internalType": "bool",
          "name": "",
          "type": "bool"
        }
      ],
      "stateMutability": "nonpayable",
      "type": "function"
    },
    {
      "inputs": [
        {
          "internalType": "address",
          "name": "newOwner",
          "type": "address"
        }
      ],
      "name": "transferOwnership",
      "outputs": [],
      "stateMutability": "nonpayable",
      "type": "function"
    },
    {
      "inputs": [
        {
          "internalType": "address",
          "name": "delegatee",
          "type": "address"
        },
        {
          "internalType": "uint32",
          "name": "nCheckpoints",
          "type": "uint32"
        },
        {
          "internalType": "uint96",
          "name": "oldVotes",
          "type": "uint96"
        },
        {
          "internalType": "uint96",
          "name": "newVotes",
          "type": "uint96"
        }
      ],
      "name": "writeCheckpoint",
      "outputs": [],
      "stateMutability": "nonpayable",
      "type": "function"
    }
  ],
  "bytecode": "0x6080604052655af3107a40006007553480156200001b57600080fd5b5060405162003b5b38038062003b5b83398181016040528101906200004191906200045c565b6040518060400160405280600f81526020017f53616d6869746144414f546f6b656e00000000000000000000000000000000008152506040518060400160405280600381526020017f53445400000000000000000000000000000000000000000000000000000000008152508160039081620000be919062000708565b508060049081620000d0919062000708565b505050620000f3620000e7620001c960201b60201c565b620001d160201b60201c565b33600660006101000a81548173ffffffffffffffffffffffffffffffffffffffff021916908373ffffffffffffffffffffffffffffffffffffffff1602179055506200015433826bffffffffffffffffffffffff166200029760201b60201c565b80600860003373ffffffffffffffffffffffffffffffffffffffff1673ffffffffffffffffffffffffffffffffffffffff16815260200190815260200160002060006101000a8154816bffffffffffffffffffffffff02191690836bffffffffffffffffffffffff160217905550506200090a565b600033905090565b6000600560009054906101000a900473ffffffffffffffffffffffffffffffffffffffff16905081600560006101000a81548173ffffffffffffffffffffffffffffffffffffffff021916908373ffffffffffffffffffffffffffffffffffffffff1602179055508173ffffffffffffffffffffffffffffffffffffffff168173ffffffffffffffffffffffffffffffffffffffff167f8be0079c531659141344cd1fd0a4f28419497f9722a3daafe3b4186f6b6457e060405160405180910390a35050565b600073ffffffffffffffffffffffffffffffffffffffff168273ffffffffffffffffffffffffffffffffffffffff160362000309576040517f08c379a0000000000000000000000000000000000000000000000000000000008152600401620003009062000850565b60405180910390fd5b6200031d600083836200040460201b60201c565b8060026000828254620003319190620008a1565b92505081905550806000808473ffffffffffffffffffffffffffffffffffffffff1673ffffffffffffffffffffffffffffffffffffffff168152602001908152602001600020600082825401925050819055508173ffffffffffffffffffffffffffffffffffffffff16600073ffffffffffffffffffffffffffffffffffffffff167fddf252ad1be2c89b69c2b068fc378daa952ba7f163c4a11628f55a4df523b3ef83604051620003e49190620008ed565b60405180910390a362000400600083836200040960201b60201c565b5050565b505050565b505050565b600080fd5b60006bffffffffffffffffffffffff82169050919050565b620004368162000413565b81146200044257600080fd5b50565b60008151905062000456816200042b565b92915050565b6000602082840312156200047557620004746200040e565b5b6000620004858482850162000445565b91505092915050565b600081519050919050565b7f4e487b7100000000000000000000000000000000000000000000000000000000600052604160045260246000fd5b7f4e487b7100000000000000000000000000000000000000000000000000000000600052602260045260246000fd5b600060028204905060018216806200051057607f821691505b602082108103620005265762000525620004c8565b5b50919050565b60008190508160005260206000209050919050565b60006020601f8301049050919050565b600082821b905092915050565b600060088302620005907fffffffffffffffffffffffffffffffffffffffffffffffffffffffffffffffff8262000551565b6200059c868362000551565b95508019841693508086168417925050509392505050565b6000819050919050565b6000819050919050565b6000620005e9620005e3620005dd84620005b4565b620005be565b620005b4565b9050919050565b6000819050919050565b6200060583620005c8565b6200061d6200061482620005f0565b8484546200055e565b825550505050565b600090565b6200063462000625565b62000641818484620005fa565b505050565b5b8181101562000669576200065d6000826200062a565b60018101905062000647565b5050565b601f821115620006b85762000682816200052c565b6200068d8462000541565b810160208510156200069d578190505b620006b5620006ac8562000541565b83018262000646565b50505b505050565b600082821c905092915050565b6000620006dd60001984600802620006bd565b1980831691505092915050565b6000620006f88383620006ca565b9150826002028217905092915050565b62000713826200048e565b67ffffffffffffffff8111156200072f576200072e62000499565b5b6200073b8254620004f7565b620007488282856200066d565b600060209050601f8311600181146200078057600084156200076b578287015190505b620007778582620006ea565b865550620007e7565b601f19841662000790866200052c565b60005b82811015620007ba5784890151825560018201915060208501945060208101905062000793565b86831015620007da5784890151620007d6601f891682620006ca565b8355505b6001600288020188555050505b505050505050565b600082825260208201905092915050565b7f45524332303a206d696e7420746f20746865207a65726f206164647265737300600082015250565b600062000838601f83620007ef565b9150620008458262000800565b602082019050919050565b600060208201905081810360008301526200086b8162000829565b9050919050565b7f4e487b7100000000000000000000000000000000000000000000000000000000600052601160045260246000fd5b6000620008ae82620005b4565b9150620008bb83620005b4565b9250828201905080821115620008d657620008d562000872565b5b92915050565b620008e781620005b4565b82525050565b6000602082019050620009046000830184620008dc565b92915050565b613241806200091a6000396000f3fe6080604052600436106101c25760003560e01c80637ecebe00116100f7578063b4b5ea5711610095578063f1127ed811610064578063f1127ed8146106a9578063f2fde38b146106e7578063f582d12e14610710578063f851a44014610739576101c2565b8063b4b5ea57146105db578063cd2eaaf914610618578063dd62ed3e14610641578063e7a324dc1461067e576101c2565b806395d89b41116100d157806395d89b411461050d578063a457c2d714610538578063a71d451c14610575578063a9059cbb1461059e576101c2565b80637ecebe001461047c5780638da5cb5b146104b95780638ecb987e146104e4576101c2565b80634b94f50e116101645780636fcfff451161013e5780636fcfff45146103ae57806370a08231146103eb578063715018a614610428578063782d6fe11461043f576101c2565b80634b94f50e1461032a578063587cde1e146103555780635c19a95c14610392576101c2565b806320606b70116101a057806320606b701461025a57806323b872dd14610285578063313ce567146102c257806339509351146102ed576101c2565b806306fdde03146101c7578063095ea7b3146101f257806318160ddd1461022f575b600080fd5b3480156101d357600080fd5b506101dc610764565b6040516101e9919061249a565b60405180910390f35b3480156101fe57600080fd5b5061021960048036038101906102149190612555565b6107f6565b60405161022691906125b0565b60405180910390f35b34801561023b57600080fd5b50610244610819565b60405161025191906125da565b60405180910390f35b34801561026657600080fd5b5061026f610823565b60405161027c919061260e565b60405180910390f35b34801561029157600080fd5b506102ac60048036038101906102a79190612629565b610847565b6040516102b991906125b0565b60405180910390f35b3480156102ce57600080fd5b506102d7610876565b6040516102e49190612698565b60405180910390f35b3480156102f957600080fd5b50610314600480360381019061030f9190612555565b61087f565b60405161032191906125b0565b60405180910390f35b34801561033657600080fd5b5061033f6108b6565b60405161034c91906125da565b60405180910390f35b34801561036157600080fd5b5061037c600480360381019061037791906126b3565b6108c0565b60405161038991906126ef565b60405180910390f35b6103ac60048036038101906103a791906126b3565b6108f3565b005b3480156103ba57600080fd5b506103d560048036038101906103d091906126b3565b610900565b6040516103e29190612729565b60405180910390f35b3480156103f757600080fd5b50610412600480360381019061040d91906126b3565b610923565b60405161041f91906125da565b60405180910390f35b34801561043457600080fd5b5061043d61096b565b005b34801561044b57600080fd5b5061046660048036038101906104619190612555565b61097f565b604051610473919061276b565b60405180910390f35b34801561048857600080fd5b506104a3600480360381019061049e91906126b3565b610db8565b6040516104b091906125da565b60405180910390f35b3480156104c557600080fd5b506104ce610dd0565b6040516104db91906126ef565b60405180910390f35b3480156104f057600080fd5b5061050b60048036038101906105069190612786565b610dfa565b005b34801561051957600080fd5b50610522610e04565b60405161052f919061249a565b60405180910390f35b34801561054457600080fd5b5061055f600480360381019061055a9190612555565b610e96565b60405161056c91906125b0565b60405180910390f35b34801561058157600080fd5b5061059c600480360381019061059791906127b3565b610f0d565b005b3480156105aa57600080fd5b506105c560048036038101906105c09190612555565b6110cd565b6040516105d291906125b0565b60405180910390f35b3480156105e757600080fd5b5061060260048036038101906105fd91906126b3565b6110f0565b60405161060f919061276b565b60405180910390f35b34801561062457600080fd5b5061063f600480360381019061063a919061281f565b6111e7565b005b34801561064d57600080fd5b50610668600480360381019061066391906127b3565b6115a9565b60405161067591906125da565b60405180910390f35b34801561068a57600080fd5b50610693611630565b6040516106a0919061260e565b60405180910390f35b3480156106b557600080fd5b506106d060048036038101906106cb919061289e565b611654565b6040516106de9291906128de565b60405180910390f35b3480156106f357600080fd5b5061070e600480360381019061070991906126b3565b6116ad565b005b34801561071c57600080fd5b5061073760048036038101906107329190612907565b611730565b005b34801561074557600080fd5b5061074e611c74565b60405161075b91906126ef565b60405180910390f35b6060600380546107739061299d565b80601f016020809104026020016040519081016040528092919081815260200182805461079f9061299d565b80156107ec5780601f106107c1576101008083540402835291602001916107ec565b820191906000526020600020905b8154815290600101906020018083116107cf57829003601f168201915b5050505050905090565b600080610801611c9a565b905061080e818585611ca2565b600191505092915050565b6000600254905090565b7f8cad95687ba82c2ce50e74f7b754645e5117c3a5bec8151c0726d5857980a86681565b600080610852611c9a565b905061085f858285611e6b565b61086a858585611ef7565b60019150509392505050565b60006012905090565b60008061088a611c9a565b90506108ab81858561089c85896115a9565b6108a691906129fd565b611ca2565b600191505092915050565b6000600754905090565b60096020528060005260406000206000915054906101000a900473ffffffffffffffffffffffffffffffffffffffff1681565b6108fd3382610f0d565b50565b600b6020528060005260406000206000915054906101000a900463ffffffff1681565b60008060008373ffffffffffffffffffffffffffffffffffffffff1673ffffffffffffffffffffffffffffffffffffffff168152602001908152602001600020549050919050565b61097361216d565b61097d60006121eb565b565b60004382106109c3576040517f08c379a00000000000000000000000000000000000000000000000000000000081526004016109ba90612aa3565b60405180910390fd5b6000600b60008573ffffffffffffffffffffffffffffffffffffffff1673ffffffffffffffffffffffffffffffffffffffff16815260200190815260200160002060009054906101000a900463ffffffff16905060008163ffffffff1603610a2f576000915050610db2565b82600a60008673ffffffffffffffffffffffffffffffffffffffff1673ffffffffffffffffffffffffffffffffffffffff1681526020019081526020016000206000600184610a7e9190612ac3565b63ffffffff1663ffffffff16815260200190815260200160002060000160009054906101000a900463ffffffff1663ffffffff1611610b4357600a60008573ffffffffffffffffffffffffffffffffffffffff1673ffffffffffffffffffffffffffffffffffffffff1681526020019081526020016000206000600183610b059190612ac3565b63ffffffff1663ffffffff16815260200190815260200160002060000160049054906101000a90046bffffffffffffffffffffffff16915050610db2565b82600a60008673ffffffffffffffffffffffffffffffffffffffff1673ffffffffffffffffffffffffffffffffffffffff16815260200190815260200160002060008063ffffffff16815260200190815260200160002060000160009054906101000a900463ffffffff1663ffffffff161115610bc4576000915050610db2565b600080600183610bd49190612ac3565b90505b8163ffffffff168163ffffffff161115610d3457600060028383610bfb9190612ac3565b610c059190612b2a565b82610c109190612ac3565b90506000600a60008973ffffffffffffffffffffffffffffffffffffffff1673ffffffffffffffffffffffffffffffffffffffff16815260200190815260200160002060008363ffffffff1663ffffffff1681526020019081526020016000206040518060400160405290816000820160009054906101000a900463ffffffff1663ffffffff1663ffffffff1681526020016000820160049054906101000a90046bffffffffffffffffffffffff166bffffffffffffffffffffffff166bffffffffffffffffffffffff1681525050905086816000015163ffffffff1603610d0357806020015195505050505050610db2565b86816000015163ffffffff161015610d1d57819350610d2d565b600182610d2a9190612ac3565b92505b5050610bd7565b600a60008773ffffffffffffffffffffffffffffffffffffffff1673ffffffffffffffffffffffffffffffffffffffff16815260200190815260200160002060008363ffffffff1663ffffffff16815260200190815260200160002060000160049054906101000a90046bffffffffffffffffffffffff1693505050505b92915050565b600d6020528060005260406000206000915090505481565b6000600560009054906101000a900473ffffffffffffffffffffffffffffffffffffffff16905090565b8060078190555050565b606060048054610e139061299d565b80601f0160208091040260200160405190810160405280929190818152602001828054610e3f9061299d565b8015610e8c5780601f10610e6157610100808354040283529160200191610e8c565b820191906000526020600020905b815481529060010190602001808311610e6f57829003601f168201915b5050505050905090565b600080610ea1611c9a565b90506000610eaf82866115a9565b905083811015610ef4576040517f08c379a0000000000000000000000000000000000000000000000000000000008152600401610eeb90612bcd565b60405180910390fd5b610f018286868403611ca2565b60019250505092915050565b6000600960008473ffffffffffffffffffffffffffffffffffffffff1673ffffffffffffffffffffffffffffffffffffffff16815260200190815260200160002060009054906101000a900473ffffffffffffffffffffffffffffffffffffffff1690506000600860008573ffffffffffffffffffffffffffffffffffffffff1673ffffffffffffffffffffffffffffffffffffffff16815260200190815260200160002060009054906101000a90046bffffffffffffffffffffffff16905082600960008673ffffffffffffffffffffffffffffffffffffffff1673ffffffffffffffffffffffffffffffffffffffff16815260200190815260200160002060006101000a81548173ffffffffffffffffffffffffffffffffffffffff021916908373ffffffffffffffffffffffffffffffffffffffff1602179055508273ffffffffffffffffffffffffffffffffffffffff168273ffffffffffffffffffffffffffffffffffffffff168573ffffffffffffffffffffffffffffffffffffffff167f3134e8a2e6d97e929a7e54011ea5485d7d196dd5f0ba4d4ef95803e8e3fc257f60405160405180910390a46110c78284836111e7565b50505050565b6000806110d8611c9a565b90506110e5818585611ef7565b600191505092915050565b600080600b60008473ffffffffffffffffffffffffffffffffffffffff1673ffffffffffffffffffffffffffffffffffffffff16815260200190815260200160002060009054906101000a900463ffffffff16905060008163ffffffff161161115a5760006111df565b600a60008473ffffffffffffffffffffffffffffffffffffffff1673ffffffffffffffffffffffffffffffffffffffff16815260200190815260200160002060006001836111a89190612ac3565b63ffffffff1663ffffffff16815260200190815260200160002060000160049054906101000a90046bffffffffffffffffffffffff165b915050919050565b8173ffffffffffffffffffffffffffffffffffffffff168373ffffffffffffffffffffffffffffffffffffffff161415801561123157506000816bffffffffffffffffffffffff16115b156115a457600073ffffffffffffffffffffffffffffffffffffffff168373ffffffffffffffffffffffffffffffffffffffff161461142a576000600b60008573ffffffffffffffffffffffffffffffffffffffff1673ffffffffffffffffffffffffffffffffffffffff16815260200190815260200160002060009054906101000a900463ffffffff1690506000808263ffffffff16116112d4576000611359565b600a60008673ffffffffffffffffffffffffffffffffffffffff1673ffffffffffffffffffffffffffffffffffffffff16815260200190815260200160002060006001846113229190612ac3565b63ffffffff1663ffffffff16815260200190815260200160002060000160049054906101000a90046bffffffffffffffffffffffff165b9050826bffffffffffffffffffffffff16816bffffffffffffffffffffffff16101580156113975750612710816bffffffffffffffffffffffff1610155b6113d6576040517f08c379a00000000000000000000000000000000000000000000000000000000081526004016113cd90612c5f565b60405180910390fd5b600061141882856040518060400160405280601481526020017f766f74657320616d7420756e646572666c6f77730000000000000000000000008152506122b1565b905061142686848484611730565b5050505b600073ffffffffffffffffffffffffffffffffffffffff168273ffffffffffffffffffffffffffffffffffffffff16146115a3576000600b60008473ffffffffffffffffffffffffffffffffffffffff1673ffffffffffffffffffffffffffffffffffffffff16815260200190815260200160002060009054906101000a900463ffffffff1690506000808263ffffffff16116114c857600061154d565b600a60008573ffffffffffffffffffffffffffffffffffffffff1673ffffffffffffffffffffffffffffffffffffffff16815260200190815260200160002060006001846115169190612ac3565b63ffffffff1663ffffffff16815260200190815260200160002060000160049054906101000a90046bffffffffffffffffffffffff165b9050600061159182856040518060400160405280601381526020017f766f74657320616d74206f766572666c6f77730000000000000000000000000081525061232b565b905061159f85848484611730565b5050505b5b505050565b6000600160008473ffffffffffffffffffffffffffffffffffffffff1673ffffffffffffffffffffffffffffffffffffffff16815260200190815260200160002060008373ffffffffffffffffffffffffffffffffffffffff1673ffffffffffffffffffffffffffffffffffffffff16815260200190815260200160002054905092915050565b7fe48329057bfd03d55e49b547132e39cffd9c1820ad7b9d4c5307691425d15adf81565b600a602052816000526040600020602052806000526040600020600091509150508060000160009054906101000a900463ffffffff16908060000160049054906101000a90046bffffffffffffffffffffffff16905082565b6116b561216d565b600073ffffffffffffffffffffffffffffffffffffffff168173ffffffffffffffffffffffffffffffffffffffff1603611724576040517f08c379a000000000000000000000000000000000000000000000000000000000815260040161171b90612cf1565b60405180910390fd5b61172d816121eb565b50565b6000611771436040518060400160405280601c81526020017f626c6f636b206e756d62657220657863656564732033322062697473000000008152506123aa565b905060008463ffffffff1611801561180f57508063ffffffff16600a60008773ffffffffffffffffffffffffffffffffffffffff1673ffffffffffffffffffffffffffffffffffffffff16815260200190815260200160002060006001876117d99190612ac3565b63ffffffff1663ffffffff16815260200190815260200160002060000160009054906101000a900463ffffffff1663ffffffff16145b156118b35781600a60008773ffffffffffffffffffffffffffffffffffffffff1673ffffffffffffffffffffffffffffffffffffffff16815260200190815260200160002060006001876118639190612ac3565b63ffffffff1663ffffffff16815260200190815260200160002060000160046101000a8154816bffffffffffffffffffffffff02191690836bffffffffffffffffffffffff160217905550611c1d565b60008463ffffffff1611801561194f57508063ffffffff16600a60008773ffffffffffffffffffffffffffffffffffffffff1673ffffffffffffffffffffffffffffffffffffffff16815260200190815260200160002060006001876119199190612ac3565b63ffffffff1663ffffffff16815260200190815260200160002060000160009054906101000a900463ffffffff1663ffffffff16105b15611acc5760405180604001604052808263ffffffff168152602001600a60008873ffffffffffffffffffffffffffffffffffffffff1673ffffffffffffffffffffffffffffffffffffffff16815260200190815260200160002060006001886119b99190612ac3565b63ffffffff1663ffffffff16815260200190815260200160002060000160049054906101000a90046bffffffffffffffffffffffff166bffffffffffffffffffffffff16815250600a60008773ffffffffffffffffffffffffffffffffffffffff1673ffffffffffffffffffffffffffffffffffffffff16815260200190815260200160002060008663ffffffff1663ffffffff16815260200190815260200160002060008201518160000160006101000a81548163ffffffff021916908363ffffffff16021790555060208201518160000160046101000a8154816bffffffffffffffffffffffff02191690836bffffffffffffffffffffffff1602179055509050508380611ac890612d11565b9450505b60405180604001604052808263ffffffff168152602001836bffffffffffffffffffffffff16815250600a60008773ffffffffffffffffffffffffffffffffffffffff1673ffffffffffffffffffffffffffffffffffffffff16815260200190815260200160002060008663ffffffff1663ffffffff16815260200190815260200160002060008201518160000160006101000a81548163ffffffff021916908363ffffffff16021790555060208201518160000160046101000a8154816bffffffffffffffffffffffff02191690836bffffffffffffffffffffffff160217905550905050600184611bbf9190612d3d565b600b60008773ffffffffffffffffffffffffffffffffffffffff1673ffffffffffffffffffffffffffffffffffffffff16815260200190815260200160002060006101000a81548163ffffffff021916908363ffffffff1602179055505b8473ffffffffffffffffffffffffffffffffffffffff167fdec2bacdd2f05b59de34da9b523dff8be42e5e38e818c82fdb0bae774387a7248484604051611c65929190612db0565b60405180910390a25050505050565b600660009054906101000a900473ffffffffffffffffffffffffffffffffffffffff1681565b600033905090565b600073ffffffffffffffffffffffffffffffffffffffff168373ffffffffffffffffffffffffffffffffffffffff1603611d11576040517f08c379a0000000000000000000000000000000000000000000000000000000008152600401611d0890612e4b565b60405180910390fd5b600073ffffffffffffffffffffffffffffffffffffffff168273ffffffffffffffffffffffffffffffffffffffff1603611d80576040517f08c379a0000000000000000000000000000000000000000000000000000000008152600401611d7790612edd565b60405180910390fd5b80600160008573ffffffffffffffffffffffffffffffffffffffff1673ffffffffffffffffffffffffffffffffffffffff16815260200190815260200160002060008473ffffffffffffffffffffffffffffffffffffffff1673ffffffffffffffffffffffffffffffffffffffff168152602001908152602001600020819055508173ffffffffffffffffffffffffffffffffffffffff168373ffffffffffffffffffffffffffffffffffffffff167f8c5be1e5ebec7d5bd14f71427d1e84f3dd0314c0f7b2291e5b200ac8c7c3b92583604051611e5e91906125da565b60405180910390a3505050565b6000611e7784846115a9565b90507fffffffffffffffffffffffffffffffffffffffffffffffffffffffffffffffff8114611ef15781811015611ee3576040517f08c379a0000000000000000000000000000000000000000000000000000000008152600401611eda90612f49565b60405180910390fd5b611ef08484848403611ca2565b5b50505050565b600073ffffffffffffffffffffffffffffffffffffffff168373ffffffffffffffffffffffffffffffffffffffff1603611f66576040517f08c379a0000000000000000000000000000000000000000000000000000000008152600401611f5d90612fdb565b60405180910390fd5b600073ffffffffffffffffffffffffffffffffffffffff168273ffffffffffffffffffffffffffffffffffffffff1603611fd5576040517f08c379a0000000000000000000000000000000000000000000000000000000008152600401611fcc9061306d565b60405180910390fd5b611fe0838383612400565b60008060008573ffffffffffffffffffffffffffffffffffffffff1673ffffffffffffffffffffffffffffffffffffffff16815260200190815260200160002054905081811015612066576040517f08c379a000000000000000000000000000000000000000000000000000000000815260040161205d906130ff565b60405180910390fd5b8181036000808673ffffffffffffffffffffffffffffffffffffffff1673ffffffffffffffffffffffffffffffffffffffff16815260200190815260200160002081905550816000808573ffffffffffffffffffffffffffffffffffffffff1673ffffffffffffffffffffffffffffffffffffffff168152602001908152602001600020600082825401925050819055508273ffffffffffffffffffffffffffffffffffffffff168473ffffffffffffffffffffffffffffffffffffffff167fddf252ad1be2c89b69c2b068fc378daa952ba7f163c4a11628f55a4df523b3ef8460405161215491906125da565b60405180910390a3612167848484612405565b50505050565b612175611c9a565b73ffffffffffffffffffffffffffffffffffffffff16612193610dd0565b73ffffffffffffffffffffffffffffffffffffffff16146121e9576040517f08c379a00000000000000000000000000000000000000000000000000000000081526004016121e09061316b565b60405180910390fd5b565b6000600560009054906101000a900473ffffffffffffffffffffffffffffffffffffffff16905081600560006101000a81548173ffffffffffffffffffffffffffffffffffffffff021916908373ffffffffffffffffffffffffffffffffffffffff1602179055508173ffffffffffffffffffffffffffffffffffffffff168173ffffffffffffffffffffffffffffffffffffffff167f8be0079c531659141344cd1fd0a4f28419497f9722a3daafe3b4186f6b6457e060405160405180910390a35050565b6000836bffffffffffffffffffffffff16836bffffffffffffffffffffffff1611158290612315576040517f08c379a000000000000000000000000000000000000000000000000000000000815260040161230c919061249a565b60405180910390fd5b508284612322919061318b565b90509392505050565b600080838561233a91906131cb565b9050836bffffffffffffffffffffffff16816bffffffffffffffffffffffff161015839061239e576040517f08c379a0000000000000000000000000000000000000000000000000000000008152600401612395919061249a565b60405180910390fd5b50809150509392505050565b6000640100000000831082906123f6576040517f08c379a00000000000000000000000000000000000000000000000000000000081526004016123ed919061249a565b60405180910390fd5b5082905092915050565b505050565b505050565b600081519050919050565b600082825260208201905092915050565b60005b83811015612444578082015181840152602081019050612429565b60008484015250505050565b6000601f19601f8301169050919050565b600061246c8261240a565b6124768185612415565b9350612486818560208601612426565b61248f81612450565b840191505092915050565b600060208201905081810360008301526124b48184612461565b905092915050565b600080fd5b600073ffffffffffffffffffffffffffffffffffffffff82169050919050565b60006124ec826124c1565b9050919050565b6124fc816124e1565b811461250757600080fd5b50565b600081359050612519816124f3565b92915050565b6000819050919050565b6125328161251f565b811461253d57600080fd5b50565b60008135905061254f81612529565b92915050565b6000806040838503121561256c5761256b6124bc565b5b600061257a8582860161250a565b925050602061258b85828601612540565b9150509250929050565b60008115159050919050565b6125aa81612595565b82525050565b60006020820190506125c560008301846125a1565b92915050565b6125d48161251f565b82525050565b60006020820190506125ef60008301846125cb565b92915050565b6000819050919050565b612608816125f5565b82525050565b600060208201905061262360008301846125ff565b92915050565b600080600060608486031215612642576126416124bc565b5b60006126508682870161250a565b93505060206126618682870161250a565b925050604061267286828701612540565b9150509250925092565b600060ff82169050919050565b6126928161267c565b82525050565b60006020820190506126ad6000830184612689565b92915050565b6000602082840312156126c9576126c86124bc565b5b60006126d78482850161250a565b91505092915050565b6126e9816124e1565b82525050565b600060208201905061270460008301846126e0565b92915050565b600063ffffffff82169050919050565b6127238161270a565b82525050565b600060208201905061273e600083018461271a565b92915050565b60006bffffffffffffffffffffffff82169050919050565b61276581612744565b82525050565b6000602082019050612780600083018461275c565b92915050565b60006020828403121561279c5761279b6124bc565b5b60006127aa84828501612540565b91505092915050565b600080604083850312156127ca576127c96124bc565b5b60006127d88582860161250a565b92505060206127e98582860161250a565b9150509250929050565b6127fc81612744565b811461280757600080fd5b50565b600081359050612819816127f3565b92915050565b600080600060608486031215612838576128376124bc565b5b60006128468682870161250a565b93505060206128578682870161250a565b92505060406128688682870161280a565b9150509250925092565b61287b8161270a565b811461288657600080fd5b50565b60008135905061289881612872565b92915050565b600080604083850312156128b5576128b46124bc565b5b60006128c38582860161250a565b92505060206128d485828601612889565b9150509250929050565b60006040820190506128f3600083018561271a565b612900602083018461275c565b9392505050565b60008060008060808587031215612921576129206124bc565b5b600061292f8782880161250a565b945050602061294087828801612889565b93505060406129518782880161280a565b92505060606129628782880161280a565b91505092959194509250565b7f4e487b7100000000000000000000000000000000000000000000000000000000600052602260045260246000fd5b600060028204905060018216806129b557607f821691505b6020821081036129c8576129c761296e565b5b50919050565b7f4e487b7100000000000000000000000000000000000000000000000000000000600052601160045260246000fd5b6000612a088261251f565b9150612a138361251f565b9250828201905080821115612a2b57612a2a6129ce565b5b92915050565b7f6765745072696f72566f7465733a206e6f74207965742064657465726d696e6560008201527f6400000000000000000000000000000000000000000000000000000000000000602082015250565b6000612a8d602183612415565b9150612a9882612a31565b604082019050919050565b60006020820190508181036000830152612abc81612a80565b9050919050565b6000612ace8261270a565b9150612ad98361270a565b9250828203905063ffffffff811115612af557612af46129ce565b5b92915050565b7f4e487b7100000000000000000000000000000000000000000000000000000000600052601260045260246000fd5b6000612b358261270a565b9150612b408361270a565b925082612b5057612b4f612afb565b5b828204905092915050565b7f45524332303a2064656372656173656420616c6c6f77616e63652062656c6f7760008201527f207a65726f000000000000000000000000000000000000000000000000000000602082015250565b6000612bb7602583612415565b9150612bc282612b5b565b604082019050919050565b60006020820190508181036000830152612be681612baa565b9050919050565b7f496e73756666696369656e7420766f74696e6720706f776572206f722062616c60008201527f616e636500000000000000000000000000000000000000000000000000000000602082015250565b6000612c49602483612415565b9150612c5482612bed565b604082019050919050565b60006020820190508181036000830152612c7881612c3c565b9050919050565b7f4f776e61626c653a206e6577206f776e657220697320746865207a65726f206160008201527f6464726573730000000000000000000000000000000000000000000000000000602082015250565b6000612cdb602683612415565b9150612ce682612c7f565b604082019050919050565b60006020820190508181036000830152612d0a81612cce565b9050919050565b6000612d1c8261270a565b915063ffffffff8203612d3257612d316129ce565b5b600182019050919050565b6000612d488261270a565b9150612d538361270a565b9250828201905063ffffffff811115612d6f57612d6e6129ce565b5b92915050565b6000819050919050565b6000612d9a612d95612d9084612744565b612d75565b61251f565b9050919050565b612daa81612d7f565b82525050565b6000604082019050612dc56000830185612da1565b612dd26020830184612da1565b9392505050565b7f45524332303a20617070726f76652066726f6d20746865207a65726f2061646460008201527f7265737300000000000000000000000000000000000000000000000000000000602082015250565b6000612e35602483612415565b9150612e4082612dd9565b604082019050919050565b60006020820190508181036000830152612e6481612e28565b9050919050565b7f45524332303a20617070726f766520746f20746865207a65726f20616464726560008201527f7373000000000000000000000000000000000000000000000000000000000000602082015250565b6000612ec7602283612415565b9150612ed282612e6b565b604082019050919050565b60006020820190508181036000830152612ef681612eba565b9050919050565b7f45524332303a20696e73756666696369656e7420616c6c6f77616e6365000000600082015250565b6000612f33601d83612415565b9150612f3e82612efd565b602082019050919050565b60006020820190508181036000830152612f6281612f26565b9050919050565b7f45524332303a207472616e736665722066726f6d20746865207a65726f20616460008201527f6472657373000000000000000000000000000000000000000000000000000000602082015250565b6000612fc5602583612415565b9150612fd082612f69565b604082019050919050565b60006020820190508181036000830152612ff481612fb8565b9050919050565b7f45524332303a207472616e7366657220746f20746865207a65726f206164647260008201527f6573730000000000000000000000000000000000000000000000000000000000602082015250565b6000613057602383612415565b915061306282612ffb565b604082019050919050565b600060208201905081810360008301526130868161304a565b9050919050565b7f45524332303a207472616e7366657220616d6f756e742065786365656473206260008201527f616c616e63650000000000000000000000000000000000000000000000000000602082015250565b60006130e9602683612415565b91506130f48261308d565b604082019050919050565b60006020820190508181036000830152613118816130dc565b9050919050565b7f4f776e61626c653a2063616c6c6572206973206e6f7420746865206f776e6572600082015250565b6000613155602083612415565b91506131608261311f565b602082019050919050565b6000602082019050818103600083015261318481613148565b9050919050565b600061319682612744565b91506131a183612744565b925082820390506bffffffffffffffffffffffff8111156131c5576131c46129ce565b5b92915050565b60006131d682612744565b91506131e183612744565b925082820190506bffffffffffffffffffffffff811115613205576132046129ce565b5b9291505056fea2646970667358221220c5742ebb7279af79c063b8dd68a60fd3ceac870f21ec39097d3b69c5a700ab6964736f6c63430008130033",
  "linkReferences": {},
  "deployedLinkReferences": {}
}